{
  "contractName": "CertificateContract",
  "abi": [
    {
      "constant": true,
      "inputs": [],
      "name": "stage",
      "outputs": [
        {
          "name": "",
          "type": "uint8"
        }
      ],
      "payable": false,
      "stateMutability": "view",
      "type": "function"
    },
    {
      "constant": true,
      "inputs": [],
      "name": "test",
      "outputs": [
        {
          "name": "",
          "type": "uint256"
        }
      ],
      "payable": false,
      "stateMutability": "view",
      "type": "function"
    },
    {
      "inputs": [
        {
          "name": "_collegeAddress",
          "type": "address"
        }
      ],
      "payable": false,
      "stateMutability": "nonpayable",
      "type": "constructor"
    },
    {
      "constant": false,
      "inputs": [],
      "name": "issueCertificate",
      "outputs": [],
      "payable": false,
      "stateMutability": "nonpayable",
      "type": "function"
    },
    {
      "constant": false,
      "inputs": [
        {
          "name": "_collegeAddress",
          "type": "address"
        },
        {
          "name": "_regAddress",
          "type": "address"
        }
      ],
      "name": "requestCertification",
      "outputs": [],
      "payable": false,
      "stateMutability": "nonpayable",
      "type": "function"
    },
    {
      "constant": false,
      "inputs": [],
      "name": "acceptCertificate",
      "outputs": [],
      "payable": false,
      "stateMutability": "nonpayable",
      "type": "function"
    },
    {
      "constant": true,
      "inputs": [],
      "name": "getCertificationStatus",
      "outputs": [
        {
          "name": "",
          "type": "string"
        }
      ],
      "payable": false,
      "stateMutability": "view",
      "type": "function"
    }
  ],
  "bytecode": "0x6080604052600080556000600260146101000a81548160ff0219169083600381111561002757fe5b021790555034801561003857600080fd5b5060405160208061092f8339810180604052602081101561005857600080fd5b810190808051906020019092919050505080600160006101000a81548173ffffffffffffffffffffffffffffffffffffffff021916908373ffffffffffffffffffffffffffffffffffffffff16021790555032600260006101000a81548173ffffffffffffffffffffffffffffffffffffffff021916908373ffffffffffffffffffffffffffffffffffffffff16021790555050610834806100fb6000396000f3fe608060405260043610610078576000357c0100000000000000000000000000000000000000000000000000000000900463ffffffff16806337feafd41461007d5780633bf6d35c146100945780637f70e975146101055780638181693314610195578063c040e6b8146101ac578063f8a8fd6d146101e5575b600080fd5b34801561008957600080fd5b50610092610210565b005b3480156100a057600080fd5b50610103600480360360408110156100b757600080fd5b81019080803573ffffffffffffffffffffffffffffffffffffffff169060200190929190803573ffffffffffffffffffffffffffffffffffffffff1690602001909291905050506102ae565b005b34801561011157600080fd5b5061011a610553565b6040518080602001828103825283818151815260200191508051906020019080838360005b8381101561015a57808201518184015260208101905061013f565b50505050905090810190601f1680156101875780820380516001836020036101000a031916815260200191505b509250505060405180910390f35b3480156101a157600080fd5b506101aa610704565b005b3480156101b857600080fd5b506101c16107a2565b604051808260038111156101d157fe5b60ff16815260200191505060405180910390f35b3480156101f157600080fd5b506101fa6107b5565b6040518082815260200191505060405180910390f35b600280600381111561021e57fe5b600260149054906101000a900460ff16600381111561023957fe5b14151561024557600080fd5b32600260009054906101000a900473ffffffffffffffffffffffffffffffffffffffff1673ffffffffffffffffffffffffffffffffffffffff168173ffffffffffffffffffffffffffffffffffffffff161415156102a257600080fd5b6102aa6107bb565b5050565b60008060038111156102bc57fe5b600260149054906101000a900460ff1660038111156102d757fe5b1415156102e357600080fd5b82328360008190508073ffffffffffffffffffffffffffffffffffffffff1663bd2f93d06040518163ffffffff167c010000000000000000000000000000000000000000000000000000000002815260040160206040518083038186803b15801561034d57600080fd5b505afa158015610361573d6000803e3d6000fd5b505050506040513d602081101561037757600080fd5b810190808051906020019092919050505073ffffffffffffffffffffffffffffffffffffffff168473ffffffffffffffffffffffffffffffffffffffff161415156103c157600080fd5b8073ffffffffffffffffffffffffffffffffffffffff16633c7328156040518163ffffffff167c010000000000000000000000000000000000000000000000000000000002815260040160206040518083038186803b15801561042357600080fd5b505afa158015610437573d6000803e3d6000fd5b505050506040513d602081101561044d57600080fd5b810190808051906020019092919050505073ffffffffffffffffffffffffffffffffffffffff168373ffffffffffffffffffffffffffffffffffffffff1614151561049757600080fd5b8073ffffffffffffffffffffffffffffffffffffffff1663fcaa76646040518163ffffffff167c010000000000000000000000000000000000000000000000000000000002815260040160206040518083038186803b1580156104f957600080fd5b505afa15801561050d573d6000803e3d6000fd5b505050506040513d602081101561052357600080fd5b8101908080519060200190929190505050600210151561054257600080fd5b61054a6107bb565b50505050505050565b6060600260149054906101000a900460ff16600381111561057057fe5b6000600381111561057d57fe5b14156105c0576040805190810160405280601b81526020017f416363657074696e6743657274696669636174655265717565737400000000008152509050610701565b600260149054906101000a900460ff1660038111156105db57fe5b600160038111156105e857fe5b141561062b576040805190810160405280601281526020017f52657175657374436572746966696361746500000000000000000000000000008152509050610701565b600260149054906101000a900460ff16600381111561064657fe5b6002600381111561065357fe5b1415610696576040805190810160405280601081526020017f49737375654365727469666963617465000000000000000000000000000000008152509050610701565b600260149054906101000a900460ff1660038111156106b157fe5b6003808111156106bd57fe5b1415610700576040805190810160405280601181526020017f61636365707443657274696669636174650000000000000000000000000000008152509050610701565b5b90565b600180600381111561071257fe5b600260149054906101000a900460ff16600381111561072d57fe5b14151561073957600080fd5b32600160009054906101000a900473ffffffffffffffffffffffffffffffffffffffff1673ffffffffffffffffffffffffffffffffffffffff168173ffffffffffffffffffffffffffffffffffffffff1614151561079657600080fd5b61079e6107bb565b5050565b600260149054906101000a900460ff1681565b60005481565b6001600260149054906101000a900460ff1660038111156107d857fe5b0160038111156107e457fe5b600260146101000a81548160ff0219169083600381111561080157fe5b021790555056fea165627a7a7230582089a0ead63ed9578de84431cfe7014b93bf5c6f710850b054e3fbb850430f85ce0029",
  "source": "pragma solidity ^0.5.0;\n\ncontract RegistrationAndCertificateContractFactory {\n\n    struct Student {\n        string fullName;\n        uint phoneNumber;\n        string emailId;\n        address[] registrationContracts;\n        mapping(address => address) registrationContractByCollege;\n        address[] certificationContracts;\n        mapping(address=>address) certificateContractsByCollege;\n    }\n    \n    struct College {\n        string instituteName;\n        string instituteCode;\n        string instituteAISHECode;\n        address[] registrationContracts;\n        mapping(address => address) registrationContractByStudent;\n        address[] certificationContracts;\n        mapping(address=>address) certificateContractsByStudent;\n    }\n    \n    Student[]  studentList;\n    mapping(address => Student) studentsInfo;\n    \n    College[]  collegeList;\n    mapping(address => College) collegesInfo;\n    \n    function getFirstCollege(address _studentAddress) public view returns(address){\n        return collegesInfo[msg.sender].registrationContractByStudent[_studentAddress];\n    }\n    function getFirstStudent() public view returns(address){\n        return studentsInfo[msg.sender].registrationContracts[0];\n    }\n\n    function getStudentData() public view returns(string memory,uint,string memory){\n        string memory _name = studentsInfo[msg.sender].fullName;\n        uint _phoneNumber = studentsInfo[msg.sender].phoneNumber;\n        string memory _emailId = studentsInfo[msg.sender].emailId;  \n        return(_name,_phoneNumber,_emailId);\n    }\n\n    /*function getRegisteredStudentData(address _studentAddress) public view returns(string memory,string memory,uint,uint){\n        \n    }  */\n    \n    function createStudent( string memory name, uint phoneNumber,  string memory emailId) public doesStudentExist(msg.sender){\n        Student memory newStudent = Student(name, phoneNumber,emailId, new address[](0),  new address[](1) );\n        studentList.push(newStudent);\n        studentsInfo[msg.sender] = newStudent;\n    }\n    \n    \n    function createCollege(string memory instituteName, string memory instituteCode, string memory instituteAISHECode) public {\n        College memory newCollege = College(instituteName, instituteCode, instituteAISHECode, new address[](0),  new address[](1));\n        collegeList.push(newCollege);\n        collegesInfo[msg.sender] = newCollege;\n    }\n    \n    modifier doesStudentExist(address studentAddress) {\n        // check if studentAddress is present in studentList or not.\n        _;\n    }\n    \n    modifier doesCollegeExist(address collegeAddress) {\n        // check if collegeAddress is present in collegeList or not\n        _;\n    }\n    \n    modifier notAlreadyRegistered(address studentAddress, address collegeAddress) {\n        // check if collegeStudentRegistrationContracts[collegeAddress][studentAddress] is empty or notAlreadyRegistered\n        _;\n    }\n    \n    function startRegistration(\n        address collegeAddress, string memory collegeRegNumber, string memory collegeEmailId, uint collegeDoJ, uint collegeDateOfPassing) doesStudentExist(msg.sender) doesCollegeExist(collegeAddress) notAlreadyRegistered(msg.sender, collegeAddress) public{\n        RegistrationContract newRegistrationContract = new \n        RegistrationContract(msg.sender, collegeAddress, collegeRegNumber, collegeEmailId, collegeDoJ, collegeDateOfPassing);\n        studentsInfo[msg.sender].registrationContracts.push(address(newRegistrationContract));\n        studentsInfo[msg.sender].registrationContractByCollege[collegeAddress] = address(newRegistrationContract);\n        collegesInfo[collegeAddress].registrationContracts.push(address(newRegistrationContract));\n        collegesInfo[collegeAddress].registrationContractByStudent[msg.sender] = address(newRegistrationContract);\n    }\n    \n    function verifyStudentProfile(address studentAddress) public{\n        //address registrationContractAddress = collegesInfo[msg.sender].registrationContractByStudent[studentAddress];\n        RegistrationContract registrationContract = RegistrationContract(collegesInfo[msg.sender].registrationContractByStudent[studentAddress]);\n        registrationContract.verifyStudentProfile();\n    }\n    \n    \n    function approveRegistration(address studentAddress) public\n    {\n        address registrationContractAddress = collegesInfo[msg.sender].registrationContractByStudent[studentAddress];\n        RegistrationContract registrationContract = RegistrationContract(registrationContractAddress);\n        registrationContract.approveRegistration();\n    }\n    \n    function acceptRegistration(address collegeAddress) public\n    {\n        address registrationContractAddress = studentsInfo[msg.sender].registrationContractByCollege[collegeAddress];\n        RegistrationContract registrationContract = RegistrationContract(registrationContractAddress);\n        registrationContract.acceptRegistration();\n    }\n    \n    function getRegistrationStatus(address studentAddress, address collegeAddress) public view returns (string memory) {\n        address registrationContractAddress = studentsInfo[studentAddress].registrationContractByCollege[collegeAddress];\n        RegistrationContract registrationContract = RegistrationContract(registrationContractAddress);\n        return registrationContract.getRegistrationStatus();\n    }\n\n    function getCertificationStatus(address studentAddress, address collegeAddress) public view returns (string memory) {\n        address certificateContractAddress = studentsInfo[studentAddress].certificateContractsByCollege[collegeAddress];\n        CertificateContract certificateContract = CertificateContract(certificateContractAddress);\n        return certificateContract.getCertificationStatus();\n        \n    }\n    \n    function startCertification(address _collegeAddress) public{\n        CertificateContract certContract = new CertificateContract(_collegeAddress);\n        studentsInfo[msg.sender].certificationContracts.push(address(certContract));\n        studentsInfo[msg.sender].certificateContractsByCollege[_collegeAddress] = address(certContract) ;\n    \n        collegesInfo[_collegeAddress].certificationContracts.push(address(certContract));\n        collegesInfo[_collegeAddress].certificateContractsByStudent[msg.sender] = address(certContract);\n    }\n    \n    function reqCertification(address _collegeAddress) public{\n        CertificateContract certContract = CertificateContract(studentsInfo[msg.sender].certificateContractsByCollege[_collegeAddress]);\n        address regContract = studentsInfo[msg.sender].registrationContractByCollege[_collegeAddress];\n        certContract.requestCertification(_collegeAddress,regContract);\n        \n    }\n    function issueCertification(address _studentAddress) public{\n        CertificateContract certContract = CertificateContract(collegesInfo[msg.sender].certificateContractsByStudent[_studentAddress]);\n        certContract.issueCertificate();\n        \n    }\n    function acceptCertification(address _collegeAddress) public{\n        CertificateContract certContract = CertificateContract(studentsInfo[msg.sender].certificateContractsByCollege[_collegeAddress]);\n        certContract.acceptCertificate();\n        \n    }\n    function getCertContractAddress(address _collegeAddress) public view returns(address){\n        return studentsInfo[msg.sender].certificateContractsByCollege[_collegeAddress];\n    } \n    \n}\n\ncontract RegistrationContract {\n    address studentAddress;\n    address collegeAddress;\n        \n    uint a = 0;\n    struct StudentInfo {\n        string collegeRegNumber;\n        string collegeEmailId;\n        uint collegeDoJ;\n        uint collegeDateOfPassing;\n    }\n        \n    StudentInfo studentInfo;\n         \n    constructor(\n            address _studentAddress, address _collegeAddress, string memory collegeRegNumber, string memory collegeEmailId, uint collegeDoJ, uint collegeDateOfPassing) public{\n        studentAddress = _studentAddress;\n        collegeAddress = _collegeAddress;\n        studentInfo = StudentInfo(collegeRegNumber, collegeEmailId, collegeDoJ, collegeDateOfPassing);\n    }\n        \n        \n    enum Stages {\n        RequestforRegistration,\n        VerifyStudentProfile,\n        ApproveRegistration,\n        AcceptRegistration\n    }\n        \n    Stages public stage = Stages.RequestforRegistration;\n    uint public creationTime = now;\n        \n    modifier atStage(Stages _stage) {\n        require(\n            stage == _stage,\n            \"Error atStage modifier\");\n        _;\n    }\n        //  // This modifier goes to the next stage\n        // // after the function is done.\n    modifier transitionNext(){\n        _;\n        nextStage();\n    }\n    function nextStage() internal {\n        stage = Stages(uint(stage) + 1);\n    }\n        \n      \n    modifier isStudent(address addr) {\n        require(\n            addr == studentAddress,\n            \"Error modifier isStudent\");\n        _;\n    }\n      \n    modifier isCollege(address addr) {\n        require(\n            addr == collegeAddress,\n            \"Error modifier isCollege\");\n        _;\n    }\n        \n    function getRegistrationStatus() public view returns (string memory) {\n        if(Stages.RequestforRegistration == stage){\n            return \"RequestforRegistration\";\n        }\n        if(Stages.VerifyStudentProfile == stage){\n            return \"VerifyStudentProfile\";\n        }\n        if(Stages.ApproveRegistration == stage){\n            return \"ApproveRegistration\";\n        }\n        if(Stages.AcceptRegistration == stage){\n            return \"AcceptRegistration\";\n        }\n    }\n        \n        \n    function verifyStudentProfile() public atStage(Stages.RequestforRegistration) isCollege(tx.origin) transitionNext\n    {\n            \n    }\n        \n    function approveRegistration() public atStage(Stages.VerifyStudentProfile) isCollege(tx.origin) transitionNext\n    {\n            \n    }\n        \n    function acceptRegistration() public atStage(Stages.ApproveRegistration) isStudent(tx.origin) transitionNext\n    {\n            \n    }\n        \n    function getStudentAddress() public view returns(address){\n        return studentAddress;\n    }\n    function getCollegeAddress() public view returns(address){\n        return collegeAddress;\n    }\n    function getStage() public view returns(uint){\n        return uint(stage);\n    }\n        \n}\n\ncontract CertificateContract {\n    \n    uint public test = 0;\n    address issuerAddress;\n    address recipientAddress;\n        \n    struct cert {\n        uint256 certId;\n        string certContent;\n    }\n\n    enum CertificateStages {\n        AcceptingCertificateRequest,\n        RequestCertificate,\n        IssueCertificate,\n        acceptCertificate\n    }\n\n    CertificateStages public stage = CertificateStages.AcceptingCertificateRequest;\n\n    \n    mapping (uint256 => cert) certificates;\n    mapping (address => uint256) certificatesByIssuer;\n    mapping (address => uint256) certificatesByRecipient;\n\n    modifier isApproved(address _collegeAddress,address _studentAddress,address _regAddress){\n        RegistrationContract regContract = RegistrationContract(_regAddress);\n        require(_collegeAddress == regContract.getCollegeAddress());\n        require(_studentAddress == regContract.getStudentAddress());\n        require(2 < regContract.getStage());\n        _;\n    }\n    modifier atStage(CertificateStages _stage) {\n        require(stage == _stage);\n        _;\n    }\n    modifier isStudent(address addr) {\n        require(addr == recipientAddress);\n        _;\n    }\n    modifier isCollege(address addr) {\n        require(addr == issuerAddress);\n        _;\n    }\n    modifier transitionNext(){\n        _;\n        nextStage();\n    }\n    function nextStage() internal {\n        stage = CertificateStages(uint(stage) + 1);\n    }\n\n\n    constructor(address _collegeAddress) public{\n        issuerAddress = _collegeAddress;\n        recipientAddress = tx.origin;\n    \n    }\n\n\n// issue certificate only to registered students in a particular college\n    function issueCertificate() \n    atStage(CertificateStages.RequestCertificate)\n    isCollege(tx.origin)\n    transitionNext\n    public{\n     \n    }\n // can be called by student of partical college\n    function requestCertification(address _collegeAddress,address _regAddress) \n        atStage(CertificateStages.AcceptingCertificateRequest)\n        isApproved(_collegeAddress,tx.origin,_regAddress) \n        transitionNext\n    public{\n     \n    }\n\n// can be accepted by student\n    function acceptCertificate() \n        atStage(CertificateStages.IssueCertificate)\n        isStudent(tx.origin)\n        transitionNext\n        public{\n    \n    }    \n\n    function getCertificationStatus() public view returns (string memory) {\n        if(CertificateStages.AcceptingCertificateRequest == stage){\n            return \"AcceptingCertificateRequest\";\n            }\n        if(CertificateStages.RequestCertificate == stage){\n            return \"RequestCertificate\";\n        }\n        if(CertificateStages.IssueCertificate == stage){\n            return \"IssueCertificate\";\n        }\n        if(CertificateStages.acceptCertificate == stage){\n            return \"acceptCertificate\";\n        }\n    }\n\n}",
  "sourcePath": "/Users/mani/Edu/gitRepo/EduPlatform/contracts/RegistrationAndCertificateContractFactory.sol",
  "compiler": {
    "name": "solc",
    "version": "0.5.0+commit.1d4f565a.Emscripten.clang"
  },
  "schemaVersion": "3.0.1",
  "updatedAt": "2019-02-11T12:40:49.653Z",
  "devdoc": {
    "methods": {}
  },
  "userdoc": {
    "methods": {}
  }
}