{
  "contractName": "CertificateContract",
  "abi": [
    {
      "constant": true,
      "inputs": [],
      "name": "stage",
      "outputs": [
        {
          "name": "",
          "type": "uint8"
        }
      ],
      "payable": false,
      "stateMutability": "view",
      "type": "function"
    },
    {
      "constant": true,
      "inputs": [],
      "name": "test",
      "outputs": [
        {
          "name": "",
          "type": "uint256"
        }
      ],
      "payable": false,
      "stateMutability": "view",
      "type": "function"
    },
    {
      "inputs": [
        {
          "name": "_collegeAddress",
          "type": "address"
        }
      ],
      "payable": false,
      "stateMutability": "nonpayable",
      "type": "constructor"
    },
    {
      "constant": false,
      "inputs": [],
      "name": "issueCertificate",
      "outputs": [],
      "payable": false,
      "stateMutability": "nonpayable",
      "type": "function"
    },
    {
      "constant": false,
      "inputs": [
        {
          "name": "_collegeAddress",
          "type": "address"
        },
        {
          "name": "_regAddress",
          "type": "address"
        }
      ],
      "name": "requestCertification",
      "outputs": [],
      "payable": false,
      "stateMutability": "nonpayable",
      "type": "function"
    },
    {
      "constant": false,
      "inputs": [],
      "name": "acceptCertificate",
      "outputs": [],
      "payable": false,
      "stateMutability": "nonpayable",
      "type": "function"
    },
    {
      "constant": true,
      "inputs": [],
      "name": "getRegistrationStatus",
      "outputs": [
        {
          "name": "",
          "type": "string"
        }
      ],
      "payable": false,
      "stateMutability": "view",
      "type": "function"
    }
  ],
  "bytecode": "0x6080604052600080556000600260146101000a81548160ff0219169083600381111561002757fe5b021790555034801561003857600080fd5b5060405160208061092f8339810180604052602081101561005857600080fd5b810190808051906020019092919050505080600160006101000a81548173ffffffffffffffffffffffffffffffffffffffff021916908373ffffffffffffffffffffffffffffffffffffffff16021790555032600260006101000a81548173ffffffffffffffffffffffffffffffffffffffff021916908373ffffffffffffffffffffffffffffffffffffffff16021790555050610834806100fb6000396000f3fe608060405260043610610078576000357c0100000000000000000000000000000000000000000000000000000000900463ffffffff16806337feafd41461007d5780633bf6d35c146100945780638181693314610105578063c040e6b81461011c578063e35fb24114610155578063f8a8fd6d146101e5575b600080fd5b34801561008957600080fd5b50610092610210565b005b3480156100a057600080fd5b50610103600480360360408110156100b757600080fd5b81019080803573ffffffffffffffffffffffffffffffffffffffff169060200190929190803573ffffffffffffffffffffffffffffffffffffffff1690602001909291905050506102ae565b005b34801561011157600080fd5b5061011a610553565b005b34801561012857600080fd5b506101316105f1565b6040518082600381111561014157fe5b60ff16815260200191505060405180910390f35b34801561016157600080fd5b5061016a610604565b6040518080602001828103825283818151815260200191508051906020019080838360005b838110156101aa57808201518184015260208101905061018f565b50505050905090810190601f1680156101d75780820380516001836020036101000a031916815260200191505b509250505060405180910390f35b3480156101f157600080fd5b506101fa6107b5565b6040518082815260200191505060405180910390f35b600280600381111561021e57fe5b600260149054906101000a900460ff16600381111561023957fe5b14151561024557600080fd5b32600260009054906101000a900473ffffffffffffffffffffffffffffffffffffffff1673ffffffffffffffffffffffffffffffffffffffff168173ffffffffffffffffffffffffffffffffffffffff161415156102a257600080fd5b6102aa6107bb565b5050565b60008060038111156102bc57fe5b600260149054906101000a900460ff1660038111156102d757fe5b1415156102e357600080fd5b82328360008190508073ffffffffffffffffffffffffffffffffffffffff1663bd2f93d06040518163ffffffff167c010000000000000000000000000000000000000000000000000000000002815260040160206040518083038186803b15801561034d57600080fd5b505afa158015610361573d6000803e3d6000fd5b505050506040513d602081101561037757600080fd5b810190808051906020019092919050505073ffffffffffffffffffffffffffffffffffffffff168473ffffffffffffffffffffffffffffffffffffffff161415156103c157600080fd5b8073ffffffffffffffffffffffffffffffffffffffff16633c7328156040518163ffffffff167c010000000000000000000000000000000000000000000000000000000002815260040160206040518083038186803b15801561042357600080fd5b505afa158015610437573d6000803e3d6000fd5b505050506040513d602081101561044d57600080fd5b810190808051906020019092919050505073ffffffffffffffffffffffffffffffffffffffff168373ffffffffffffffffffffffffffffffffffffffff1614151561049757600080fd5b8073ffffffffffffffffffffffffffffffffffffffff1663fcaa76646040518163ffffffff167c010000000000000000000000000000000000000000000000000000000002815260040160206040518083038186803b1580156104f957600080fd5b505afa15801561050d573d6000803e3d6000fd5b505050506040513d602081101561052357600080fd5b8101908080519060200190929190505050600210151561054257600080fd5b61054a6107bb565b50505050505050565b600180600381111561056157fe5b600260149054906101000a900460ff16600381111561057c57fe5b14151561058857600080fd5b32600160009054906101000a900473ffffffffffffffffffffffffffffffffffffffff1673ffffffffffffffffffffffffffffffffffffffff168173ffffffffffffffffffffffffffffffffffffffff161415156105e557600080fd5b6105ed6107bb565b5050565b600260149054906101000a900460ff1681565b6060600260149054906101000a900460ff16600381111561062157fe5b6000600381111561062e57fe5b1415610671576040805190810160405280601b81526020017f416363657074696e67436572746966696361746552657175657374000000000081525090506107b2565b600260149054906101000a900460ff16600381111561068c57fe5b6001600381111561069957fe5b14156106dc576040805190810160405280601281526020017f526571756573744365727469666963617465000000000000000000000000000081525090506107b2565b600260149054906101000a900460ff1660038111156106f757fe5b6002600381111561070457fe5b1415610747576040805190810160405280601081526020017f497373756543657274696669636174650000000000000000000000000000000081525090506107b2565b600260149054906101000a900460ff16600381111561076257fe5b60038081111561076e57fe5b14156107b1576040805190810160405280601181526020017f616363657074436572746966696361746500000000000000000000000000000081525090506107b2565b5b90565b60005481565b6001600260149054906101000a900460ff1660038111156107d857fe5b0160038111156107e457fe5b600260146101000a81548160ff0219169083600381111561080157fe5b021790555056fea165627a7a723058208183ef19bc2f52e9735e298bf557c6b277efa3978866dafba8a92c03f7d1c0680029",
  "source": "pragma solidity ^0.5.0;\n\nimport \"./RegistrationContract.sol\";\n\n\ncontract CertificateContract {\n    \n    uint public test = 0;\n    address issuerAddress;\n    address recipientAddress;\n        \n    struct cert {\n        uint256 certId;\n        string certContent;\n    }\n\n    enum CertificateStages {\n        AcceptingCertificateRequest,\n        RequestCertificate,\n        IssueCertificate,\n        acceptCertificate\n    }\n\n    CertificateStages public stage = CertificateStages.AcceptingCertificateRequest;\n\n    \n    mapping (uint256 => cert) certificates;\n    mapping (address => uint256) certificatesByIssuer;\n    mapping (address => uint256) certificatesByRecipient;\n\n    modifier isApproved(address _collegeAddress,address _studentAddress,address _regAddress){\n        RegistrationContract regContract = RegistrationContract(_regAddress);\n        require(_collegeAddress == regContract.getCollegeAddress());\n        require(_studentAddress == regContract.getStudentAddress());\n        require(2 < regContract.getStage());\n        _;\n    }\n    modifier atStage(CertificateStages _stage) {\n        require(stage == _stage);\n        _;\n    }\n    modifier isStudent(address addr) {\n        require(addr == recipientAddress);\n        _;\n    }\n    modifier isCollege(address addr) {\n        require(addr == issuerAddress);\n        _;\n    }\n    modifier transitionNext(){\n        _;\n        nextStage();\n    }\n    function nextStage() internal {\n        stage = CertificateStages(uint(stage) + 1);\n    }\n\n\n    constructor(address _collegeAddress) public{\n        issuerAddress = _collegeAddress;\n        recipientAddress = tx.origin;\n    \n    }\n\n\n// issue certificate only to registered students in a particular college\n    function issueCertificate() \n    atStage(CertificateStages.RequestCertificate)\n    isCollege(tx.origin)\n    transitionNext\n    public{\n     \n    }\n // can be called by student of partical college\n    function requestCertification(address _collegeAddress,address _regAddress) \n        atStage(CertificateStages.AcceptingCertificateRequest)\n        isApproved(_collegeAddress,tx.origin,_regAddress) \n        transitionNext\n    public{\n     \n    }\n\n// can be accepted by student\n    function acceptCertificate() \n        atStage(CertificateStages.IssueCertificate)\n        isStudent(tx.origin)\n        transitionNext\n        public{\n    \n    }    \n\n    function getRegistrationStatus() public view returns (string memory) {\n        if(CertificateStages.AcceptingCertificateRequest == stage){\n            return \"AcceptingCertificateRequest\";\n            }\n        if(CertificateStages.RequestCertificate == stage){\n            return \"RequestCertificate\";\n        }\n        if(CertificateStages.IssueCertificate == stage){\n            return \"IssueCertificate\";\n        }\n        if(CertificateStages.acceptCertificate == stage){\n            return \"acceptCertificate\";\n        }\n    }\n\n}",
  "sourcePath": "/Users/mani/Edu/gitRepo/EduPlatform/contracts/CertificateContract.sol",
  "compiler": {
    "name": "solc",
    "version": "0.5.0+commit.1d4f565a.Emscripten.clang"
  },
  "schemaVersion": "3.0.1",
  "updatedAt": "2019-01-28T05:16:30.105Z",
  "devdoc": {
    "methods": {}
  },
  "userdoc": {
    "methods": {}
  }
}