{
  "contractName": "RegistrationAndCertificateContractFactory",
  "abi": [
    {
      "constant": true,
      "inputs": [
        {
          "name": "_studentAddress",
          "type": "address"
        }
      ],
      "name": "getFirstCollege",
      "outputs": [
        {
          "name": "",
          "type": "address"
        }
      ],
      "payable": false,
      "stateMutability": "view",
      "type": "function",
      "signature": "0x9e5c196c"
    },
    {
      "constant": true,
      "inputs": [],
      "name": "getFirstStudent",
      "outputs": [
        {
          "name": "",
          "type": "address"
        }
      ],
      "payable": false,
      "stateMutability": "view",
      "type": "function",
      "signature": "0xacbe8cee"
    },
    {
      "constant": false,
      "inputs": [
        {
          "name": "name",
          "type": "string"
        },
        {
          "name": "phoneNumber",
          "type": "uint256"
        },
        {
          "name": "emailId",
          "type": "string"
        }
      ],
      "name": "createStudent",
      "outputs": [],
      "payable": false,
      "stateMutability": "nonpayable",
      "type": "function",
      "signature": "0xc12b577b"
    },
    {
      "constant": false,
      "inputs": [
        {
          "name": "instituteName",
          "type": "string"
        },
        {
          "name": "instituteCode",
          "type": "string"
        },
        {
          "name": "instituteAISHECode",
          "type": "string"
        }
      ],
      "name": "createCollege",
      "outputs": [],
      "payable": false,
      "stateMutability": "nonpayable",
      "type": "function",
      "signature": "0x85870a6f"
    },
    {
      "constant": false,
      "inputs": [
        {
          "name": "collegeAddress",
          "type": "address"
        },
        {
          "name": "collegeRegNumber",
          "type": "string"
        },
        {
          "name": "collegeEmailId",
          "type": "string"
        },
        {
          "name": "collegeDoJ",
          "type": "uint256"
        },
        {
          "name": "collegeDateOfPassing",
          "type": "uint256"
        }
      ],
      "name": "startRegistration",
      "outputs": [],
      "payable": false,
      "stateMutability": "nonpayable",
      "type": "function",
      "signature": "0xb7c2d050"
    },
    {
      "constant": false,
      "inputs": [
        {
          "name": "studentAddress",
          "type": "address"
        }
      ],
      "name": "verifyStudentProfile",
      "outputs": [],
      "payable": false,
      "stateMutability": "nonpayable",
      "type": "function",
      "signature": "0x18014d15"
    },
    {
      "constant": false,
      "inputs": [
        {
          "name": "studentAddress",
          "type": "address"
        }
      ],
      "name": "approveRegistration",
      "outputs": [],
      "payable": false,
      "stateMutability": "nonpayable",
      "type": "function",
      "signature": "0x5179fc49"
    },
    {
      "constant": false,
      "inputs": [
        {
          "name": "collegeAddress",
          "type": "address"
        }
      ],
      "name": "acceptRegistration",
      "outputs": [],
      "payable": false,
      "stateMutability": "nonpayable",
      "type": "function",
      "signature": "0xb204e9f3"
    },
    {
      "constant": true,
      "inputs": [
        {
          "name": "studentAddress",
          "type": "address"
        },
        {
          "name": "collegeAddress",
          "type": "address"
        }
      ],
      "name": "getRegistrationStatus",
      "outputs": [
        {
          "name": "",
          "type": "string"
        }
      ],
      "payable": false,
      "stateMutability": "view",
      "type": "function",
      "signature": "0x95d3113a"
    }
  ],
  "bytecode": "0x608060405234801561001057600080fd5b5061266f806100206000396000f3fe608060405260043610620000a3576000357c0100000000000000000000000000000000000000000000000000000000900463ffffffff16806318014d1514620000a85780635179fc4914620000fd57806385870a6f146200015257806395d3113a14620003555780639e5c196c1462000446578063acbe8cee14620004db578063b204e9f31462000535578063b7c2d050146200058a578063c12b577b1462000727575b600080fd5b348015620000b557600080fd5b50620000fb60048036036020811015620000ce57600080fd5b81019080803573ffffffffffffffffffffffffffffffffffffffff1690602001909291905050506200089a565b005b3480156200010a57600080fd5b5062000150600480360360208110156200012357600080fd5b81019080803573ffffffffffffffffffffffffffffffffffffffff169060200190929190505050620009c0565b005b3480156200015f57600080fd5b5062000353600480360360608110156200017857600080fd5b81019080803590602001906401000000008111156200019657600080fd5b820183602082011115620001a957600080fd5b80359060200191846001830284011164010000000083111715620001cc57600080fd5b91908080601f016020809104026020016040519081016040528093929190818152602001838380828437600081840152601f19601f820116905080830192505050505050509192919290803590602001906401000000008111156200023057600080fd5b8201836020820111156200024357600080fd5b803590602001918460018302840111640100000000831117156200026657600080fd5b91908080601f016020809104026020016040519081016040528093929190818152602001838380828437600081840152601f19601f82011690508083019250505050505050919291929080359060200190640100000000811115620002ca57600080fd5b820183602082011115620002dd57600080fd5b803590602001918460018302840111640100000000831117156200030057600080fd5b91908080601f016020809104026020016040519081016040528093929190818152602001838380828437600081840152601f19601f82011690508083019250505050505050919291929050505062000aec565b005b3480156200036257600080fd5b50620003c8600480360360408110156200037b57600080fd5b81019080803573ffffffffffffffffffffffffffffffffffffffff169060200190929190803573ffffffffffffffffffffffffffffffffffffffff16906020019092919050505062000d32565b6040518080602001828103825283818151815260200191508051906020019080838360005b838110156200040a578082015181840152602081019050620003ed565b50505050905090810190601f168015620004385780820380516001836020036101000a031916815260200191505b509250505060405180910390f35b3480156200045357600080fd5b5062000499600480360360208110156200046c57600080fd5b81019080803573ffffffffffffffffffffffffffffffffffffffff16906020019092919050505062000ee0565b604051808273ffffffffffffffffffffffffffffffffffffffff1673ffffffffffffffffffffffffffffffffffffffff16815260200191505060405180910390f35b348015620004e857600080fd5b50620004f362000f89565b604051808273ffffffffffffffffffffffffffffffffffffffff1673ffffffffffffffffffffffffffffffffffffffff16815260200191505060405180910390f35b3480156200054257600080fd5b5062000588600480360360208110156200055b57600080fd5b81019080803573ffffffffffffffffffffffffffffffffffffffff1690602001909291905050506200100c565b005b3480156200059757600080fd5b5062000725600480360360a0811015620005b057600080fd5b81019080803573ffffffffffffffffffffffffffffffffffffffff16906020019092919080359060200190640100000000811115620005ee57600080fd5b8201836020820111156200060157600080fd5b803590602001918460018302840111640100000000831117156200062457600080fd5b91908080601f016020809104026020016040519081016040528093929190818152602001838380828437600081840152601f19601f820116905080830192505050505050509192919290803590602001906401000000008111156200068857600080fd5b8201836020820111156200069b57600080fd5b80359060200191846001830284011164010000000083111715620006be57600080fd5b91908080601f016020809104026020016040519081016040528093929190818152602001838380828437600081840152601f19601f820116905080830192505050505050509192919290803590602001909291908035906020019092919050505062001138565b005b3480156200073457600080fd5b5062000898600480360360608110156200074d57600080fd5b81019080803590602001906401000000008111156200076b57600080fd5b8201836020820111156200077e57600080fd5b80359060200191846001830284011164010000000083111715620007a157600080fd5b91908080601f016020809104026020016040519081016040528093929190818152602001838380828437600081840152601f19601f82011690508083019250505050505050919291929080359060200190929190803590602001906401000000008111156200080f57600080fd5b8201836020820111156200082257600080fd5b803590602001918460018302840111640100000000831117156200084557600080fd5b91908080601f016020809104026020016040519081016040528093929190818152602001838380828437600081840152601f19601f82011690508083019250505050505050919291929050505062001597565b005b6000600360003373ffffffffffffffffffffffffffffffffffffffff1673ffffffffffffffffffffffffffffffffffffffff16815260200190815260200160002060040160008373ffffffffffffffffffffffffffffffffffffffff1673ffffffffffffffffffffffffffffffffffffffff16815260200190815260200160002060009054906101000a900473ffffffffffffffffffffffffffffffffffffffff1690508073ffffffffffffffffffffffffffffffffffffffff1663221486af6040518163ffffffff167c0100000000000000000000000000000000000000000000000000000000028152600401600060405180830381600087803b158015620009a357600080fd5b505af1158015620009b8573d6000803e3d6000fd5b505050505050565b6000600360003373ffffffffffffffffffffffffffffffffffffffff1673ffffffffffffffffffffffffffffffffffffffff16815260200190815260200160002060040160008373ffffffffffffffffffffffffffffffffffffffff1673ffffffffffffffffffffffffffffffffffffffff16815260200190815260200160002060009054906101000a900473ffffffffffffffffffffffffffffffffffffffff16905060008190508073ffffffffffffffffffffffffffffffffffffffff16637d50da176040518163ffffffff167c0100000000000000000000000000000000000000000000000000000000028152600401600060405180830381600087803b15801562000ace57600080fd5b505af115801562000ae3573d6000803e3d6000fd5b50505050505050565b62000af6620017b5565b60a060405190810160405280858152602001848152602001838152602001600060405190808252806020026020018201604052801562000b455781602001602082028038833980820191505090505b508152602001600160405190808252806020026020018201604052801562000b7c5781602001602082028038833980820191505090505b50815250905060028190806001815401808255809150509060018203906000526020600020906007020160009091929091909150600082015181600001908051906020019062000bce929190620017e5565b50602082015181600101908051906020019062000bed929190620017e5565b50604082015181600201908051906020019062000c0c929190620017e5565b50606082015181600301908051906020019062000c2b9291906200186c565b50608082015181600501908051906020019062000c4a9291906200186c565b5050505080600360003373ffffffffffffffffffffffffffffffffffffffff1673ffffffffffffffffffffffffffffffffffffffff168152602001908152602001600020600082015181600001908051906020019062000cac929190620017e5565b50602082015181600101908051906020019062000ccb929190620017e5565b50604082015181600201908051906020019062000cea929190620017e5565b50606082015181600301908051906020019062000d099291906200186c565b50608082015181600501908051906020019062000d289291906200186c565b5090505050505050565b60606000600160008573ffffffffffffffffffffffffffffffffffffffff1673ffffffffffffffffffffffffffffffffffffffff16815260200190815260200160002060040160008473ffffffffffffffffffffffffffffffffffffffff1673ffffffffffffffffffffffffffffffffffffffff16815260200190815260200160002060009054906101000a900473ffffffffffffffffffffffffffffffffffffffff16905060008190508073ffffffffffffffffffffffffffffffffffffffff1663e35fb2416040518163ffffffff167c010000000000000000000000000000000000000000000000000000000002815260040160006040518083038186803b15801562000e4057600080fd5b505afa15801562000e55573d6000803e3d6000fd5b505050506040513d6000823e3d601f19601f82011682018060405250602081101562000e8057600080fd5b81019080805164010000000081111562000e9957600080fd5b8281019050602081018481111562000eb057600080fd5b815185600182028301116401000000008211171562000ece57600080fd5b50509291905050509250505092915050565b6000600360003373ffffffffffffffffffffffffffffffffffffffff1673ffffffffffffffffffffffffffffffffffffffff16815260200190815260200160002060040160008373ffffffffffffffffffffffffffffffffffffffff1673ffffffffffffffffffffffffffffffffffffffff16815260200190815260200160002060009054906101000a900473ffffffffffffffffffffffffffffffffffffffff169050919050565b6000600160003373ffffffffffffffffffffffffffffffffffffffff1673ffffffffffffffffffffffffffffffffffffffff168152602001908152602001600020600301600081548110151562000fdc57fe5b9060005260206000200160009054906101000a900473ffffffffffffffffffffffffffffffffffffffff16905090565b6000600160003373ffffffffffffffffffffffffffffffffffffffff1673ffffffffffffffffffffffffffffffffffffffff16815260200190815260200160002060040160008373ffffffffffffffffffffffffffffffffffffffff1673ffffffffffffffffffffffffffffffffffffffff16815260200190815260200160002060009054906101000a900473ffffffffffffffffffffffffffffffffffffffff16905060008190508073ffffffffffffffffffffffffffffffffffffffff166324615e766040518163ffffffff167c0100000000000000000000000000000000000000000000000000000000028152600401600060405180830381600087803b1580156200111a57600080fd5b505af11580156200112f573d6000803e3d6000fd5b50505050505050565b338533876000338a8a8a8a8a6200114e620018fb565b808773ffffffffffffffffffffffffffffffffffffffff1673ffffffffffffffffffffffffffffffffffffffff1681526020018673ffffffffffffffffffffffffffffffffffffffff1673ffffffffffffffffffffffffffffffffffffffff1681526020018060200180602001858152602001848152602001838103835287818151815260200191508051906020019080838360005b8381101562001201578082015181840152602081019050620011e4565b50505050905090810190601f1680156200122f5780820380516001836020036101000a031916815260200191505b50838103825286818151815260200191508051906020019080838360005b838110156200126a5780820151818401526020810190506200124d565b50505050905090810190601f168015620012985780820380516001836020036101000a031916815260200191505b5098505050505050505050604051809103906000f080158015620012c0573d6000803e3d6000fd5b509050600160003373ffffffffffffffffffffffffffffffffffffffff1673ffffffffffffffffffffffffffffffffffffffff1681526020019081526020016000206003018190806001815401808255809150509060018203906000526020600020016000909192909190916101000a81548173ffffffffffffffffffffffffffffffffffffffff021916908373ffffffffffffffffffffffffffffffffffffffff1602179055505080600160003373ffffffffffffffffffffffffffffffffffffffff1673ffffffffffffffffffffffffffffffffffffffff16815260200190815260200160002060040160008c73ffffffffffffffffffffffffffffffffffffffff1673ffffffffffffffffffffffffffffffffffffffff16815260200190815260200160002060006101000a81548173ffffffffffffffffffffffffffffffffffffffff021916908373ffffffffffffffffffffffffffffffffffffffff160217905550600360008b73ffffffffffffffffffffffffffffffffffffffff1673ffffffffffffffffffffffffffffffffffffffff1681526020019081526020016000206003018190806001815401808255809150509060018203906000526020600020016000909192909190916101000a81548173ffffffffffffffffffffffffffffffffffffffff021916908373ffffffffffffffffffffffffffffffffffffffff1602179055505080600360008c73ffffffffffffffffffffffffffffffffffffffff1673ffffffffffffffffffffffffffffffffffffffff16815260200190815260200160002060040160003373ffffffffffffffffffffffffffffffffffffffff1673ffffffffffffffffffffffffffffffffffffffff16815260200190815260200160002060006101000a81548173ffffffffffffffffffffffffffffffffffffffff021916908373ffffffffffffffffffffffffffffffffffffffff16021790555050505050505050505050565b33620015a26200190c565b60a0604051908101604052808681526020018581526020018481526020016000604051908082528060200260200182016040528015620015f15781602001602082028038833980820191505090505b5081526020016001604051908082528060200260200182016040528015620016285781602001602082028038833980820191505090505b5081525090506000819080600181540180825580915050906001820390600052602060002090600702016000909192909190915060008201518160000190805190602001906200167a929190620017e5565b50602082015181600101556040820151816002019080519060200190620016a3929190620017e5565b506060820151816003019080519060200190620016c29291906200186c565b506080820151816005019080519060200190620016e19291906200186c565b5050505080600160003373ffffffffffffffffffffffffffffffffffffffff1673ffffffffffffffffffffffffffffffffffffffff168152602001908152602001600020600082015181600001908051906020019062001743929190620017e5565b506020820151816001015560408201518160020190805190602001906200176c929190620017e5565b5060608201518160030190805190602001906200178b9291906200186c565b506080820151816005019080519060200190620017aa9291906200186c565b509050505050505050565b60a06040519081016040528060608152602001606081526020016060815260200160608152602001606081525090565b828054600181600116156101000203166002900490600052602060002090601f016020900481019282601f106200182857805160ff191683800117855562001859565b8280016001018555821562001859579182015b82811115620018585782518255916020019190600101906200183b565b5b5090506200186891906200193c565b5090565b828054828255906000526020600020908101928215620018e8579160200282015b82811115620018e75782518260006101000a81548173ffffffffffffffffffffffffffffffffffffffff021916908373ffffffffffffffffffffffffffffffffffffffff160217905550916020019190600101906200188d565b5b509050620018f7919062001964565b5090565b604051610c9980620019ab83390190565b60a06040519081016040528060608152602001600081526020016060815260200160608152602001606081525090565b6200196191905b808211156200195d57600081600090555060010162001943565b5090565b90565b620019a791905b80821115620019a357600081816101000a81549073ffffffffffffffffffffffffffffffffffffffff0219169055506001016200196b565b5090565b9056fe608060405260006002556000600760006101000a81548160ff0219169083600381111561002857fe5b02179055504260085534801561003d57600080fd5b50604051610c99380380610c99833981018060405260c081101561006057600080fd5b810190808051906020019092919080519060200190929190805164010000000081111561008c57600080fd5b828101905060208101848111156100a257600080fd5b81518560018202830111640100000000821117156100bf57600080fd5b505092919060200180516401000000008111156100db57600080fd5b828101905060208101848111156100f157600080fd5b815185600182028301116401000000008211171561010e57600080fd5b50509291906020018051906020019092919080519060200190929190505050856000806101000a81548173ffffffffffffffffffffffffffffffffffffffff021916908373ffffffffffffffffffffffffffffffffffffffff16021790555084600160006101000a81548173ffffffffffffffffffffffffffffffffffffffff021916908373ffffffffffffffffffffffffffffffffffffffff16021790555060806040519081016040528085815260200184815260200183815260200182815250600360008201518160000190805190602001906101ee92919061022e565b50602082015181600101908051906020019061020b92919061022e565b5060408201518160020155606082015181600301559050505050505050506102d3565b828054600181600116156101000203166002900490600052602060002090601f016020900481019282601f1061026f57805160ff191683800117855561029d565b8280016001018555821561029d579182015b8281111561029c578251825591602001919060010190610281565b5b5090506102aa91906102ae565b5090565b6102d091905b808211156102cc5760008160009055506001016102b4565b5090565b90565b6109b7806102e26000396000f3fe608060405260043610610099576000357c0100000000000000000000000000000000000000000000000000000000900463ffffffff168063221486af1461009e57806324615e76146100b55780633c732815146100cc5780637d50da1714610123578063bd2f93d01461013a578063c040e6b814610191578063d8270dce146101ca578063e35fb241146101f5578063fcaa766414610285575b600080fd5b3480156100aa57600080fd5b506100b36102b0565b005b3480156100c157600080fd5b506100ca610420565b005b3480156100d857600080fd5b506100e161058f565b604051808273ffffffffffffffffffffffffffffffffffffffff1673ffffffffffffffffffffffffffffffffffffffff16815260200191505060405180910390f35b34801561012f57600080fd5b506101386105b8565b005b34801561014657600080fd5b5061014f610728565b604051808273ffffffffffffffffffffffffffffffffffffffff1673ffffffffffffffffffffffffffffffffffffffff16815260200191505060405180910390f35b34801561019d57600080fd5b506101a6610752565b604051808260038111156101b657fe5b60ff16815260200191505060405180910390f35b3480156101d657600080fd5b506101df610765565b6040518082815260200191505060405180910390f35b34801561020157600080fd5b5061020a61076b565b6040518080602001828103825283818151815260200191508051906020019080838360005b8381101561024a57808201518184015260208101905061022f565b50505050905090810190601f1680156102775780820380516001836020036101000a031916815260200191505b509250505060405180910390f35b34801561029157600080fd5b5061029a61091c565b6040518082815260200191505060405180910390f35b60008060038111156102be57fe5b600760009054906101000a900460ff1660038111156102d957fe5b14151561034e576040517f08c379a00000000000000000000000000000000000000000000000000000000081526004018080602001828103825260168152602001807f4572726f722061745374616765206d6f6469666965720000000000000000000081525060200191505060405180910390fd5b32600160009054906101000a900473ffffffffffffffffffffffffffffffffffffffff1673ffffffffffffffffffffffffffffffffffffffff168173ffffffffffffffffffffffffffffffffffffffff16141515610414576040517f08c379a00000000000000000000000000000000000000000000000000000000081526004018080602001828103825260188152602001807f4572726f72206d6f646966696572206973436f6c6c656765000000000000000081525060200191505060405180910390fd5b61041c61093e565b5050565b600280600381111561042e57fe5b600760009054906101000a900460ff16600381111561044957fe5b1415156104be576040517f08c379a00000000000000000000000000000000000000000000000000000000081526004018080602001828103825260168152602001807f4572726f722061745374616765206d6f6469666965720000000000000000000081525060200191505060405180910390fd5b326000809054906101000a900473ffffffffffffffffffffffffffffffffffffffff1673ffffffffffffffffffffffffffffffffffffffff168173ffffffffffffffffffffffffffffffffffffffff16141515610583576040517f08c379a00000000000000000000000000000000000000000000000000000000081526004018080602001828103825260188152602001807f4572726f72206d6f64696669657220697353747564656e74000000000000000081525060200191505060405180910390fd5b61058b61093e565b5050565b60008060009054906101000a900473ffffffffffffffffffffffffffffffffffffffff16905090565b60018060038111156105c657fe5b600760009054906101000a900460ff1660038111156105e157fe5b141515610656576040517f08c379a00000000000000000000000000000000000000000000000000000000081526004018080602001828103825260168152602001807f4572726f722061745374616765206d6f6469666965720000000000000000000081525060200191505060405180910390fd5b32600160009054906101000a900473ffffffffffffffffffffffffffffffffffffffff1673ffffffffffffffffffffffffffffffffffffffff168173ffffffffffffffffffffffffffffffffffffffff1614151561071c576040517f08c379a00000000000000000000000000000000000000000000000000000000081526004018080602001828103825260188152602001807f4572726f72206d6f646966696572206973436f6c6c656765000000000000000081525060200191505060405180910390fd5b61072461093e565b5050565b6000600160009054906101000a900473ffffffffffffffffffffffffffffffffffffffff16905090565b600760009054906101000a900460ff1681565b60085481565b6060600760009054906101000a900460ff16600381111561078857fe5b6000600381111561079557fe5b14156107d8576040805190810160405280601681526020017f52657175657374666f72526567697374726174696f6e000000000000000000008152509050610919565b600760009054906101000a900460ff1660038111156107f357fe5b6001600381111561080057fe5b1415610843576040805190810160405280601481526020017f56657269667953747564656e7450726f66696c650000000000000000000000008152509050610919565b600760009054906101000a900460ff16600381111561085e57fe5b6002600381111561086b57fe5b14156108ae576040805190810160405280601381526020017f417070726f7665526567697374726174696f6e000000000000000000000000008152509050610919565b600760009054906101000a900460ff1660038111156108c957fe5b6003808111156108d557fe5b1415610918576040805190810160405280601281526020017f416363657074526567697374726174696f6e00000000000000000000000000008152509050610919565b5b90565b6000600760009054906101000a900460ff16600381111561093957fe5b905090565b6001600760009054906101000a900460ff16600381111561095b57fe5b01600381111561096757fe5b600760006101000a81548160ff0219169083600381111561098457fe5b021790555056fea165627a7a7230582057e8136a504673dc8e5c797293a44bf4fcef151aaa2e619acad1d304d6dc0ba40029a165627a7a723058206f64f2f69a2f142c61f9c676ea096f91ee521e07809ad65f01bca008ac5b88ec0029",
  "source": "pragma solidity ^0.5.0;\n\n//import \"./RegistrationContract.sol\";\n//import \"./CertificateContract.sol\";\n\ncontract RegistrationAndCertificateContractFactory {\n\n    struct Student {\n        string fullName;\n        uint phoneNumber;\n        string emailId;\n        address[] registrationContracts;\n        mapping(address => address) registrationContractByCollege;\n        address[] certificationContracts;\n        mapping(address=>address) certificateContractsByCollege;\n    }\n    \n    struct College {\n        string instituteName;\n        string instituteCode;\n        string instituteAISHECode;\n        address[] registrationContracts;\n        mapping(address => address) registrationContractByStudent;\n        address[] certificationContracts;\n        mapping(address=>address) certificateContractsByStudent;\n    }\n    \n    Student[]  studentList;\n    mapping(address => Student) studentsInfo;\n    \n    College[]  collegeList;\n    mapping(address => College) collegesInfo;\n    \n    function getFirstCollege(address _studentAddress) public view returns(address){\n        return collegesInfo[msg.sender].registrationContractByStudent[_studentAddress];\n    }\n    function getFirstStudent() public view returns(address){\n        return studentsInfo[msg.sender].registrationContracts[0];\n    }\n    \n    function createStudent( string memory name, uint phoneNumber,  string memory emailId) public doesStudentExist(msg.sender){\n        Student memory newStudent = Student(name, phoneNumber,emailId, new address[](0),  new address[](1) );\n        studentList.push(newStudent);\n        studentsInfo[msg.sender] = newStudent;\n    }\n    \n    \n    function createCollege(string memory instituteName, string memory instituteCode, string memory instituteAISHECode) public {\n        College memory newCollege = College(instituteName, instituteCode, instituteAISHECode, new address[](0),  new address[](1));\n        collegeList.push(newCollege);\n        collegesInfo[msg.sender] = newCollege;\n    }\n    \n    modifier doesStudentExist(address studentAddress) {\n        // check if studentAddress is present in studentList or not.\n        _;\n    }\n    \n    modifier doesCollegeExist(address collegeAddress) {\n        // check if collegeAddress is present in collegeList or not\n        _;\n    }\n    \n    modifier notAlreadyRegistered(address studentAddress, address collegeAddress) {\n        // check if collegeStudentRegistrationContracts[collegeAddress][studentAddress] is empty or notAlreadyRegistered\n        _;\n    }\n    \n    function startRegistration(\n        address collegeAddress, string memory collegeRegNumber, string memory collegeEmailId, uint collegeDoJ, uint collegeDateOfPassing) doesStudentExist(msg.sender) doesCollegeExist(collegeAddress) notAlreadyRegistered(msg.sender, collegeAddress) public{\n        RegistrationContract newRegistrationContract = new \n        RegistrationContract(msg.sender, collegeAddress, collegeRegNumber, collegeEmailId, collegeDoJ, collegeDateOfPassing);\n        studentsInfo[msg.sender].registrationContracts.push(address(newRegistrationContract));\n        studentsInfo[msg.sender].registrationContractByCollege[collegeAddress] = address(newRegistrationContract);\n        collegesInfo[collegeAddress].registrationContracts.push(address(newRegistrationContract));\n        collegesInfo[collegeAddress].registrationContractByStudent[msg.sender] = address(newRegistrationContract);\n    }\n    \n    function verifyStudentProfile(address studentAddress) public{\n        //address registrationContractAddress = collegesInfo[msg.sender].registrationContractByStudent[studentAddress];\n        RegistrationContract registrationContract = RegistrationContract(collegesInfo[msg.sender].registrationContractByStudent[studentAddress]);\n        registrationContract.verifyStudentProfile();\n    }\n    \n    \n    function approveRegistration(address studentAddress) public\n    {\n        address registrationContractAddress = collegesInfo[msg.sender].registrationContractByStudent[studentAddress];\n        RegistrationContract registrationContract = RegistrationContract(registrationContractAddress);\n        registrationContract.approveRegistration();\n    }\n    \n    function acceptRegistration(address collegeAddress) public\n    {\n        address registrationContractAddress = studentsInfo[msg.sender].registrationContractByCollege[collegeAddress];\n        RegistrationContract registrationContract = RegistrationContract(registrationContractAddress);\n        registrationContract.acceptRegistration();\n    }\n    \n    function getRegistrationStatus(address studentAddress, address collegeAddress) public view returns (string memory) {\n        address registrationContractAddress = studentsInfo[studentAddress].registrationContractByCollege[collegeAddress];\n        RegistrationContract registrationContract = RegistrationContract(registrationContractAddress);\n        return registrationContract.getRegistrationStatus();\n    }\n    \n    /*function startCertification(address _collegeAddress) public{\n        CertificateContract certContract = new CertificateContract(_collegeAddress);\n        studentsInfo[msg.sender].certificationContracts.push(address(certContract));\n        studentsInfo[msg.sender].certificateContractsByCollege[_collegeAddress] = address(certContract) ;\n    \n        collegesInfo[_collegeAddress].certificationContracts.push(address(certContract));\n        collegesInfo[_collegeAddress].certificateContractsByStudent[msg.sender] = address(certContract);\n    }\n    \n    function reqCertification(address _collegeAddress) public{\n        CertificateContract certContract = CertificateContract(studentsInfo[msg.sender].certificateContractsByCollege[_collegeAddress]);\n        address regContract = studentsInfo[msg.sender].registrationContractByCollege[_collegeAddress];\n        certContract.requestCertification(_collegeAddress,regContract);\n        \n    }\n    function issueCertification(address _studentAddress) public{\n        CertificateContract certContract = CertificateContract(collegesInfo[msg.sender].certificateContractsByStudent[_studentAddress]);\n        certContract.issueCertificate();\n        \n    }\n    function acceptCertification(address _collegeAddress) public{\n        CertificateContract certContract = CertificateContract(studentsInfo[msg.sender].certificateContractsByCollege[_collegeAddress]);\n        certContract.acceptCertificate();\n        \n    }\n    function getCertContractAddress(address _collegeAddress) public view returns(address){\n        return studentsInfo[msg.sender].certificateContractsByCollege[_collegeAddress];\n    } */\n    \n}\n\ncontract RegistrationContract {\n    address studentAddress;\n    address collegeAddress;\n        \n    uint a = 0;\n    struct StudentInfo {\n        string collegeRegNumber;\n        string collegeEmailId;\n        uint collegeDoJ;\n        uint collegeDateOfPassing;\n    }\n        \n    StudentInfo studentInfo;\n         \n    constructor(\n            address _studentAddress, address _collegeAddress, string memory collegeRegNumber, string memory collegeEmailId, uint collegeDoJ, uint collegeDateOfPassing) public{\n        studentAddress = _studentAddress;\n        collegeAddress = _collegeAddress;\n        studentInfo = StudentInfo(collegeRegNumber, collegeEmailId, collegeDoJ, collegeDateOfPassing);\n    }\n        \n        \n    enum Stages {\n        RequestforRegistration,\n        VerifyStudentProfile,\n        ApproveRegistration,\n        AcceptRegistration\n    }\n        \n    Stages public stage = Stages.RequestforRegistration;\n    uint public creationTime = now;\n        \n    modifier atStage(Stages _stage) {\n        require(\n            stage == _stage,\n            \"Error atStage modifier\");\n        _;\n    }\n        //  // This modifier goes to the next stage\n        // // after the function is done.\n    modifier transitionNext(){\n        _;\n        nextStage();\n    }\n    function nextStage() internal {\n        stage = Stages(uint(stage) + 1);\n    }\n        \n      \n    modifier isStudent(address addr) {\n        require(\n            addr == studentAddress,\n            \"Error modifier isStudent\");\n        _;\n    }\n      \n    modifier isCollege(address addr) {\n        require(\n            addr == collegeAddress,\n            \"Error modifier isCollege\");\n        _;\n    }\n        \n    function getRegistrationStatus() public view returns (string memory) {\n        if(Stages.RequestforRegistration == stage){\n            return \"RequestforRegistration\";\n        }\n        if(Stages.VerifyStudentProfile == stage){\n            return \"VerifyStudentProfile\";\n        }\n        if(Stages.ApproveRegistration == stage){\n            return \"ApproveRegistration\";\n        }\n        if(Stages.AcceptRegistration == stage){\n            return \"AcceptRegistration\";\n        }\n    }\n        \n        \n    function verifyStudentProfile() public atStage(Stages.RequestforRegistration) isCollege(tx.origin) transitionNext\n    {\n            \n    }\n        \n    function approveRegistration() public atStage(Stages.VerifyStudentProfile) isCollege(tx.origin) transitionNext\n    {\n            \n    }\n        \n    function acceptRegistration() public atStage(Stages.ApproveRegistration) isStudent(tx.origin) transitionNext\n    {\n            \n    }\n        \n    function getStudentAddress() public view returns(address){\n        return studentAddress;\n    }\n    function getCollegeAddress() public view returns(address){\n        return collegeAddress;\n    }\n    function getStage() public view returns(uint){\n        return uint(stage);\n    }\n        \n}",
  "sourcePath": "/Users/mani/Edu/gitRepo/EduPlatform/contracts/RegistrationAndCertificateContractFactory.sol",
  "compiler": {
    "name": "solc",
    "version": "0.5.0+commit.1d4f565a.Emscripten.clang"
  },
  "schemaVersion": "3.0.1",
  "updatedAt": "2019-01-30T11:00:21.102Z",
  "devdoc": {
    "methods": {}
  },
  "userdoc": {
    "methods": {}
  }
}