{
  "contractName": "RegistrationAndCertificateContractFactory",
  "abi": [
    {
      "constant": true,
      "inputs": [
        {
          "name": "_studentAddress",
          "type": "address"
        }
      ],
      "name": "getFirstCollege",
      "outputs": [
        {
          "name": "",
          "type": "address"
        }
      ],
      "payable": false,
      "stateMutability": "view",
      "type": "function",
      "signature": "0x9e5c196c"
    },
    {
      "constant": true,
      "inputs": [],
      "name": "getFirstStudent",
      "outputs": [
        {
          "name": "",
          "type": "address"
        }
      ],
      "payable": false,
      "stateMutability": "view",
      "type": "function",
      "signature": "0xacbe8cee"
    },
    {
      "constant": false,
      "inputs": [
        {
          "name": "name",
          "type": "string"
        },
        {
          "name": "phoneNumber",
          "type": "uint256"
        },
        {
          "name": "emailId",
          "type": "string"
        }
      ],
      "name": "createStudent",
      "outputs": [],
      "payable": false,
      "stateMutability": "nonpayable",
      "type": "function",
      "signature": "0xc12b577b"
    },
    {
      "constant": false,
      "inputs": [
        {
          "name": "instituteName",
          "type": "string"
        },
        {
          "name": "instituteCode",
          "type": "string"
        },
        {
          "name": "instituteAISHECode",
          "type": "string"
        }
      ],
      "name": "createCollege",
      "outputs": [],
      "payable": false,
      "stateMutability": "nonpayable",
      "type": "function",
      "signature": "0x85870a6f"
    },
    {
      "constant": false,
      "inputs": [
        {
          "name": "collegeAddress",
          "type": "address"
        },
        {
          "name": "collegeRegNumber",
          "type": "string"
        },
        {
          "name": "collegeEmailId",
          "type": "string"
        },
        {
          "name": "collegeDoJ",
          "type": "uint256"
        },
        {
          "name": "collegeDateOfPassing",
          "type": "uint256"
        }
      ],
      "name": "startRegistration",
      "outputs": [],
      "payable": false,
      "stateMutability": "nonpayable",
      "type": "function",
      "signature": "0xb7c2d050"
    },
    {
      "constant": false,
      "inputs": [
        {
          "name": "studentAddress",
          "type": "address"
        }
      ],
      "name": "verifyStudentProfile",
      "outputs": [],
      "payable": false,
      "stateMutability": "nonpayable",
      "type": "function",
      "signature": "0x18014d15"
    },
    {
      "constant": false,
      "inputs": [
        {
          "name": "studentAddress",
          "type": "address"
        }
      ],
      "name": "approveRegistration",
      "outputs": [],
      "payable": false,
      "stateMutability": "nonpayable",
      "type": "function",
      "signature": "0x5179fc49"
    },
    {
      "constant": false,
      "inputs": [
        {
          "name": "collegeAddress",
          "type": "address"
        }
      ],
      "name": "acceptRegistration",
      "outputs": [],
      "payable": false,
      "stateMutability": "nonpayable",
      "type": "function",
      "signature": "0xb204e9f3"
    },
    {
      "constant": true,
      "inputs": [
        {
          "name": "studentAddress",
          "type": "address"
        },
        {
          "name": "collegeAddress",
          "type": "address"
        }
      ],
      "name": "getRegistrationStatus",
      "outputs": [
        {
          "name": "",
          "type": "string"
        }
      ],
      "payable": false,
      "stateMutability": "view",
      "type": "function",
      "signature": "0x95d3113a"
    },
    {
      "constant": false,
      "inputs": [
        {
          "name": "_collegeAddress",
          "type": "address"
        }
      ],
      "name": "startCertification",
      "outputs": [],
      "payable": false,
      "stateMutability": "nonpayable",
      "type": "function",
      "signature": "0x79554453"
    },
    {
      "constant": false,
      "inputs": [
        {
          "name": "_collegeAddress",
          "type": "address"
        }
      ],
      "name": "reqCertification",
      "outputs": [],
      "payable": false,
      "stateMutability": "nonpayable",
      "type": "function",
      "signature": "0xb08ab8ea"
    },
    {
      "constant": false,
      "inputs": [
        {
          "name": "_studentAddress",
          "type": "address"
        }
      ],
      "name": "issueCertification",
      "outputs": [],
      "payable": false,
      "stateMutability": "nonpayable",
      "type": "function",
      "signature": "0xa2ddb37c"
    },
    {
      "constant": false,
      "inputs": [
        {
          "name": "_collegeAddress",
          "type": "address"
        }
      ],
      "name": "acceptCertification",
      "outputs": [],
      "payable": false,
      "stateMutability": "nonpayable",
      "type": "function",
      "signature": "0xcf14ae64"
    },
    {
      "constant": true,
      "inputs": [
        {
          "name": "_collegeAddress",
          "type": "address"
        }
      ],
      "name": "getCertContractAddress",
      "outputs": [
        {
          "name": "",
          "type": "address"
        }
      ],
      "payable": false,
      "stateMutability": "view",
      "type": "function",
      "signature": "0x62efca38"
    }
  ],
  "bytecode": "0x608060405234801561001057600080fd5b50613a2e806100206000396000f3fe608060405260043610620000df576000357c0100000000000000000000000000000000000000000000000000000000900463ffffffff16806318014d1514620000e45780635179fc49146200013957806362efca38146200018e57806379554453146200022357806385870a6f146200027857806395d3113a146200047b5780639e5c196c146200056c578063a2ddb37c1462000601578063acbe8cee1462000656578063b08ab8ea14620006b0578063b204e9f31462000705578063b7c2d050146200075a578063c12b577b14620008f7578063cf14ae641462000a6a575b600080fd5b348015620000f157600080fd5b5062000137600480360360208110156200010a57600080fd5b81019080803573ffffffffffffffffffffffffffffffffffffffff16906020019092919050505062000abf565b005b3480156200014657600080fd5b506200018c600480360360208110156200015f57600080fd5b81019080803573ffffffffffffffffffffffffffffffffffffffff16906020019092919050505062000be5565b005b3480156200019b57600080fd5b50620001e160048036036020811015620001b457600080fd5b81019080803573ffffffffffffffffffffffffffffffffffffffff16906020019092919050505062000d11565b604051808273ffffffffffffffffffffffffffffffffffffffff1673ffffffffffffffffffffffffffffffffffffffff16815260200191505060405180910390f35b3480156200023057600080fd5b5062000276600480360360208110156200024957600080fd5b81019080803573ffffffffffffffffffffffffffffffffffffffff16906020019092919050505062000dba565b005b3480156200028557600080fd5b5062000479600480360360608110156200029e57600080fd5b8101908080359060200190640100000000811115620002bc57600080fd5b820183602082011115620002cf57600080fd5b80359060200191846001830284011164010000000083111715620002f257600080fd5b91908080601f016020809104026020016040519081016040528093929190818152602001838380828437600081840152601f19601f820116905080830192505050505050509192919290803590602001906401000000008111156200035657600080fd5b8201836020820111156200036957600080fd5b803590602001918460018302840111640100000000831117156200038c57600080fd5b91908080601f016020809104026020016040519081016040528093929190818152602001838380828437600081840152601f19601f82011690508083019250505050505050919291929080359060200190640100000000811115620003f057600080fd5b8201836020820111156200040357600080fd5b803590602001918460018302840111640100000000831117156200042657600080fd5b91908080601f016020809104026020016040519081016040528093929190818152602001838380828437600081840152601f19601f820116905080830192505050505050509192919290505050620010e9565b005b3480156200048857600080fd5b50620004ee60048036036040811015620004a157600080fd5b81019080803573ffffffffffffffffffffffffffffffffffffffff169060200190929190803573ffffffffffffffffffffffffffffffffffffffff1690602001909291905050506200132f565b6040518080602001828103825283818151815260200191508051906020019080838360005b838110156200053057808201518184015260208101905062000513565b50505050905090810190601f1680156200055e5780820380516001836020036101000a031916815260200191505b509250505060405180910390f35b3480156200057957600080fd5b50620005bf600480360360208110156200059257600080fd5b81019080803573ffffffffffffffffffffffffffffffffffffffff169060200190929190505050620014dd565b604051808273ffffffffffffffffffffffffffffffffffffffff1673ffffffffffffffffffffffffffffffffffffffff16815260200191505060405180910390f35b3480156200060e57600080fd5b5062000654600480360360208110156200062757600080fd5b81019080803573ffffffffffffffffffffffffffffffffffffffff16906020019092919050505062001586565b005b3480156200066357600080fd5b506200066e620016ac565b604051808273ffffffffffffffffffffffffffffffffffffffff1673ffffffffffffffffffffffffffffffffffffffff16815260200191505060405180910390f35b348015620006bd57600080fd5b506200070360048036036020811015620006d657600080fd5b81019080803573ffffffffffffffffffffffffffffffffffffffff1690602001909291905050506200172f565b005b3480156200071257600080fd5b5062000758600480360360208110156200072b57600080fd5b81019080803573ffffffffffffffffffffffffffffffffffffffff16906020019092919050505062001965565b005b3480156200076757600080fd5b50620008f5600480360360a08110156200078057600080fd5b81019080803573ffffffffffffffffffffffffffffffffffffffff16906020019092919080359060200190640100000000811115620007be57600080fd5b820183602082011115620007d157600080fd5b80359060200191846001830284011164010000000083111715620007f457600080fd5b91908080601f016020809104026020016040519081016040528093929190818152602001838380828437600081840152601f19601f820116905080830192505050505050509192919290803590602001906401000000008111156200085857600080fd5b8201836020820111156200086b57600080fd5b803590602001918460018302840111640100000000831117156200088e57600080fd5b91908080601f016020809104026020016040519081016040528093929190818152602001838380828437600081840152601f19601f820116905080830192505050505050509192919290803590602001909291908035906020019092919050505062001a91565b005b3480156200090457600080fd5b5062000a68600480360360608110156200091d57600080fd5b81019080803590602001906401000000008111156200093b57600080fd5b8201836020820111156200094e57600080fd5b803590602001918460018302840111640100000000831117156200097157600080fd5b91908080601f016020809104026020016040519081016040528093929190818152602001838380828437600081840152601f19601f8201169050808301925050505050505091929192908035906020019092919080359060200190640100000000811115620009df57600080fd5b820183602082011115620009f257600080fd5b8035906020019184600183028401116401000000008311171562000a1557600080fd5b91908080601f016020809104026020016040519081016040528093929190818152602001838380828437600081840152601f19601f82011690508083019250505050505050919291929050505062001ef0565b005b34801562000a7757600080fd5b5062000abd6004803603602081101562000a9057600080fd5b81019080803573ffffffffffffffffffffffffffffffffffffffff1690602001909291905050506200210e565b005b6000600360003373ffffffffffffffffffffffffffffffffffffffff1673ffffffffffffffffffffffffffffffffffffffff16815260200190815260200160002060040160008373ffffffffffffffffffffffffffffffffffffffff1673ffffffffffffffffffffffffffffffffffffffff16815260200190815260200160002060009054906101000a900473ffffffffffffffffffffffffffffffffffffffff1690508073ffffffffffffffffffffffffffffffffffffffff1663221486af6040518163ffffffff167c0100000000000000000000000000000000000000000000000000000000028152600401600060405180830381600087803b15801562000bc857600080fd5b505af115801562000bdd573d6000803e3d6000fd5b505050505050565b6000600360003373ffffffffffffffffffffffffffffffffffffffff1673ffffffffffffffffffffffffffffffffffffffff16815260200190815260200160002060040160008373ffffffffffffffffffffffffffffffffffffffff1673ffffffffffffffffffffffffffffffffffffffff16815260200190815260200160002060009054906101000a900473ffffffffffffffffffffffffffffffffffffffff16905060008190508073ffffffffffffffffffffffffffffffffffffffff16637d50da176040518163ffffffff167c0100000000000000000000000000000000000000000000000000000000028152600401600060405180830381600087803b15801562000cf357600080fd5b505af115801562000d08573d6000803e3d6000fd5b50505050505050565b6000600160003373ffffffffffffffffffffffffffffffffffffffff1673ffffffffffffffffffffffffffffffffffffffff16815260200190815260200160002060060160008373ffffffffffffffffffffffffffffffffffffffff1673ffffffffffffffffffffffffffffffffffffffff16815260200190815260200160002060009054906101000a900473ffffffffffffffffffffffffffffffffffffffff169050919050565b60008162000dc762002234565b808273ffffffffffffffffffffffffffffffffffffffff1673ffffffffffffffffffffffffffffffffffffffff168152602001915050604051809103906000f08015801562000e1a573d6000803e3d6000fd5b509050600160003373ffffffffffffffffffffffffffffffffffffffff1673ffffffffffffffffffffffffffffffffffffffff1681526020019081526020016000206005018190806001815401808255809150509060018203906000526020600020016000909192909190916101000a81548173ffffffffffffffffffffffffffffffffffffffff021916908373ffffffffffffffffffffffffffffffffffffffff1602179055505080600160003373ffffffffffffffffffffffffffffffffffffffff1673ffffffffffffffffffffffffffffffffffffffff16815260200190815260200160002060060160008473ffffffffffffffffffffffffffffffffffffffff1673ffffffffffffffffffffffffffffffffffffffff16815260200190815260200160002060006101000a81548173ffffffffffffffffffffffffffffffffffffffff021916908373ffffffffffffffffffffffffffffffffffffffff160217905550600360008373ffffffffffffffffffffffffffffffffffffffff1673ffffffffffffffffffffffffffffffffffffffff1681526020019081526020016000206005018190806001815401808255809150509060018203906000526020600020016000909192909190916101000a81548173ffffffffffffffffffffffffffffffffffffffff021916908373ffffffffffffffffffffffffffffffffffffffff1602179055505080600360008473ffffffffffffffffffffffffffffffffffffffff1673ffffffffffffffffffffffffffffffffffffffff16815260200190815260200160002060060160003373ffffffffffffffffffffffffffffffffffffffff1673ffffffffffffffffffffffffffffffffffffffff16815260200190815260200160002060006101000a81548173ffffffffffffffffffffffffffffffffffffffff021916908373ffffffffffffffffffffffffffffffffffffffff1602179055505050565b620010f362002245565b60a0604051908101604052808581526020018481526020018381526020016000604051908082528060200260200182016040528015620011425781602001602082028038833980820191505090505b5081526020016001604051908082528060200260200182016040528015620011795781602001602082028038833980820191505090505b508152509050600281908060018154018082558091505090600182039060005260206000209060070201600090919290919091506000820151816000019080519060200190620011cb92919062002275565b506020820151816001019080519060200190620011ea92919062002275565b5060408201518160020190805190602001906200120992919062002275565b50606082015181600301908051906020019062001228929190620022fc565b50608082015181600501908051906020019062001247929190620022fc565b5050505080600360003373ffffffffffffffffffffffffffffffffffffffff1673ffffffffffffffffffffffffffffffffffffffff1681526020019081526020016000206000820151816000019080519060200190620012a992919062002275565b506020820151816001019080519060200190620012c892919062002275565b506040820151816002019080519060200190620012e792919062002275565b50606082015181600301908051906020019062001306929190620022fc565b50608082015181600501908051906020019062001325929190620022fc565b5090505050505050565b60606000600160008573ffffffffffffffffffffffffffffffffffffffff1673ffffffffffffffffffffffffffffffffffffffff16815260200190815260200160002060040160008473ffffffffffffffffffffffffffffffffffffffff1673ffffffffffffffffffffffffffffffffffffffff16815260200190815260200160002060009054906101000a900473ffffffffffffffffffffffffffffffffffffffff16905060008190508073ffffffffffffffffffffffffffffffffffffffff1663e35fb2416040518163ffffffff167c010000000000000000000000000000000000000000000000000000000002815260040160006040518083038186803b1580156200143d57600080fd5b505afa15801562001452573d6000803e3d6000fd5b505050506040513d6000823e3d601f19601f8201168201806040525060208110156200147d57600080fd5b8101908080516401000000008111156200149657600080fd5b82810190506020810184811115620014ad57600080fd5b8151856001820283011164010000000082111715620014cb57600080fd5b50509291905050509250505092915050565b6000600360003373ffffffffffffffffffffffffffffffffffffffff1673ffffffffffffffffffffffffffffffffffffffff16815260200190815260200160002060040160008373ffffffffffffffffffffffffffffffffffffffff1673ffffffffffffffffffffffffffffffffffffffff16815260200190815260200160002060009054906101000a900473ffffffffffffffffffffffffffffffffffffffff169050919050565b6000600360003373ffffffffffffffffffffffffffffffffffffffff1673ffffffffffffffffffffffffffffffffffffffff16815260200190815260200160002060060160008373ffffffffffffffffffffffffffffffffffffffff1673ffffffffffffffffffffffffffffffffffffffff16815260200190815260200160002060009054906101000a900473ffffffffffffffffffffffffffffffffffffffff1690508073ffffffffffffffffffffffffffffffffffffffff1663818169336040518163ffffffff167c0100000000000000000000000000000000000000000000000000000000028152600401600060405180830381600087803b1580156200168f57600080fd5b505af1158015620016a4573d6000803e3d6000fd5b505050505050565b6000600160003373ffffffffffffffffffffffffffffffffffffffff1673ffffffffffffffffffffffffffffffffffffffff1681526020019081526020016000206003016000815481101515620016ff57fe5b9060005260206000200160009054906101000a900473ffffffffffffffffffffffffffffffffffffffff16905090565b6000600160003373ffffffffffffffffffffffffffffffffffffffff1673ffffffffffffffffffffffffffffffffffffffff16815260200190815260200160002060060160008373ffffffffffffffffffffffffffffffffffffffff1673ffffffffffffffffffffffffffffffffffffffff16815260200190815260200160002060009054906101000a900473ffffffffffffffffffffffffffffffffffffffff1690506000600160003373ffffffffffffffffffffffffffffffffffffffff1673ffffffffffffffffffffffffffffffffffffffff16815260200190815260200160002060040160008473ffffffffffffffffffffffffffffffffffffffff1673ffffffffffffffffffffffffffffffffffffffff16815260200190815260200160002060009054906101000a900473ffffffffffffffffffffffffffffffffffffffff1690508173ffffffffffffffffffffffffffffffffffffffff16633bf6d35c84836040518363ffffffff167c0100000000000000000000000000000000000000000000000000000000028152600401808373ffffffffffffffffffffffffffffffffffffffff1673ffffffffffffffffffffffffffffffffffffffff1681526020018273ffffffffffffffffffffffffffffffffffffffff1673ffffffffffffffffffffffffffffffffffffffff16815260200192505050600060405180830381600087803b1580156200194757600080fd5b505af11580156200195c573d6000803e3d6000fd5b50505050505050565b6000600160003373ffffffffffffffffffffffffffffffffffffffff1673ffffffffffffffffffffffffffffffffffffffff16815260200190815260200160002060040160008373ffffffffffffffffffffffffffffffffffffffff1673ffffffffffffffffffffffffffffffffffffffff16815260200190815260200160002060009054906101000a900473ffffffffffffffffffffffffffffffffffffffff16905060008190508073ffffffffffffffffffffffffffffffffffffffff166324615e766040518163ffffffff167c0100000000000000000000000000000000000000000000000000000000028152600401600060405180830381600087803b15801562001a7357600080fd5b505af115801562001a88573d6000803e3d6000fd5b50505050505050565b338533876000338a8a8a8a8a62001aa76200238b565b808773ffffffffffffffffffffffffffffffffffffffff1673ffffffffffffffffffffffffffffffffffffffff1681526020018673ffffffffffffffffffffffffffffffffffffffff1673ffffffffffffffffffffffffffffffffffffffff1681526020018060200180602001858152602001848152602001838103835287818151815260200191508051906020019080838360005b8381101562001b5a57808201518184015260208101905062001b3d565b50505050905090810190601f16801562001b885780820380516001836020036101000a031916815260200191505b50838103825286818151815260200191508051906020019080838360005b8381101562001bc357808201518184015260208101905062001ba6565b50505050905090810190601f16801562001bf15780820380516001836020036101000a031916815260200191505b5098505050505050505050604051809103906000f08015801562001c19573d6000803e3d6000fd5b509050600160003373ffffffffffffffffffffffffffffffffffffffff1673ffffffffffffffffffffffffffffffffffffffff1681526020019081526020016000206003018190806001815401808255809150509060018203906000526020600020016000909192909190916101000a81548173ffffffffffffffffffffffffffffffffffffffff021916908373ffffffffffffffffffffffffffffffffffffffff1602179055505080600160003373ffffffffffffffffffffffffffffffffffffffff1673ffffffffffffffffffffffffffffffffffffffff16815260200190815260200160002060040160008c73ffffffffffffffffffffffffffffffffffffffff1673ffffffffffffffffffffffffffffffffffffffff16815260200190815260200160002060006101000a81548173ffffffffffffffffffffffffffffffffffffffff021916908373ffffffffffffffffffffffffffffffffffffffff160217905550600360008b73ffffffffffffffffffffffffffffffffffffffff1673ffffffffffffffffffffffffffffffffffffffff1681526020019081526020016000206003018190806001815401808255809150509060018203906000526020600020016000909192909190916101000a81548173ffffffffffffffffffffffffffffffffffffffff021916908373ffffffffffffffffffffffffffffffffffffffff1602179055505080600360008c73ffffffffffffffffffffffffffffffffffffffff1673ffffffffffffffffffffffffffffffffffffffff16815260200190815260200160002060040160003373ffffffffffffffffffffffffffffffffffffffff1673ffffffffffffffffffffffffffffffffffffffff16815260200190815260200160002060006101000a81548173ffffffffffffffffffffffffffffffffffffffff021916908373ffffffffffffffffffffffffffffffffffffffff16021790555050505050505050505050565b3362001efb6200239c565b60a060405190810160405280868152602001858152602001848152602001600060405190808252806020026020018201604052801562001f4a5781602001602082028038833980820191505090505b508152602001600160405190808252806020026020018201604052801562001f815781602001602082028038833980820191505090505b50815250905060008190806001815401808255809150509060018203906000526020600020906007020160009091929091909150600082015181600001908051906020019062001fd392919062002275565b5060208201518160010155604082015181600201908051906020019062001ffc92919062002275565b5060608201518160030190805190602001906200201b929190620022fc565b5060808201518160050190805190602001906200203a929190620022fc565b5050505080600160003373ffffffffffffffffffffffffffffffffffffffff1673ffffffffffffffffffffffffffffffffffffffff16815260200190815260200160002060008201518160000190805190602001906200209c92919062002275565b50602082015181600101556040820151816002019080519060200190620020c592919062002275565b506060820151816003019080519060200190620020e4929190620022fc565b50608082015181600501908051906020019062002103929190620022fc565b509050505050505050565b6000600160003373ffffffffffffffffffffffffffffffffffffffff1673ffffffffffffffffffffffffffffffffffffffff16815260200190815260200160002060060160008373ffffffffffffffffffffffffffffffffffffffff1673ffffffffffffffffffffffffffffffffffffffff16815260200190815260200160002060009054906101000a900473ffffffffffffffffffffffffffffffffffffffff1690508073ffffffffffffffffffffffffffffffffffffffff166337feafd46040518163ffffffff167c0100000000000000000000000000000000000000000000000000000000028152600401600060405180830381600087803b1580156200221757600080fd5b505af11580156200222c573d6000803e3d6000fd5b505050505050565b60405161092f806200243b83390190565b60a06040519081016040528060608152602001606081526020016060815260200160608152602001606081525090565b828054600181600116156101000203166002900490600052602060002090601f016020900481019282601f10620022b857805160ff1916838001178555620022e9565b82800160010185558215620022e9579182015b82811115620022e8578251825591602001919060010190620022cb565b5b509050620022f89190620023cc565b5090565b82805482825590600052602060002090810192821562002378579160200282015b82811115620023775782518260006101000a81548173ffffffffffffffffffffffffffffffffffffffff021916908373ffffffffffffffffffffffffffffffffffffffff160217905550916020019190600101906200231d565b5b509050620023879190620023f4565b5090565b604051610c998062002d6a83390190565b60a06040519081016040528060608152602001600081526020016060815260200160608152602001606081525090565b620023f191905b80821115620023ed576000816000905550600101620023d3565b5090565b90565b6200243791905b808211156200243357600081816101000a81549073ffffffffffffffffffffffffffffffffffffffff021916905550600101620023fb565b5090565b9056fe6080604052600080556000600260146101000a81548160ff0219169083600381111561002757fe5b021790555034801561003857600080fd5b5060405160208061092f8339810180604052602081101561005857600080fd5b810190808051906020019092919050505080600160006101000a81548173ffffffffffffffffffffffffffffffffffffffff021916908373ffffffffffffffffffffffffffffffffffffffff16021790555032600260006101000a81548173ffffffffffffffffffffffffffffffffffffffff021916908373ffffffffffffffffffffffffffffffffffffffff16021790555050610834806100fb6000396000f3fe608060405260043610610078576000357c0100000000000000000000000000000000000000000000000000000000900463ffffffff16806337feafd41461007d5780633bf6d35c146100945780638181693314610105578063c040e6b81461011c578063e35fb24114610155578063f8a8fd6d146101e5575b600080fd5b34801561008957600080fd5b50610092610210565b005b3480156100a057600080fd5b50610103600480360360408110156100b757600080fd5b81019080803573ffffffffffffffffffffffffffffffffffffffff169060200190929190803573ffffffffffffffffffffffffffffffffffffffff1690602001909291905050506102ae565b005b34801561011157600080fd5b5061011a610553565b005b34801561012857600080fd5b506101316105f1565b6040518082600381111561014157fe5b60ff16815260200191505060405180910390f35b34801561016157600080fd5b5061016a610604565b6040518080602001828103825283818151815260200191508051906020019080838360005b838110156101aa57808201518184015260208101905061018f565b50505050905090810190601f1680156101d75780820380516001836020036101000a031916815260200191505b509250505060405180910390f35b3480156101f157600080fd5b506101fa6107b5565b6040518082815260200191505060405180910390f35b600280600381111561021e57fe5b600260149054906101000a900460ff16600381111561023957fe5b14151561024557600080fd5b32600260009054906101000a900473ffffffffffffffffffffffffffffffffffffffff1673ffffffffffffffffffffffffffffffffffffffff168173ffffffffffffffffffffffffffffffffffffffff161415156102a257600080fd5b6102aa6107bb565b5050565b60008060038111156102bc57fe5b600260149054906101000a900460ff1660038111156102d757fe5b1415156102e357600080fd5b82328360008190508073ffffffffffffffffffffffffffffffffffffffff1663bd2f93d06040518163ffffffff167c010000000000000000000000000000000000000000000000000000000002815260040160206040518083038186803b15801561034d57600080fd5b505afa158015610361573d6000803e3d6000fd5b505050506040513d602081101561037757600080fd5b810190808051906020019092919050505073ffffffffffffffffffffffffffffffffffffffff168473ffffffffffffffffffffffffffffffffffffffff161415156103c157600080fd5b8073ffffffffffffffffffffffffffffffffffffffff16633c7328156040518163ffffffff167c010000000000000000000000000000000000000000000000000000000002815260040160206040518083038186803b15801561042357600080fd5b505afa158015610437573d6000803e3d6000fd5b505050506040513d602081101561044d57600080fd5b810190808051906020019092919050505073ffffffffffffffffffffffffffffffffffffffff168373ffffffffffffffffffffffffffffffffffffffff1614151561049757600080fd5b8073ffffffffffffffffffffffffffffffffffffffff1663fcaa76646040518163ffffffff167c010000000000000000000000000000000000000000000000000000000002815260040160206040518083038186803b1580156104f957600080fd5b505afa15801561050d573d6000803e3d6000fd5b505050506040513d602081101561052357600080fd5b8101908080519060200190929190505050600210151561054257600080fd5b61054a6107bb565b50505050505050565b600180600381111561056157fe5b600260149054906101000a900460ff16600381111561057c57fe5b14151561058857600080fd5b32600160009054906101000a900473ffffffffffffffffffffffffffffffffffffffff1673ffffffffffffffffffffffffffffffffffffffff168173ffffffffffffffffffffffffffffffffffffffff161415156105e557600080fd5b6105ed6107bb565b5050565b600260149054906101000a900460ff1681565b6060600260149054906101000a900460ff16600381111561062157fe5b6000600381111561062e57fe5b1415610671576040805190810160405280601b81526020017f416363657074696e67436572746966696361746552657175657374000000000081525090506107b2565b600260149054906101000a900460ff16600381111561068c57fe5b6001600381111561069957fe5b14156106dc576040805190810160405280601281526020017f526571756573744365727469666963617465000000000000000000000000000081525090506107b2565b600260149054906101000a900460ff1660038111156106f757fe5b6002600381111561070457fe5b1415610747576040805190810160405280601081526020017f497373756543657274696669636174650000000000000000000000000000000081525090506107b2565b600260149054906101000a900460ff16600381111561076257fe5b60038081111561076e57fe5b14156107b1576040805190810160405280601181526020017f616363657074436572746966696361746500000000000000000000000000000081525090506107b2565b5b90565b60005481565b6001600260149054906101000a900460ff1660038111156107d857fe5b0160038111156107e457fe5b600260146101000a81548160ff0219169083600381111561080157fe5b021790555056fea165627a7a723058208183ef19bc2f52e9735e298bf557c6b277efa3978866dafba8a92c03f7d1c0680029608060405260006002556000600760006101000a81548160ff0219169083600381111561002857fe5b02179055504260085534801561003d57600080fd5b50604051610c99380380610c99833981018060405260c081101561006057600080fd5b810190808051906020019092919080519060200190929190805164010000000081111561008c57600080fd5b828101905060208101848111156100a257600080fd5b81518560018202830111640100000000821117156100bf57600080fd5b505092919060200180516401000000008111156100db57600080fd5b828101905060208101848111156100f157600080fd5b815185600182028301116401000000008211171561010e57600080fd5b50509291906020018051906020019092919080519060200190929190505050856000806101000a81548173ffffffffffffffffffffffffffffffffffffffff021916908373ffffffffffffffffffffffffffffffffffffffff16021790555084600160006101000a81548173ffffffffffffffffffffffffffffffffffffffff021916908373ffffffffffffffffffffffffffffffffffffffff16021790555060806040519081016040528085815260200184815260200183815260200182815250600360008201518160000190805190602001906101ee92919061022e565b50602082015181600101908051906020019061020b92919061022e565b5060408201518160020155606082015181600301559050505050505050506102d3565b828054600181600116156101000203166002900490600052602060002090601f016020900481019282601f1061026f57805160ff191683800117855561029d565b8280016001018555821561029d579182015b8281111561029c578251825591602001919060010190610281565b5b5090506102aa91906102ae565b5090565b6102d091905b808211156102cc5760008160009055506001016102b4565b5090565b90565b6109b7806102e26000396000f3fe608060405260043610610099576000357c0100000000000000000000000000000000000000000000000000000000900463ffffffff168063221486af1461009e57806324615e76146100b55780633c732815146100cc5780637d50da1714610123578063bd2f93d01461013a578063c040e6b814610191578063d8270dce146101ca578063e35fb241146101f5578063fcaa766414610285575b600080fd5b3480156100aa57600080fd5b506100b36102b0565b005b3480156100c157600080fd5b506100ca610420565b005b3480156100d857600080fd5b506100e161058f565b604051808273ffffffffffffffffffffffffffffffffffffffff1673ffffffffffffffffffffffffffffffffffffffff16815260200191505060405180910390f35b34801561012f57600080fd5b506101386105b8565b005b34801561014657600080fd5b5061014f610728565b604051808273ffffffffffffffffffffffffffffffffffffffff1673ffffffffffffffffffffffffffffffffffffffff16815260200191505060405180910390f35b34801561019d57600080fd5b506101a6610752565b604051808260038111156101b657fe5b60ff16815260200191505060405180910390f35b3480156101d657600080fd5b506101df610765565b6040518082815260200191505060405180910390f35b34801561020157600080fd5b5061020a61076b565b6040518080602001828103825283818151815260200191508051906020019080838360005b8381101561024a57808201518184015260208101905061022f565b50505050905090810190601f1680156102775780820380516001836020036101000a031916815260200191505b509250505060405180910390f35b34801561029157600080fd5b5061029a61091c565b6040518082815260200191505060405180910390f35b60008060038111156102be57fe5b600760009054906101000a900460ff1660038111156102d957fe5b14151561034e576040517f08c379a00000000000000000000000000000000000000000000000000000000081526004018080602001828103825260168152602001807f4572726f722061745374616765206d6f6469666965720000000000000000000081525060200191505060405180910390fd5b32600160009054906101000a900473ffffffffffffffffffffffffffffffffffffffff1673ffffffffffffffffffffffffffffffffffffffff168173ffffffffffffffffffffffffffffffffffffffff16141515610414576040517f08c379a00000000000000000000000000000000000000000000000000000000081526004018080602001828103825260188152602001807f4572726f72206d6f646966696572206973436f6c6c656765000000000000000081525060200191505060405180910390fd5b61041c61093e565b5050565b600280600381111561042e57fe5b600760009054906101000a900460ff16600381111561044957fe5b1415156104be576040517f08c379a00000000000000000000000000000000000000000000000000000000081526004018080602001828103825260168152602001807f4572726f722061745374616765206d6f6469666965720000000000000000000081525060200191505060405180910390fd5b326000809054906101000a900473ffffffffffffffffffffffffffffffffffffffff1673ffffffffffffffffffffffffffffffffffffffff168173ffffffffffffffffffffffffffffffffffffffff16141515610583576040517f08c379a00000000000000000000000000000000000000000000000000000000081526004018080602001828103825260188152602001807f4572726f72206d6f64696669657220697353747564656e74000000000000000081525060200191505060405180910390fd5b61058b61093e565b5050565b60008060009054906101000a900473ffffffffffffffffffffffffffffffffffffffff16905090565b60018060038111156105c657fe5b600760009054906101000a900460ff1660038111156105e157fe5b141515610656576040517f08c379a00000000000000000000000000000000000000000000000000000000081526004018080602001828103825260168152602001807f4572726f722061745374616765206d6f6469666965720000000000000000000081525060200191505060405180910390fd5b32600160009054906101000a900473ffffffffffffffffffffffffffffffffffffffff1673ffffffffffffffffffffffffffffffffffffffff168173ffffffffffffffffffffffffffffffffffffffff1614151561071c576040517f08c379a00000000000000000000000000000000000000000000000000000000081526004018080602001828103825260188152602001807f4572726f72206d6f646966696572206973436f6c6c656765000000000000000081525060200191505060405180910390fd5b61072461093e565b5050565b6000600160009054906101000a900473ffffffffffffffffffffffffffffffffffffffff16905090565b600760009054906101000a900460ff1681565b60085481565b6060600760009054906101000a900460ff16600381111561078857fe5b6000600381111561079557fe5b14156107d8576040805190810160405280601681526020017f52657175657374666f72526567697374726174696f6e000000000000000000008152509050610919565b600760009054906101000a900460ff1660038111156107f357fe5b6001600381111561080057fe5b1415610843576040805190810160405280601481526020017f56657269667953747564656e7450726f66696c650000000000000000000000008152509050610919565b600760009054906101000a900460ff16600381111561085e57fe5b6002600381111561086b57fe5b14156108ae576040805190810160405280601381526020017f417070726f7665526567697374726174696f6e000000000000000000000000008152509050610919565b600760009054906101000a900460ff1660038111156108c957fe5b6003808111156108d557fe5b1415610918576040805190810160405280601281526020017f416363657074526567697374726174696f6e00000000000000000000000000008152509050610919565b5b90565b6000600760009054906101000a900460ff16600381111561093957fe5b905090565b6001600760009054906101000a900460ff16600381111561095b57fe5b01600381111561096757fe5b600760006101000a81548160ff0219169083600381111561098457fe5b021790555056fea165627a7a723058207b224b65f166dbf2e4bbc72de0daf5cb1188544d77886431eb4398061bf2b2c50029a165627a7a7230582076f9ed55d6a90e5eb94035146684f8a35e78b2910573824b75a675f66f45774c0029",
  "source": "pragma solidity ^0.5.0;\n\nimport \"./RegistrationContract.sol\";\nimport \"./CertificateContract.sol\";\n\ncontract RegistrationAndCertificateContractFactory {\n\n    struct Student {\n        string fullName;\n        uint phoneNumber;\n        string emailId;\n        address[] registrationContracts;\n        mapping(address => address) registrationContractByCollege;\n        address[] certificationContracts;\n        mapping(address=>address) certificateContractsByCollege;\n    }\n    \n    struct College {\n        string instituteName;\n        string instituteCode;\n        string instituteAISHECode;\n        address[] registrationContracts;\n        mapping(address => address) registrationContractByStudent;\n        address[] certificationContracts;\n        mapping(address=>address) certificateContractsByStudent;\n    }\n    \n    Student[]  studentList;\n    mapping(address => Student) studentsInfo;\n    \n    College[]  collegeList;\n    mapping(address => College) collegesInfo;\n    \n    function getFirstCollege(address _studentAddress) public view returns(address){\n        return collegesInfo[msg.sender].registrationContractByStudent[_studentAddress];\n    }\n    function getFirstStudent() public view returns(address){\n        return studentsInfo[msg.sender].registrationContracts[0];\n    }\n    \n    function createStudent( string memory name, uint phoneNumber,  string memory emailId) public doesStudentExist(msg.sender){\n        Student memory newStudent = Student(name, phoneNumber,emailId, new address[](0),  new address[](1) );\n        studentList.push(newStudent);\n        studentsInfo[msg.sender] = newStudent;\n    }\n    \n    \n    function createCollege(string memory instituteName, string memory instituteCode, string memory instituteAISHECode) public {\n        College memory newCollege = College(instituteName, instituteCode, instituteAISHECode, new address[](0),  new address[](1));\n        collegeList.push(newCollege);\n        collegesInfo[msg.sender] = newCollege;\n    }\n    \n    modifier doesStudentExist(address studentAddress) {\n        // check if studentAddress is present in studentList or not.\n        _;\n    }\n    \n    modifier doesCollegeExist(address collegeAddress) {\n        // check if collegeAddress is present in collegeList or not\n        _;\n    }\n    \n    modifier notAlreadyRegistered(address studentAddress, address collegeAddress) {\n        // check if collegeStudentRegistrationContracts[collegeAddress][studentAddress] is empty or notAlreadyRegistered\n        _;\n    }\n    \n    function startRegistration(\n        address collegeAddress, string memory collegeRegNumber, string memory collegeEmailId, uint collegeDoJ, uint collegeDateOfPassing) doesStudentExist(msg.sender) doesCollegeExist(collegeAddress) notAlreadyRegistered(msg.sender, collegeAddress) public{\n        RegistrationContract newRegistrationContract = new \n        RegistrationContract(msg.sender, collegeAddress, collegeRegNumber, collegeEmailId, collegeDoJ, collegeDateOfPassing);\n        studentsInfo[msg.sender].registrationContracts.push(address(newRegistrationContract));\n        studentsInfo[msg.sender].registrationContractByCollege[collegeAddress] = address(newRegistrationContract);\n        collegesInfo[collegeAddress].registrationContracts.push(address(newRegistrationContract));\n        collegesInfo[collegeAddress].registrationContractByStudent[msg.sender] = address(newRegistrationContract);\n    }\n    \n    function verifyStudentProfile(address studentAddress) public{\n        //address registrationContractAddress = collegesInfo[msg.sender].registrationContractByStudent[studentAddress];\n        RegistrationContract registrationContract = RegistrationContract(collegesInfo[msg.sender].registrationContractByStudent[studentAddress]);\n        registrationContract.verifyStudentProfile();\n    }\n    \n    \n    function approveRegistration(address studentAddress) public\n    {\n        address registrationContractAddress = collegesInfo[msg.sender].registrationContractByStudent[studentAddress];\n        RegistrationContract registrationContract = RegistrationContract(registrationContractAddress);\n        registrationContract.approveRegistration();\n    }\n    \n    function acceptRegistration(address collegeAddress) public\n    {\n        address registrationContractAddress = studentsInfo[msg.sender].registrationContractByCollege[collegeAddress];\n        RegistrationContract registrationContract = RegistrationContract(registrationContractAddress);\n        registrationContract.acceptRegistration();\n    }\n    \n    function getRegistrationStatus(address studentAddress, address collegeAddress) public view returns (string memory) {\n        address registrationContractAddress = studentsInfo[studentAddress].registrationContractByCollege[collegeAddress];\n        RegistrationContract registrationContract = RegistrationContract(registrationContractAddress);\n        return registrationContract.getRegistrationStatus();\n    }\n    \n    function startCertification(address _collegeAddress) public{\n        CertificateContract certContract = new CertificateContract(_collegeAddress);\n        studentsInfo[msg.sender].certificationContracts.push(address(certContract));\n        studentsInfo[msg.sender].certificateContractsByCollege[_collegeAddress] = address(certContract) ;\n    \n        collegesInfo[_collegeAddress].certificationContracts.push(address(certContract));\n        collegesInfo[_collegeAddress].certificateContractsByStudent[msg.sender] = address(certContract);\n    }\n    \n    function reqCertification(address _collegeAddress) public{\n        CertificateContract certContract = CertificateContract(studentsInfo[msg.sender].certificateContractsByCollege[_collegeAddress]);\n        address regContract = studentsInfo[msg.sender].registrationContractByCollege[_collegeAddress];\n        certContract.requestCertification(_collegeAddress,regContract);\n        \n    }\n    function issueCertification(address _studentAddress) public{\n        CertificateContract certContract = CertificateContract(collegesInfo[msg.sender].certificateContractsByStudent[_studentAddress]);\n        certContract.issueCertificate();\n        \n    }\n    function acceptCertification(address _collegeAddress) public{\n        CertificateContract certContract = CertificateContract(studentsInfo[msg.sender].certificateContractsByCollege[_collegeAddress]);\n        certContract.acceptCertificate();\n        \n    }\n    function getCertContractAddress(address _collegeAddress) public view returns(address){\n        return studentsInfo[msg.sender].certificateContractsByCollege[_collegeAddress];\n    }\n    \n}",
  "sourcePath": "/Users/mani/Edu/gitRepo/EduPlatform/contracts/RegistrationAndCertificateContractFactory.sol",
  "compiler": {
    "name": "solc",
    "version": "0.5.0+commit.1d4f565a.Emscripten.clang"
  },
  "schemaVersion": "3.0.1",
  "updatedAt": "2019-01-24T07:16:12.588Z",
  "devdoc": {
    "methods": {}
  },
  "userdoc": {
    "methods": {}
  }
}