{
  "contractName": "RegistrationAndCertificateContractFactory",
  "abi": [
    {
      "constant": true,
      "inputs": [
        {
          "name": "_studentAddress",
          "type": "address"
        }
      ],
      "name": "getFirstCollege",
      "outputs": [
        {
          "name": "",
          "type": "address"
        }
      ],
      "payable": false,
      "stateMutability": "view",
      "type": "function"
    },
    {
      "constant": true,
      "inputs": [],
      "name": "getFirstStudent",
      "outputs": [
        {
          "name": "",
          "type": "address"
        }
      ],
      "payable": false,
      "stateMutability": "view",
      "type": "function"
    },
    {
      "constant": true,
      "inputs": [],
      "name": "getStudentData",
      "outputs": [
        {
          "name": "",
          "type": "string"
        },
        {
          "name": "",
          "type": "uint256"
        },
        {
          "name": "",
          "type": "string"
        }
      ],
      "payable": false,
      "stateMutability": "view",
      "type": "function"
    },
    {
      "constant": false,
      "inputs": [
        {
          "name": "name",
          "type": "string"
        },
        {
          "name": "phoneNumber",
          "type": "uint256"
        },
        {
          "name": "emailId",
          "type": "string"
        }
      ],
      "name": "createStudent",
      "outputs": [],
      "payable": false,
      "stateMutability": "nonpayable",
      "type": "function"
    },
    {
      "constant": false,
      "inputs": [
        {
          "name": "instituteName",
          "type": "string"
        },
        {
          "name": "instituteCode",
          "type": "string"
        },
        {
          "name": "instituteAISHECode",
          "type": "string"
        }
      ],
      "name": "createCollege",
      "outputs": [],
      "payable": false,
      "stateMutability": "nonpayable",
      "type": "function"
    },
    {
      "constant": false,
      "inputs": [
        {
          "name": "collegeAddress",
          "type": "address"
        },
        {
          "name": "collegeRegNumber",
          "type": "string"
        },
        {
          "name": "collegeEmailId",
          "type": "string"
        },
        {
          "name": "collegeDoJ",
          "type": "uint256"
        },
        {
          "name": "collegeDateOfPassing",
          "type": "uint256"
        }
      ],
      "name": "startRegistration",
      "outputs": [],
      "payable": false,
      "stateMutability": "nonpayable",
      "type": "function"
    },
    {
      "constant": false,
      "inputs": [
        {
          "name": "studentAddress",
          "type": "address"
        }
      ],
      "name": "verifyStudentProfile",
      "outputs": [],
      "payable": false,
      "stateMutability": "nonpayable",
      "type": "function"
    },
    {
      "constant": false,
      "inputs": [
        {
          "name": "studentAddress",
          "type": "address"
        }
      ],
      "name": "approveRegistration",
      "outputs": [],
      "payable": false,
      "stateMutability": "nonpayable",
      "type": "function"
    },
    {
      "constant": false,
      "inputs": [
        {
          "name": "collegeAddress",
          "type": "address"
        }
      ],
      "name": "acceptRegistration",
      "outputs": [],
      "payable": false,
      "stateMutability": "nonpayable",
      "type": "function"
    },
    {
      "constant": true,
      "inputs": [
        {
          "name": "studentAddress",
          "type": "address"
        },
        {
          "name": "collegeAddress",
          "type": "address"
        }
      ],
      "name": "getRegistrationStatus",
      "outputs": [
        {
          "name": "",
          "type": "string"
        }
      ],
      "payable": false,
      "stateMutability": "view",
      "type": "function"
    },
    {
      "constant": true,
      "inputs": [
        {
          "name": "studentAddress",
          "type": "address"
        },
        {
          "name": "collegeAddress",
          "type": "address"
        }
      ],
      "name": "getCertificationStatus",
      "outputs": [
        {
          "name": "",
          "type": "string"
        }
      ],
      "payable": false,
      "stateMutability": "view",
      "type": "function"
    },
    {
      "constant": false,
      "inputs": [
        {
          "name": "_collegeAddress",
          "type": "address"
        }
      ],
      "name": "startCertification",
      "outputs": [],
      "payable": false,
      "stateMutability": "nonpayable",
      "type": "function"
    },
    {
      "constant": false,
      "inputs": [
        {
          "name": "_collegeAddress",
          "type": "address"
        }
      ],
      "name": "reqCertification",
      "outputs": [],
      "payable": false,
      "stateMutability": "nonpayable",
      "type": "function"
    },
    {
      "constant": false,
      "inputs": [
        {
          "name": "_studentAddress",
          "type": "address"
        }
      ],
      "name": "issueCertification",
      "outputs": [],
      "payable": false,
      "stateMutability": "nonpayable",
      "type": "function"
    },
    {
      "constant": false,
      "inputs": [
        {
          "name": "_collegeAddress",
          "type": "address"
        }
      ],
      "name": "acceptCertification",
      "outputs": [],
      "payable": false,
      "stateMutability": "nonpayable",
      "type": "function"
    },
    {
      "constant": true,
      "inputs": [
        {
          "name": "_collegeAddress",
          "type": "address"
        }
      ],
      "name": "getCertContractAddress",
      "outputs": [
        {
          "name": "",
          "type": "address"
        }
      ],
      "payable": false,
      "stateMutability": "view",
      "type": "function"
    }
  ],
  "bytecode": "0x608060405234801561001057600080fd5b50613c47806100206000396000f300608060405260043610620000f7576000357c0100000000000000000000000000000000000000000000000000000000900463ffffffff16806318014d1514620000fc5780635179fc4914620001425780635fd7b16a146200018857806362efca38146200029457806379554453146200031a57806385870a6f146200036057806392f0a140146200045857806395d3113a146200053a5780639e5c196c146200061c578063a2ddb37c14620006a2578063acbe8cee14620006e8578063b08ab8ea1462000742578063b204e9f31462000788578063b7c2d05014620007ce578063c12b577b14620008b4578063cf14ae641462000970575b600080fd5b3480156200010957600080fd5b5062000140600480360381019080803573ffffffffffffffffffffffffffffffffffffffff169060200190929190505050620009b6565b005b3480156200014f57600080fd5b5062000186600480360381019080803573ffffffffffffffffffffffffffffffffffffffff16906020019092919050505062000adc565b005b3480156200019557600080fd5b50620001a062000c07565b604051808060200184815260200180602001838103835286818151815260200191508051906020019080838360005b83811015620001ec578082015181840152602081019050620001cf565b50505050905090810190601f1680156200021a5780820380516001836020036101000a031916815260200191505b50838103825284818151815260200191508051906020019080838360005b838110156200025557808201518184015260208101905062000238565b50505050905090810190601f168015620002835780820380516001836020036101000a031916815260200191505b509550505050505060405180910390f35b348015620002a157600080fd5b50620002d8600480360381019080803573ffffffffffffffffffffffffffffffffffffffff16906020019092919050505062000e2a565b604051808273ffffffffffffffffffffffffffffffffffffffff1673ffffffffffffffffffffffffffffffffffffffff16815260200191505060405180910390f35b3480156200032757600080fd5b506200035e600480360381019080803573ffffffffffffffffffffffffffffffffffffffff16906020019092919050505062000ed3565b005b3480156200036d57600080fd5b5062000456600480360381019080803590602001908201803590602001908080601f0160208091040260200160405190810160405280939291908181526020018383808284378201915050505050509192919290803590602001908201803590602001908080601f0160208091040260200160405190810160405280939291908181526020018383808284378201915050505050509192919290803590602001908201803590602001908080601f016020809104026020016040519081016040528093929190818152602001838380828437820191505050505050919291929050505062001202565b005b3480156200046557600080fd5b50620004bc600480360381019080803573ffffffffffffffffffffffffffffffffffffffff169060200190929190803573ffffffffffffffffffffffffffffffffffffffff16906020019092919050505062001448565b6040518080602001828103825283818151815260200191508051906020019080838360005b83811015620004fe578082015181840152602081019050620004e1565b50505050905090810190601f1680156200052c5780820380516001836020036101000a031916815260200191505b509250505060405180910390f35b3480156200054757600080fd5b506200059e600480360381019080803573ffffffffffffffffffffffffffffffffffffffff169060200190929190803573ffffffffffffffffffffffffffffffffffffffff169060200190929190505050620015f7565b6040518080602001828103825283818151815260200191508051906020019080838360005b83811015620005e0578082015181840152602081019050620005c3565b50505050905090810190601f1680156200060e5780820380516001836020036101000a031916815260200191505b509250505060405180910390f35b3480156200062957600080fd5b5062000660600480360381019080803573ffffffffffffffffffffffffffffffffffffffff169060200190929190505050620017a6565b604051808273ffffffffffffffffffffffffffffffffffffffff1673ffffffffffffffffffffffffffffffffffffffff16815260200191505060405180910390f35b348015620006af57600080fd5b50620006e6600480360381019080803573ffffffffffffffffffffffffffffffffffffffff1690602001909291905050506200184f565b005b348015620006f557600080fd5b506200070062001975565b604051808273ffffffffffffffffffffffffffffffffffffffff1673ffffffffffffffffffffffffffffffffffffffff16815260200191505060405180910390f35b3480156200074f57600080fd5b5062000786600480360381019080803573ffffffffffffffffffffffffffffffffffffffff169060200190929190505050620019f8565b005b3480156200079557600080fd5b50620007cc600480360381019080803573ffffffffffffffffffffffffffffffffffffffff16906020019092919050505062001c2d565b005b348015620007db57600080fd5b50620008b2600480360381019080803573ffffffffffffffffffffffffffffffffffffffff169060200190929190803590602001908201803590602001908080601f0160208091040260200160405190810160405280939291908181526020018383808284378201915050505050509192919290803590602001908201803590602001908080601f0160208091040260200160405190810160405280939291908181526020018383808284378201915050505050509192919290803590602001909291908035906020019092919050505062001d58565b005b348015620008c157600080fd5b506200096e600480360381019080803590602001908201803590602001908080601f016020809104026020016040519081016040528093929190818152602001838380828437820191505050505050919291929080359060200190929190803590602001908201803590602001908080601f0160208091040260200160405190810160405280939291908181526020018383808284378201915050505050509192919290505050620021b7565b005b3480156200097d57600080fd5b50620009b4600480360381019080803573ffffffffffffffffffffffffffffffffffffffff169060200190929190505050620023d5565b005b6000600360003373ffffffffffffffffffffffffffffffffffffffff1673ffffffffffffffffffffffffffffffffffffffff16815260200190815260200160002060040160008373ffffffffffffffffffffffffffffffffffffffff1673ffffffffffffffffffffffffffffffffffffffff16815260200190815260200160002060009054906101000a900473ffffffffffffffffffffffffffffffffffffffff1690508073ffffffffffffffffffffffffffffffffffffffff1663221486af6040518163ffffffff167c0100000000000000000000000000000000000000000000000000000000028152600401600060405180830381600087803b15801562000abf57600080fd5b505af115801562000ad4573d6000803e3d6000fd5b505050505050565b600080600360003373ffffffffffffffffffffffffffffffffffffffff1673ffffffffffffffffffffffffffffffffffffffff16815260200190815260200160002060040160008473ffffffffffffffffffffffffffffffffffffffff1673ffffffffffffffffffffffffffffffffffffffff16815260200190815260200160002060009054906101000a900473ffffffffffffffffffffffffffffffffffffffff1691508190508073ffffffffffffffffffffffffffffffffffffffff16637d50da176040518163ffffffff167c0100000000000000000000000000000000000000000000000000000000028152600401600060405180830381600087803b15801562000be957600080fd5b505af115801562000bfe573d6000803e3d6000fd5b50505050505050565b6060600060608060006060600160003373ffffffffffffffffffffffffffffffffffffffff1673ffffffffffffffffffffffffffffffffffffffff1681526020019081526020016000206000018054600181600116156101000203166002900480601f01602080910402602001604051908101604052809291908181526020018280546001816001161561010002031660029004801562000cec5780601f1062000cc05761010080835404028352916020019162000cec565b820191906000526020600020905b81548152906001019060200180831162000cce57829003601f168201915b50505050509250600160003373ffffffffffffffffffffffffffffffffffffffff1673ffffffffffffffffffffffffffffffffffffffff168152602001908152602001600020600101549150600160003373ffffffffffffffffffffffffffffffffffffffff1673ffffffffffffffffffffffffffffffffffffffff1681526020019081526020016000206002018054600181600116156101000203166002900480601f01602080910402602001604051908101604052809291908181526020018280546001816001161561010002031660029004801562000e125780601f1062000de65761010080835404028352916020019162000e12565b820191906000526020600020905b81548152906001019060200180831162000df457829003601f168201915b50505050509050828282955095509550505050909192565b6000600160003373ffffffffffffffffffffffffffffffffffffffff1673ffffffffffffffffffffffffffffffffffffffff16815260200190815260200160002060060160008373ffffffffffffffffffffffffffffffffffffffff1673ffffffffffffffffffffffffffffffffffffffff16815260200190815260200160002060009054906101000a900473ffffffffffffffffffffffffffffffffffffffff169050919050565b60008162000ee0620024fb565b808273ffffffffffffffffffffffffffffffffffffffff1673ffffffffffffffffffffffffffffffffffffffff168152602001915050604051809103906000f08015801562000f33573d6000803e3d6000fd5b509050600160003373ffffffffffffffffffffffffffffffffffffffff1673ffffffffffffffffffffffffffffffffffffffff1681526020019081526020016000206005018190806001815401808255809150509060018203906000526020600020016000909192909190916101000a81548173ffffffffffffffffffffffffffffffffffffffff021916908373ffffffffffffffffffffffffffffffffffffffff1602179055505080600160003373ffffffffffffffffffffffffffffffffffffffff1673ffffffffffffffffffffffffffffffffffffffff16815260200190815260200160002060060160008473ffffffffffffffffffffffffffffffffffffffff1673ffffffffffffffffffffffffffffffffffffffff16815260200190815260200160002060006101000a81548173ffffffffffffffffffffffffffffffffffffffff021916908373ffffffffffffffffffffffffffffffffffffffff160217905550600360008373ffffffffffffffffffffffffffffffffffffffff1673ffffffffffffffffffffffffffffffffffffffff1681526020019081526020016000206005018190806001815401808255809150509060018203906000526020600020016000909192909190916101000a81548173ffffffffffffffffffffffffffffffffffffffff021916908373ffffffffffffffffffffffffffffffffffffffff1602179055505080600360008473ffffffffffffffffffffffffffffffffffffffff1673ffffffffffffffffffffffffffffffffffffffff16815260200190815260200160002060060160003373ffffffffffffffffffffffffffffffffffffffff1673ffffffffffffffffffffffffffffffffffffffff16815260200190815260200160002060006101000a81548173ffffffffffffffffffffffffffffffffffffffff021916908373ffffffffffffffffffffffffffffffffffffffff1602179055505050565b6200120c6200250c565b60a06040519081016040528085815260200184815260200183815260200160006040519080825280602002602001820160405280156200125b5781602001602082028038833980820191505090505b5081526020016001604051908082528060200260200182016040528015620012925781602001602082028038833980820191505090505b508152509050600281908060018154018082558091505090600182039060005260206000209060070201600090919290919091506000820151816000019080519060200190620012e49291906200253c565b506020820151816001019080519060200190620013039291906200253c565b506040820151816002019080519060200190620013229291906200253c565b50606082015181600301908051906020019062001341929190620025c3565b50608082015181600501908051906020019062001360929190620025c3565b5050505080600360003373ffffffffffffffffffffffffffffffffffffffff1673ffffffffffffffffffffffffffffffffffffffff1681526020019081526020016000206000820151816000019080519060200190620013c29291906200253c565b506020820151816001019080519060200190620013e19291906200253c565b506040820151816002019080519060200190620014009291906200253c565b5060608201518160030190805190602001906200141f929190620025c3565b5060808201518160050190805190602001906200143e929190620025c3565b5090505050505050565b6060600080600160008673ffffffffffffffffffffffffffffffffffffffff1673ffffffffffffffffffffffffffffffffffffffff16815260200190815260200160002060060160008573ffffffffffffffffffffffffffffffffffffffff1673ffffffffffffffffffffffffffffffffffffffff16815260200190815260200160002060009054906101000a900473ffffffffffffffffffffffffffffffffffffffff1691508190508073ffffffffffffffffffffffffffffffffffffffff16637f70e9756040518163ffffffff167c0100000000000000000000000000000000000000000000000000000000028152600401600060405180830381600087803b1580156200155757600080fd5b505af11580156200156c573d6000803e3d6000fd5b505050506040513d6000823e3d601f19601f8201168201806040525060208110156200159757600080fd5b810190808051640100000000811115620015b057600080fd5b82810190506020810184811115620015c757600080fd5b8151856001820283011164010000000082111715620015e557600080fd5b50509291905050509250505092915050565b6060600080600160008673ffffffffffffffffffffffffffffffffffffffff1673ffffffffffffffffffffffffffffffffffffffff16815260200190815260200160002060040160008573ffffffffffffffffffffffffffffffffffffffff1673ffffffffffffffffffffffffffffffffffffffff16815260200190815260200160002060009054906101000a900473ffffffffffffffffffffffffffffffffffffffff1691508190508073ffffffffffffffffffffffffffffffffffffffff1663e35fb2416040518163ffffffff167c0100000000000000000000000000000000000000000000000000000000028152600401600060405180830381600087803b1580156200170657600080fd5b505af11580156200171b573d6000803e3d6000fd5b505050506040513d6000823e3d601f19601f8201168201806040525060208110156200174657600080fd5b8101908080516401000000008111156200175f57600080fd5b828101905060208101848111156200177657600080fd5b81518560018202830111640100000000821117156200179457600080fd5b50509291905050509250505092915050565b6000600360003373ffffffffffffffffffffffffffffffffffffffff1673ffffffffffffffffffffffffffffffffffffffff16815260200190815260200160002060040160008373ffffffffffffffffffffffffffffffffffffffff1673ffffffffffffffffffffffffffffffffffffffff16815260200190815260200160002060009054906101000a900473ffffffffffffffffffffffffffffffffffffffff169050919050565b6000600360003373ffffffffffffffffffffffffffffffffffffffff1673ffffffffffffffffffffffffffffffffffffffff16815260200190815260200160002060060160008373ffffffffffffffffffffffffffffffffffffffff1673ffffffffffffffffffffffffffffffffffffffff16815260200190815260200160002060009054906101000a900473ffffffffffffffffffffffffffffffffffffffff1690508073ffffffffffffffffffffffffffffffffffffffff1663818169336040518163ffffffff167c0100000000000000000000000000000000000000000000000000000000028152600401600060405180830381600087803b1580156200195857600080fd5b505af11580156200196d573d6000803e3d6000fd5b505050505050565b6000600160003373ffffffffffffffffffffffffffffffffffffffff1673ffffffffffffffffffffffffffffffffffffffff1681526020019081526020016000206003016000815481101515620019c857fe5b9060005260206000200160009054906101000a900473ffffffffffffffffffffffffffffffffffffffff16905090565b600080600160003373ffffffffffffffffffffffffffffffffffffffff1673ffffffffffffffffffffffffffffffffffffffff16815260200190815260200160002060060160008473ffffffffffffffffffffffffffffffffffffffff1673ffffffffffffffffffffffffffffffffffffffff16815260200190815260200160002060009054906101000a900473ffffffffffffffffffffffffffffffffffffffff169150600160003373ffffffffffffffffffffffffffffffffffffffff1673ffffffffffffffffffffffffffffffffffffffff16815260200190815260200160002060040160008473ffffffffffffffffffffffffffffffffffffffff1673ffffffffffffffffffffffffffffffffffffffff16815260200190815260200160002060009054906101000a900473ffffffffffffffffffffffffffffffffffffffff1690508173ffffffffffffffffffffffffffffffffffffffff16633bf6d35c84836040518363ffffffff167c0100000000000000000000000000000000000000000000000000000000028152600401808373ffffffffffffffffffffffffffffffffffffffff1673ffffffffffffffffffffffffffffffffffffffff1681526020018273ffffffffffffffffffffffffffffffffffffffff1673ffffffffffffffffffffffffffffffffffffffff16815260200192505050600060405180830381600087803b15801562001c0f57600080fd5b505af115801562001c24573d6000803e3d6000fd5b50505050505050565b600080600160003373ffffffffffffffffffffffffffffffffffffffff1673ffffffffffffffffffffffffffffffffffffffff16815260200190815260200160002060040160008473ffffffffffffffffffffffffffffffffffffffff1673ffffffffffffffffffffffffffffffffffffffff16815260200190815260200160002060009054906101000a900473ffffffffffffffffffffffffffffffffffffffff1691508190508073ffffffffffffffffffffffffffffffffffffffff166324615e766040518163ffffffff167c0100000000000000000000000000000000000000000000000000000000028152600401600060405180830381600087803b15801562001d3a57600080fd5b505af115801562001d4f573d6000803e3d6000fd5b50505050505050565b600033863388338a8a8a8a8a62001d6e62002652565b808773ffffffffffffffffffffffffffffffffffffffff1673ffffffffffffffffffffffffffffffffffffffff1681526020018673ffffffffffffffffffffffffffffffffffffffff1673ffffffffffffffffffffffffffffffffffffffff1681526020018060200180602001858152602001848152602001838103835287818151815260200191508051906020019080838360005b8381101562001e2157808201518184015260208101905062001e04565b50505050905090810190601f16801562001e4f5780820380516001836020036101000a031916815260200191505b50838103825286818151815260200191508051906020019080838360005b8381101562001e8a57808201518184015260208101905062001e6d565b50505050905090810190601f16801562001eb85780820380516001836020036101000a031916815260200191505b5098505050505050505050604051809103906000f08015801562001ee0573d6000803e3d6000fd5b509450600160003373ffffffffffffffffffffffffffffffffffffffff1673ffffffffffffffffffffffffffffffffffffffff1681526020019081526020016000206003018590806001815401808255809150509060018203906000526020600020016000909192909190916101000a81548173ffffffffffffffffffffffffffffffffffffffff021916908373ffffffffffffffffffffffffffffffffffffffff1602179055505084600160003373ffffffffffffffffffffffffffffffffffffffff1673ffffffffffffffffffffffffffffffffffffffff16815260200190815260200160002060040160008c73ffffffffffffffffffffffffffffffffffffffff1673ffffffffffffffffffffffffffffffffffffffff16815260200190815260200160002060006101000a81548173ffffffffffffffffffffffffffffffffffffffff021916908373ffffffffffffffffffffffffffffffffffffffff160217905550600360008b73ffffffffffffffffffffffffffffffffffffffff1673ffffffffffffffffffffffffffffffffffffffff1681526020019081526020016000206003018590806001815401808255809150509060018203906000526020600020016000909192909190916101000a81548173ffffffffffffffffffffffffffffffffffffffff021916908373ffffffffffffffffffffffffffffffffffffffff1602179055505084600360008c73ffffffffffffffffffffffffffffffffffffffff1673ffffffffffffffffffffffffffffffffffffffff16815260200190815260200160002060040160003373ffffffffffffffffffffffffffffffffffffffff1673ffffffffffffffffffffffffffffffffffffffff16815260200190815260200160002060006101000a81548173ffffffffffffffffffffffffffffffffffffffff021916908373ffffffffffffffffffffffffffffffffffffffff16021790555050505050505050505050565b620021c162002663565b3360a0604051908101604052808681526020018581526020018481526020016000604051908082528060200260200182016040528015620022115781602001602082028038833980820191505090505b5081526020016001604051908082528060200260200182016040528015620022485781602001602082028038833980820191505090505b5081525091506000829080600181540180825580915050906001820390600052602060002090600702016000909192909190915060008201518160000190805190602001906200229a9291906200253c565b50602082015181600101556040820151816002019080519060200190620022c39291906200253c565b506060820151816003019080519060200190620022e2929190620025c3565b50608082015181600501908051906020019062002301929190620025c3565b5050505081600160003373ffffffffffffffffffffffffffffffffffffffff1673ffffffffffffffffffffffffffffffffffffffff1681526020019081526020016000206000820151816000019080519060200190620023639291906200253c565b506020820151816001015560408201518160020190805190602001906200238c9291906200253c565b506060820151816003019080519060200190620023ab929190620025c3565b506080820151816005019080519060200190620023ca929190620025c3565b509050505050505050565b6000600160003373ffffffffffffffffffffffffffffffffffffffff1673ffffffffffffffffffffffffffffffffffffffff16815260200190815260200160002060060160008373ffffffffffffffffffffffffffffffffffffffff1673ffffffffffffffffffffffffffffffffffffffff16815260200190815260200160002060009054906101000a900473ffffffffffffffffffffffffffffffffffffffff1690508073ffffffffffffffffffffffffffffffffffffffff166337feafd46040518163ffffffff167c0100000000000000000000000000000000000000000000000000000000028152600401600060405180830381600087803b158015620024de57600080fd5b505af1158015620024f3573d6000803e3d6000fd5b505050505050565b604051610919806200270283390190565b60a06040519081016040528060608152602001606081526020016060815260200160608152602001606081525090565b828054600181600116156101000203166002900490600052602060002090601f016020900481019282601f106200257f57805160ff1916838001178555620025b0565b82800160010185558215620025b0579182015b82811115620025af57825182559160200191906001019062002592565b5b509050620025bf919062002693565b5090565b8280548282559060005260206000209081019282156200263f579160200282015b828111156200263e5782518260006101000a81548173ffffffffffffffffffffffffffffffffffffffff021916908373ffffffffffffffffffffffffffffffffffffffff16021790555091602001919060010190620025e4565b5b5090506200264e9190620026bb565b5090565b604051610c01806200301b83390190565b60a06040519081016040528060608152602001600081526020016060815260200160608152602001606081525090565b620026b891905b80821115620026b45760008160009055506001016200269a565b5090565b90565b620026fe91905b80821115620026fa57600081816101000a81549073ffffffffffffffffffffffffffffffffffffffff021916905550600101620026c2565b5090565b9056006080604052600080556000600260146101000a81548160ff0219169083600381111561002757fe5b021790555034801561003857600080fd5b506040516020806109198339810180604052810190808051906020019092919050505080600160006101000a81548173ffffffffffffffffffffffffffffffffffffffff021916908373ffffffffffffffffffffffffffffffffffffffff16021790555032600260006101000a81548173ffffffffffffffffffffffffffffffffffffffff021916908373ffffffffffffffffffffffffffffffffffffffff1602179055505061082c806100ed6000396000f300608060405260043610610078576000357c0100000000000000000000000000000000000000000000000000000000900463ffffffff16806337feafd41461007d5780633bf6d35c146100945780637f70e975146100f75780638181693314610187578063c040e6b81461019e578063f8a8fd6d146101d7575b600080fd5b34801561008957600080fd5b50610092610202565b005b3480156100a057600080fd5b506100f5600480360381019080803573ffffffffffffffffffffffffffffffffffffffff169060200190929190803573ffffffffffffffffffffffffffffffffffffffff1690602001909291905050506102a0565b005b34801561010357600080fd5b5061010c61054b565b6040518080602001828103825283818151815260200191508051906020019080838360005b8381101561014c578082015181840152602081019050610131565b50505050905090810190601f1680156101795780820380516001836020036101000a031916815260200191505b509250505060405180910390f35b34801561019357600080fd5b5061019c6106fc565b005b3480156101aa57600080fd5b506101b361079a565b604051808260038111156101c357fe5b60ff16815260200191505060405180910390f35b3480156101e357600080fd5b506101ec6107ad565b6040518082815260200191505060405180910390f35b600280600381111561021057fe5b600260149054906101000a900460ff16600381111561022b57fe5b14151561023757600080fd5b32600260009054906101000a900473ffffffffffffffffffffffffffffffffffffffff1673ffffffffffffffffffffffffffffffffffffffff168173ffffffffffffffffffffffffffffffffffffffff1614151561029457600080fd5b61029c6107b3565b5050565b60008060038111156102ae57fe5b600260149054906101000a900460ff1660038111156102c957fe5b1415156102d557600080fd5b82328360008190508073ffffffffffffffffffffffffffffffffffffffff1663bd2f93d06040518163ffffffff167c0100000000000000000000000000000000000000000000000000000000028152600401602060405180830381600087803b15801561034157600080fd5b505af1158015610355573d6000803e3d6000fd5b505050506040513d602081101561036b57600080fd5b810190808051906020019092919050505073ffffffffffffffffffffffffffffffffffffffff168473ffffffffffffffffffffffffffffffffffffffff161415156103b557600080fd5b8073ffffffffffffffffffffffffffffffffffffffff16633c7328156040518163ffffffff167c0100000000000000000000000000000000000000000000000000000000028152600401602060405180830381600087803b15801561041957600080fd5b505af115801561042d573d6000803e3d6000fd5b505050506040513d602081101561044357600080fd5b810190808051906020019092919050505073ffffffffffffffffffffffffffffffffffffffff168373ffffffffffffffffffffffffffffffffffffffff1614151561048d57600080fd5b8073ffffffffffffffffffffffffffffffffffffffff1663fcaa76646040518163ffffffff167c0100000000000000000000000000000000000000000000000000000000028152600401602060405180830381600087803b1580156104f157600080fd5b505af1158015610505573d6000803e3d6000fd5b505050506040513d602081101561051b57600080fd5b8101908080519060200190929190505050600210151561053a57600080fd5b6105426107b3565b50505050505050565b6060600260149054906101000a900460ff16600381111561056857fe5b6000600381111561057557fe5b14156105b8576040805190810160405280601b81526020017f416363657074696e67436572746966696361746552657175657374000000000081525090506106f9565b600260149054906101000a900460ff1660038111156105d357fe5b600160038111156105e057fe5b1415610623576040805190810160405280601281526020017f526571756573744365727469666963617465000000000000000000000000000081525090506106f9565b600260149054906101000a900460ff16600381111561063e57fe5b6002600381111561064b57fe5b141561068e576040805190810160405280601081526020017f497373756543657274696669636174650000000000000000000000000000000081525090506106f9565b600260149054906101000a900460ff1660038111156106a957fe5b6003808111156106b557fe5b14156106f8576040805190810160405280601181526020017f616363657074436572746966696361746500000000000000000000000000000081525090506106f9565b5b90565b600180600381111561070a57fe5b600260149054906101000a900460ff16600381111561072557fe5b14151561073157600080fd5b32600160009054906101000a900473ffffffffffffffffffffffffffffffffffffffff1673ffffffffffffffffffffffffffffffffffffffff168173ffffffffffffffffffffffffffffffffffffffff1614151561078e57600080fd5b6107966107b3565b5050565b600260149054906101000a900460ff1681565b60005481565b6001600260149054906101000a900460ff1660038111156107d057fe5b0160038111156107dc57fe5b600260146101000a81548160ff021916908360038111156107f957fe5b02179055505600a165627a7a7230582095cb7cb1cdf8710db83d45381bbe139e860ad2afbfc4f4ff2d69a2ddaf2fd14d0029608060405260006002556000600760006101000a81548160ff0219169083600381111561002857fe5b02179055504260085534801561003d57600080fd5b50604051610c01380380610c01833981018060405281019080805190602001909291908051906020019092919080518201929190602001805182019291906020018051906020019092919080519060200190929190505050856000806101000a81548173ffffffffffffffffffffffffffffffffffffffff021916908373ffffffffffffffffffffffffffffffffffffffff16021790555084600160006101000a81548173ffffffffffffffffffffffffffffffffffffffff021916908373ffffffffffffffffffffffffffffffffffffffff1602179055506080604051908101604052808581526020018481526020018381526020018281525060036000820151816000019080519060200190610156929190610196565b506020820151816001019080519060200190610173929190610196565b50604082015181600201556060820151816003015590505050505050505061023b565b828054600181600116156101000203166002900490600052602060002090601f016020900481019282601f106101d757805160ff1916838001178555610205565b82800160010185558215610205579182015b828111156102045782518255916020019190600101906101e9565b5b5090506102129190610216565b5090565b61023891905b8082111561023457600081600090555060010161021c565b5090565b90565b6109b78061024a6000396000f300608060405260043610610099576000357c0100000000000000000000000000000000000000000000000000000000900463ffffffff168063221486af1461009e57806324615e76146100b55780633c732815146100cc5780637d50da1714610123578063bd2f93d01461013a578063c040e6b814610191578063d8270dce146101ca578063e35fb241146101f5578063fcaa766414610285575b600080fd5b3480156100aa57600080fd5b506100b36102b0565b005b3480156100c157600080fd5b506100ca610420565b005b3480156100d857600080fd5b506100e161058f565b604051808273ffffffffffffffffffffffffffffffffffffffff1673ffffffffffffffffffffffffffffffffffffffff16815260200191505060405180910390f35b34801561012f57600080fd5b506101386105b8565b005b34801561014657600080fd5b5061014f610728565b604051808273ffffffffffffffffffffffffffffffffffffffff1673ffffffffffffffffffffffffffffffffffffffff16815260200191505060405180910390f35b34801561019d57600080fd5b506101a6610752565b604051808260038111156101b657fe5b60ff16815260200191505060405180910390f35b3480156101d657600080fd5b506101df610765565b6040518082815260200191505060405180910390f35b34801561020157600080fd5b5061020a61076b565b6040518080602001828103825283818151815260200191508051906020019080838360005b8381101561024a57808201518184015260208101905061022f565b50505050905090810190601f1680156102775780820380516001836020036101000a031916815260200191505b509250505060405180910390f35b34801561029157600080fd5b5061029a61091c565b6040518082815260200191505060405180910390f35b60008060038111156102be57fe5b600760009054906101000a900460ff1660038111156102d957fe5b14151561034e576040517f08c379a00000000000000000000000000000000000000000000000000000000081526004018080602001828103825260168152602001807f4572726f722061745374616765206d6f6469666965720000000000000000000081525060200191505060405180910390fd5b32600160009054906101000a900473ffffffffffffffffffffffffffffffffffffffff1673ffffffffffffffffffffffffffffffffffffffff168173ffffffffffffffffffffffffffffffffffffffff16141515610414576040517f08c379a00000000000000000000000000000000000000000000000000000000081526004018080602001828103825260188152602001807f4572726f72206d6f646966696572206973436f6c6c656765000000000000000081525060200191505060405180910390fd5b61041c61093e565b5050565b600280600381111561042e57fe5b600760009054906101000a900460ff16600381111561044957fe5b1415156104be576040517f08c379a00000000000000000000000000000000000000000000000000000000081526004018080602001828103825260168152602001807f4572726f722061745374616765206d6f6469666965720000000000000000000081525060200191505060405180910390fd5b326000809054906101000a900473ffffffffffffffffffffffffffffffffffffffff1673ffffffffffffffffffffffffffffffffffffffff168173ffffffffffffffffffffffffffffffffffffffff16141515610583576040517f08c379a00000000000000000000000000000000000000000000000000000000081526004018080602001828103825260188152602001807f4572726f72206d6f64696669657220697353747564656e74000000000000000081525060200191505060405180910390fd5b61058b61093e565b5050565b60008060009054906101000a900473ffffffffffffffffffffffffffffffffffffffff16905090565b60018060038111156105c657fe5b600760009054906101000a900460ff1660038111156105e157fe5b141515610656576040517f08c379a00000000000000000000000000000000000000000000000000000000081526004018080602001828103825260168152602001807f4572726f722061745374616765206d6f6469666965720000000000000000000081525060200191505060405180910390fd5b32600160009054906101000a900473ffffffffffffffffffffffffffffffffffffffff1673ffffffffffffffffffffffffffffffffffffffff168173ffffffffffffffffffffffffffffffffffffffff1614151561071c576040517f08c379a00000000000000000000000000000000000000000000000000000000081526004018080602001828103825260188152602001807f4572726f72206d6f646966696572206973436f6c6c656765000000000000000081525060200191505060405180910390fd5b61072461093e565b5050565b6000600160009054906101000a900473ffffffffffffffffffffffffffffffffffffffff16905090565b600760009054906101000a900460ff1681565b60085481565b6060600760009054906101000a900460ff16600381111561078857fe5b6000600381111561079557fe5b14156107d8576040805190810160405280601681526020017f52657175657374666f72526567697374726174696f6e000000000000000000008152509050610919565b600760009054906101000a900460ff1660038111156107f357fe5b6001600381111561080057fe5b1415610843576040805190810160405280601481526020017f56657269667953747564656e7450726f66696c650000000000000000000000008152509050610919565b600760009054906101000a900460ff16600381111561085e57fe5b6002600381111561086b57fe5b14156108ae576040805190810160405280601381526020017f417070726f7665526567697374726174696f6e000000000000000000000000008152509050610919565b600760009054906101000a900460ff1660038111156108c957fe5b6003808111156108d557fe5b1415610918576040805190810160405280601281526020017f416363657074526567697374726174696f6e00000000000000000000000000008152509050610919565b5b90565b6000600760009054906101000a900460ff16600381111561093957fe5b905090565b6001600760009054906101000a900460ff16600381111561095b57fe5b01600381111561096757fe5b600760006101000a81548160ff0219169083600381111561098457fe5b02179055505600a165627a7a723058206ab344b75b3f33bf83354757cee665899734bf63be7390d6487ad867040893a30029a165627a7a7230582073379eab28cad0a56f3ba2d9dd8903eac018d53f871fb65899bbabbb640f14060029",
  "source": "pragma solidity ^0.4.23;\r\n\r\ncontract RegistrationAndCertificateContractFactory {\r\n\r\n    struct Student {\r\n        string fullName;\r\n        uint phoneNumber;\r\n        string emailId;\r\n        address[] registrationContracts;\r\n        mapping(address => address) registrationContractByCollege;\r\n        address[] certificationContracts;\r\n        mapping(address=>address) certificateContractsByCollege;\r\n    }\r\n    \r\n    struct College {\r\n        string instituteName;\r\n        string instituteCode;\r\n        string instituteAISHECode;\r\n        address[] registrationContracts;\r\n        mapping(address => address) registrationContractByStudent;\r\n        address[] certificationContracts;\r\n        mapping(address=>address) certificateContractsByStudent;\r\n    }\r\n    \r\n    Student[]  studentList;\r\n    mapping(address => Student) studentsInfo;\r\n    \r\n    College[]  collegeList;\r\n    mapping(address => College) collegesInfo;\r\n    \r\n    function getFirstCollege(address _studentAddress) public view returns(address){\r\n        return collegesInfo[msg.sender].registrationContractByStudent[_studentAddress];\r\n    }\r\n    function getFirstStudent() public view returns(address){\r\n        return studentsInfo[msg.sender].registrationContracts[0];\r\n    }\r\n\r\n    function getStudentData() public view returns(string memory,uint,string memory){\r\n        string memory _name = studentsInfo[msg.sender].fullName;\r\n        uint _phoneNumber = studentsInfo[msg.sender].phoneNumber;\r\n        string memory _emailId = studentsInfo[msg.sender].emailId;  \r\n        return(_name,_phoneNumber,_emailId);\r\n    }\r\n\r\n    /*function getRegisteredStudentData(address _studentAddress) public view returns(string memory,string memory,uint,uint){\r\n        \r\n    }  */\r\n    \r\n    function createStudent( string memory name, uint phoneNumber,  string memory emailId) public doesStudentExist(msg.sender){\r\n        Student memory newStudent = Student(name, phoneNumber,emailId, new address[](0),  new address[](1) );\r\n        studentList.push(newStudent);\r\n        studentsInfo[msg.sender] = newStudent;\r\n    }\r\n    \r\n    \r\n    function createCollege(string memory instituteName, string memory instituteCode, string memory instituteAISHECode) public {\r\n        College memory newCollege = College(instituteName, instituteCode, instituteAISHECode, new address[](0),  new address[](1));\r\n        collegeList.push(newCollege);\r\n        collegesInfo[msg.sender] = newCollege;\r\n    }\r\n    \r\n    modifier doesStudentExist(address studentAddress) {\r\n        // check if studentAddress is present in studentList or not.\r\n        _;\r\n    }\r\n    \r\n    modifier doesCollegeExist(address collegeAddress) {\r\n        // check if collegeAddress is present in collegeList or not\r\n        _;\r\n    }\r\n    \r\n    modifier notAlreadyRegistered(address studentAddress, address collegeAddress) {\r\n        // check if collegeStudentRegistrationContracts[collegeAddress][studentAddress] is empty or notAlreadyRegistered\r\n        _;\r\n    }\r\n    \r\n    function startRegistration(\r\n        address collegeAddress, string memory collegeRegNumber, string memory collegeEmailId, uint collegeDoJ, uint collegeDateOfPassing) doesStudentExist(msg.sender) doesCollegeExist(collegeAddress) notAlreadyRegistered(msg.sender, collegeAddress) public{\r\n        RegistrationContract newRegistrationContract = new \r\n        RegistrationContract(msg.sender, collegeAddress, collegeRegNumber, collegeEmailId, collegeDoJ, collegeDateOfPassing);\r\n        studentsInfo[msg.sender].registrationContracts.push(address(newRegistrationContract));\r\n        studentsInfo[msg.sender].registrationContractByCollege[collegeAddress] = address(newRegistrationContract);\r\n        collegesInfo[collegeAddress].registrationContracts.push(address(newRegistrationContract));\r\n        collegesInfo[collegeAddress].registrationContractByStudent[msg.sender] = address(newRegistrationContract);\r\n    }\r\n    \r\n    function verifyStudentProfile(address studentAddress) public{\r\n        //address registrationContractAddress = collegesInfo[msg.sender].registrationContractByStudent[studentAddress];\r\n        RegistrationContract registrationContract = RegistrationContract(collegesInfo[msg.sender].registrationContractByStudent[studentAddress]);\r\n        registrationContract.verifyStudentProfile();\r\n    }\r\n    \r\n    \r\n    function approveRegistration(address studentAddress) public\r\n    {\r\n        address registrationContractAddress = collegesInfo[msg.sender].registrationContractByStudent[studentAddress];\r\n        RegistrationContract registrationContract = RegistrationContract(registrationContractAddress);\r\n        registrationContract.approveRegistration();\r\n    }\r\n    \r\n    function acceptRegistration(address collegeAddress) public\r\n    {\r\n        address registrationContractAddress = studentsInfo[msg.sender].registrationContractByCollege[collegeAddress];\r\n        RegistrationContract registrationContract = RegistrationContract(registrationContractAddress);\r\n        registrationContract.acceptRegistration();\r\n    }\r\n    \r\n    function getRegistrationStatus(address studentAddress, address collegeAddress) public view returns (string memory) {\r\n        address registrationContractAddress = studentsInfo[studentAddress].registrationContractByCollege[collegeAddress];\r\n        RegistrationContract registrationContract = RegistrationContract(registrationContractAddress);\r\n        return registrationContract.getRegistrationStatus();\r\n    }\r\n\r\n    function getCertificationStatus(address studentAddress, address collegeAddress) public view returns (string memory) {\r\n        address certificateContractAddress = studentsInfo[studentAddress].certificateContractsByCollege[collegeAddress];\r\n        CertificateContract certificateContract = CertificateContract(certificateContractAddress);\r\n        return certificateContract.getCertificationStatus();\r\n        \r\n    }\r\n    \r\n    function startCertification(address _collegeAddress) public{\r\n        CertificateContract certContract = new CertificateContract(_collegeAddress);\r\n        studentsInfo[msg.sender].certificationContracts.push(address(certContract));\r\n        studentsInfo[msg.sender].certificateContractsByCollege[_collegeAddress] = address(certContract) ;\r\n    \r\n        collegesInfo[_collegeAddress].certificationContracts.push(address(certContract));\r\n        collegesInfo[_collegeAddress].certificateContractsByStudent[msg.sender] = address(certContract);\r\n    }\r\n    \r\n    function reqCertification(address _collegeAddress) public{\r\n        CertificateContract certContract = CertificateContract(studentsInfo[msg.sender].certificateContractsByCollege[_collegeAddress]);\r\n        address regContract = studentsInfo[msg.sender].registrationContractByCollege[_collegeAddress];\r\n        certContract.requestCertification(_collegeAddress,regContract);\r\n        \r\n    }\r\n    function issueCertification(address _studentAddress) public{\r\n        CertificateContract certContract = CertificateContract(collegesInfo[msg.sender].certificateContractsByStudent[_studentAddress]);\r\n        certContract.issueCertificate();\r\n        \r\n    }\r\n    function acceptCertification(address _collegeAddress) public{\r\n        CertificateContract certContract = CertificateContract(studentsInfo[msg.sender].certificateContractsByCollege[_collegeAddress]);\r\n        certContract.acceptCertificate();\r\n        \r\n    }\r\n    function getCertContractAddress(address _collegeAddress) public view returns(address){\r\n        return studentsInfo[msg.sender].certificateContractsByCollege[_collegeAddress];\r\n    } \r\n    \r\n}\r\n\r\ncontract RegistrationContract {\r\n    address studentAddress;\r\n    address collegeAddress;\r\n        \r\n    uint a = 0;\r\n    struct StudentInfo {\r\n        string collegeRegNumber;\r\n        string collegeEmailId;\r\n        uint collegeDoJ;\r\n        uint collegeDateOfPassing;\r\n    }\r\n        \r\n    StudentInfo studentInfo;\r\n         \r\n    constructor(\r\n            address _studentAddress, address _collegeAddress, string memory collegeRegNumber, string memory collegeEmailId, uint collegeDoJ, uint collegeDateOfPassing) public{\r\n        studentAddress = _studentAddress;\r\n        collegeAddress = _collegeAddress;\r\n        studentInfo = StudentInfo(collegeRegNumber, collegeEmailId, collegeDoJ, collegeDateOfPassing);\r\n    }\r\n        \r\n        \r\n    enum Stages {\r\n        RequestforRegistration,\r\n        VerifyStudentProfile,\r\n        ApproveRegistration,\r\n        AcceptRegistration\r\n    }\r\n        \r\n    Stages public stage = Stages.RequestforRegistration;\r\n    uint public creationTime = now;\r\n        \r\n    modifier atStage(Stages _stage) {\r\n        require(\r\n            stage == _stage,\r\n            \"Error atStage modifier\");\r\n        _;\r\n    }\r\n        //  // This modifier goes to the next stage\r\n        // // after the function is done.\r\n    modifier transitionNext(){\r\n        _;\r\n        nextStage();\r\n    }\r\n    function nextStage() internal {\r\n        stage = Stages(uint(stage) + 1);\r\n    }\r\n        \r\n      \r\n    modifier isStudent(address addr) {\r\n        require(\r\n            addr == studentAddress,\r\n            \"Error modifier isStudent\");\r\n        _;\r\n    }\r\n      \r\n    modifier isCollege(address addr) {\r\n        require(\r\n            addr == collegeAddress,\r\n            \"Error modifier isCollege\");\r\n        _;\r\n    }\r\n        \r\n    function getRegistrationStatus() public view returns (string memory) {\r\n        if(Stages.RequestforRegistration == stage){\r\n            return \"RequestforRegistration\";\r\n        }\r\n        if(Stages.VerifyStudentProfile == stage){\r\n            return \"VerifyStudentProfile\";\r\n        }\r\n        if(Stages.ApproveRegistration == stage){\r\n            return \"ApproveRegistration\";\r\n        }\r\n        if(Stages.AcceptRegistration == stage){\r\n            return \"AcceptRegistration\";\r\n        }\r\n    }\r\n        \r\n        \r\n    function verifyStudentProfile() public atStage(Stages.RequestforRegistration) isCollege(tx.origin) transitionNext\r\n    {\r\n            \r\n    }\r\n        \r\n    function approveRegistration() public atStage(Stages.VerifyStudentProfile) isCollege(tx.origin) transitionNext\r\n    {\r\n            \r\n    }\r\n        \r\n    function acceptRegistration() public atStage(Stages.ApproveRegistration) isStudent(tx.origin) transitionNext\r\n    {\r\n            \r\n    }\r\n        \r\n    function getStudentAddress() public view returns(address){\r\n        return studentAddress;\r\n    }\r\n    function getCollegeAddress() public view returns(address){\r\n        return collegeAddress;\r\n    }\r\n    function getStage() public view returns(uint){\r\n        return uint(stage);\r\n    }\r\n        \r\n}\r\n\r\ncontract CertificateContract {\r\n    \r\n    uint public test = 0;\r\n    address issuerAddress;\r\n    address recipientAddress;\r\n        \r\n    struct cert {\r\n        uint256 certId;\r\n        string certContent;\r\n    }\r\n\r\n    enum CertificateStages {\r\n        AcceptingCertificateRequest,\r\n        RequestCertificate,\r\n        IssueCertificate,\r\n        acceptCertificate\r\n    }\r\n\r\n    CertificateStages public stage = CertificateStages.AcceptingCertificateRequest;\r\n\r\n    \r\n    mapping (uint256 => cert) certificates;\r\n    mapping (address => uint256) certificatesByIssuer;\r\n    mapping (address => uint256) certificatesByRecipient;\r\n\r\n    modifier isApproved(address _collegeAddress,address _studentAddress,address _regAddress){\r\n        RegistrationContract regContract = RegistrationContract(_regAddress);\r\n        require(_collegeAddress == regContract.getCollegeAddress());\r\n        require(_studentAddress == regContract.getStudentAddress());\r\n        require(2 < regContract.getStage());\r\n        _;\r\n    }\r\n    modifier atStage(CertificateStages _stage) {\r\n        require(stage == _stage);\r\n        _;\r\n    }\r\n    modifier isStudent(address addr) {\r\n        require(addr == recipientAddress);\r\n        _;\r\n    }\r\n    modifier isCollege(address addr) {\r\n        require(addr == issuerAddress);\r\n        _;\r\n    }\r\n    modifier transitionNext(){\r\n        _;\r\n        nextStage();\r\n    }\r\n    function nextStage() internal {\r\n        stage = CertificateStages(uint(stage) + 1);\r\n    }\r\n\r\n\r\n    constructor(address _collegeAddress) public{\r\n        issuerAddress = _collegeAddress;\r\n        recipientAddress = tx.origin;\r\n    \r\n    }\r\n\r\n\r\n// issue certificate only to registered students in a particular college\r\n    function issueCertificate() \r\n    atStage(CertificateStages.RequestCertificate)\r\n    isCollege(tx.origin)\r\n    transitionNext\r\n    public{\r\n     \r\n    }\r\n // can be called by student of partical college\r\n    function requestCertification(address _collegeAddress,address _regAddress) \r\n        atStage(CertificateStages.AcceptingCertificateRequest)\r\n        isApproved(_collegeAddress,tx.origin,_regAddress) \r\n        transitionNext\r\n    public{\r\n     \r\n    }\r\n\r\n// can be accepted by student\r\n    function acceptCertificate() \r\n        atStage(CertificateStages.IssueCertificate)\r\n        isStudent(tx.origin)\r\n        transitionNext\r\n        public{\r\n    \r\n    }    \r\n\r\n    function getCertificationStatus() public view returns (string memory) {\r\n        if(CertificateStages.AcceptingCertificateRequest == stage){\r\n            return \"AcceptingCertificateRequest\";\r\n            }\r\n        if(CertificateStages.RequestCertificate == stage){\r\n            return \"RequestCertificate\";\r\n        }\r\n        if(CertificateStages.IssueCertificate == stage){\r\n            return \"IssueCertificate\";\r\n        }\r\n        if(CertificateStages.acceptCertificate == stage){\r\n            return \"acceptCertificate\";\r\n        }\r\n    }\r\n\r\n}",
  "sourcePath": "C:\\Users\\Sarang Parikh\\Desktop\\edu-git-node\\EduPlatform\\contracts\\RegistrationAndCertificateContractFactory.sol",
  "compiler": {
    "name": "solc",
    "version": "0.4.24+commit.e67f0147.Emscripten.clang"
  },
  "schemaVersion": "2.0.0",
  "updatedAt": "2019-03-04T16:57:18.386Z"
}