{
  "contractName": "RegistrationContract",
  "abi": [
    {
      "constant": true,
      "inputs": [],
      "name": "stage",
      "outputs": [
        {
          "name": "",
          "type": "uint8"
        }
      ],
      "payable": false,
      "stateMutability": "view",
      "type": "function"
    },
    {
      "constant": true,
      "inputs": [],
      "name": "creationTime",
      "outputs": [
        {
          "name": "",
          "type": "uint256"
        }
      ],
      "payable": false,
      "stateMutability": "view",
      "type": "function"
    },
    {
      "inputs": [
        {
          "name": "_studentAddress",
          "type": "address"
        },
        {
          "name": "_collegeAddress",
          "type": "address"
        },
        {
          "name": "collegeRegNumber",
          "type": "string"
        },
        {
          "name": "collegeEmailId",
          "type": "string"
        },
        {
          "name": "collegeDoJ",
          "type": "uint256"
        },
        {
          "name": "collegeDateOfPassing",
          "type": "uint256"
        }
      ],
      "payable": false,
      "stateMutability": "nonpayable",
      "type": "constructor"
    },
    {
      "constant": true,
      "inputs": [],
      "name": "getRegistrationStatus",
      "outputs": [
        {
          "name": "",
          "type": "string"
        }
      ],
      "payable": false,
      "stateMutability": "view",
      "type": "function"
    },
    {
      "constant": false,
      "inputs": [],
      "name": "verifyStudentProfile",
      "outputs": [],
      "payable": false,
      "stateMutability": "nonpayable",
      "type": "function"
    },
    {
      "constant": false,
      "inputs": [],
      "name": "approveRegistration",
      "outputs": [],
      "payable": false,
      "stateMutability": "nonpayable",
      "type": "function"
    },
    {
      "constant": false,
      "inputs": [],
      "name": "acceptRegistration",
      "outputs": [],
      "payable": false,
      "stateMutability": "nonpayable",
      "type": "function"
    },
    {
      "constant": true,
      "inputs": [],
      "name": "getStudentAddress",
      "outputs": [
        {
          "name": "",
          "type": "address"
        }
      ],
      "payable": false,
      "stateMutability": "view",
      "type": "function"
    },
    {
      "constant": true,
      "inputs": [],
      "name": "getCollegeAddress",
      "outputs": [
        {
          "name": "",
          "type": "address"
        }
      ],
      "payable": false,
      "stateMutability": "view",
      "type": "function"
    },
    {
      "constant": true,
      "inputs": [],
      "name": "getStage",
      "outputs": [
        {
          "name": "",
          "type": "uint256"
        }
      ],
      "payable": false,
      "stateMutability": "view",
      "type": "function"
    }
  ],
  "bytecode": "0x608060405260006002556000600760006101000a81548160ff0219169083600381111561002857fe5b02179055504260085534801561003d57600080fd5b50604051610c99380380610c99833981018060405260c081101561006057600080fd5b810190808051906020019092919080519060200190929190805164010000000081111561008c57600080fd5b828101905060208101848111156100a257600080fd5b81518560018202830111640100000000821117156100bf57600080fd5b505092919060200180516401000000008111156100db57600080fd5b828101905060208101848111156100f157600080fd5b815185600182028301116401000000008211171561010e57600080fd5b50509291906020018051906020019092919080519060200190929190505050856000806101000a81548173ffffffffffffffffffffffffffffffffffffffff021916908373ffffffffffffffffffffffffffffffffffffffff16021790555084600160006101000a81548173ffffffffffffffffffffffffffffffffffffffff021916908373ffffffffffffffffffffffffffffffffffffffff16021790555060806040519081016040528085815260200184815260200183815260200182815250600360008201518160000190805190602001906101ee92919061022e565b50602082015181600101908051906020019061020b92919061022e565b5060408201518160020155606082015181600301559050505050505050506102d3565b828054600181600116156101000203166002900490600052602060002090601f016020900481019282601f1061026f57805160ff191683800117855561029d565b8280016001018555821561029d579182015b8281111561029c578251825591602001919060010190610281565b5b5090506102aa91906102ae565b5090565b6102d091905b808211156102cc5760008160009055506001016102b4565b5090565b90565b6109b7806102e26000396000f3fe608060405260043610610099576000357c0100000000000000000000000000000000000000000000000000000000900463ffffffff168063221486af1461009e57806324615e76146100b55780633c732815146100cc5780637d50da1714610123578063bd2f93d01461013a578063c040e6b814610191578063d8270dce146101ca578063e35fb241146101f5578063fcaa766414610285575b600080fd5b3480156100aa57600080fd5b506100b36102b0565b005b3480156100c157600080fd5b506100ca610420565b005b3480156100d857600080fd5b506100e161058f565b604051808273ffffffffffffffffffffffffffffffffffffffff1673ffffffffffffffffffffffffffffffffffffffff16815260200191505060405180910390f35b34801561012f57600080fd5b506101386105b8565b005b34801561014657600080fd5b5061014f610728565b604051808273ffffffffffffffffffffffffffffffffffffffff1673ffffffffffffffffffffffffffffffffffffffff16815260200191505060405180910390f35b34801561019d57600080fd5b506101a6610752565b604051808260038111156101b657fe5b60ff16815260200191505060405180910390f35b3480156101d657600080fd5b506101df610765565b6040518082815260200191505060405180910390f35b34801561020157600080fd5b5061020a61076b565b6040518080602001828103825283818151815260200191508051906020019080838360005b8381101561024a57808201518184015260208101905061022f565b50505050905090810190601f1680156102775780820380516001836020036101000a031916815260200191505b509250505060405180910390f35b34801561029157600080fd5b5061029a61091c565b6040518082815260200191505060405180910390f35b60008060038111156102be57fe5b600760009054906101000a900460ff1660038111156102d957fe5b14151561034e576040517f08c379a00000000000000000000000000000000000000000000000000000000081526004018080602001828103825260168152602001807f4572726f722061745374616765206d6f6469666965720000000000000000000081525060200191505060405180910390fd5b32600160009054906101000a900473ffffffffffffffffffffffffffffffffffffffff1673ffffffffffffffffffffffffffffffffffffffff168173ffffffffffffffffffffffffffffffffffffffff16141515610414576040517f08c379a00000000000000000000000000000000000000000000000000000000081526004018080602001828103825260188152602001807f4572726f72206d6f646966696572206973436f6c6c656765000000000000000081525060200191505060405180910390fd5b61041c61093e565b5050565b600280600381111561042e57fe5b600760009054906101000a900460ff16600381111561044957fe5b1415156104be576040517f08c379a00000000000000000000000000000000000000000000000000000000081526004018080602001828103825260168152602001807f4572726f722061745374616765206d6f6469666965720000000000000000000081525060200191505060405180910390fd5b326000809054906101000a900473ffffffffffffffffffffffffffffffffffffffff1673ffffffffffffffffffffffffffffffffffffffff168173ffffffffffffffffffffffffffffffffffffffff16141515610583576040517f08c379a00000000000000000000000000000000000000000000000000000000081526004018080602001828103825260188152602001807f4572726f72206d6f64696669657220697353747564656e74000000000000000081525060200191505060405180910390fd5b61058b61093e565b5050565b60008060009054906101000a900473ffffffffffffffffffffffffffffffffffffffff16905090565b60018060038111156105c657fe5b600760009054906101000a900460ff1660038111156105e157fe5b141515610656576040517f08c379a00000000000000000000000000000000000000000000000000000000081526004018080602001828103825260168152602001807f4572726f722061745374616765206d6f6469666965720000000000000000000081525060200191505060405180910390fd5b32600160009054906101000a900473ffffffffffffffffffffffffffffffffffffffff1673ffffffffffffffffffffffffffffffffffffffff168173ffffffffffffffffffffffffffffffffffffffff1614151561071c576040517f08c379a00000000000000000000000000000000000000000000000000000000081526004018080602001828103825260188152602001807f4572726f72206d6f646966696572206973436f6c6c656765000000000000000081525060200191505060405180910390fd5b61072461093e565b5050565b6000600160009054906101000a900473ffffffffffffffffffffffffffffffffffffffff16905090565b600760009054906101000a900460ff1681565b60085481565b6060600760009054906101000a900460ff16600381111561078857fe5b6000600381111561079557fe5b14156107d8576040805190810160405280601681526020017f52657175657374666f72526567697374726174696f6e000000000000000000008152509050610919565b600760009054906101000a900460ff1660038111156107f357fe5b6001600381111561080057fe5b1415610843576040805190810160405280601481526020017f56657269667953747564656e7450726f66696c650000000000000000000000008152509050610919565b600760009054906101000a900460ff16600381111561085e57fe5b6002600381111561086b57fe5b14156108ae576040805190810160405280601381526020017f417070726f7665526567697374726174696f6e000000000000000000000000008152509050610919565b600760009054906101000a900460ff1660038111156108c957fe5b6003808111156108d557fe5b1415610918576040805190810160405280601281526020017f416363657074526567697374726174696f6e00000000000000000000000000008152509050610919565b5b90565b6000600760009054906101000a900460ff16600381111561093957fe5b905090565b6001600760009054906101000a900460ff16600381111561095b57fe5b01600381111561096757fe5b600760006101000a81548160ff0219169083600381111561098457fe5b021790555056fea165627a7a723058207b224b65f166dbf2e4bbc72de0daf5cb1188544d77886431eb4398061bf2b2c50029",
  "source": "pragma solidity ^0.5.0;\n\n\ncontract RegistrationContract {\n    address studentAddress;\n    address collegeAddress;\n        \n    uint a = 0;\n    struct StudentInfo {\n        string collegeRegNumber;\n        string collegeEmailId;\n        uint collegeDoJ;\n        uint collegeDateOfPassing;\n    }\n        \n    StudentInfo studentInfo;\n         \n    constructor(\n            address _studentAddress, address _collegeAddress, string memory collegeRegNumber, string memory collegeEmailId, uint collegeDoJ, uint collegeDateOfPassing) public{\n        studentAddress = _studentAddress;\n        collegeAddress = _collegeAddress;\n        studentInfo = StudentInfo(collegeRegNumber, collegeEmailId, collegeDoJ, collegeDateOfPassing);\n    }\n        \n        \n    enum Stages {\n        RequestforRegistration,\n        VerifyStudentProfile,\n        ApproveRegistration,\n        AcceptRegistration\n    }\n        \n    Stages public stage = Stages.RequestforRegistration;\n    uint public creationTime = now;\n        \n    modifier atStage(Stages _stage) {\n        require(\n            stage == _stage,\n            \"Error atStage modifier\");\n        _;\n    }\n        //  // This modifier goes to the next stage\n        // // after the function is done.\n    modifier transitionNext(){\n        _;\n        nextStage();\n    }\n    function nextStage() internal {\n        stage = Stages(uint(stage) + 1);\n    }\n        \n      \n    modifier isStudent(address addr) {\n        require(\n            addr == studentAddress,\n            \"Error modifier isStudent\");\n        _;\n    }\n      \n    modifier isCollege(address addr) {\n        require(\n            addr == collegeAddress,\n            \"Error modifier isCollege\");\n        _;\n    }\n        \n    function getRegistrationStatus() public view returns (string memory) {\n        if(Stages.RequestforRegistration == stage){\n            return \"RequestforRegistration\";\n        }\n        if(Stages.VerifyStudentProfile == stage){\n            return \"VerifyStudentProfile\";\n        }\n        if(Stages.ApproveRegistration == stage){\n            return \"ApproveRegistration\";\n        }\n        if(Stages.AcceptRegistration == stage){\n            return \"AcceptRegistration\";\n        }\n    }\n        \n        \n    function verifyStudentProfile() public atStage(Stages.RequestforRegistration) isCollege(tx.origin) transitionNext\n    {\n            \n    }\n        \n    function approveRegistration() public atStage(Stages.VerifyStudentProfile) isCollege(tx.origin) transitionNext\n    {\n            \n    }\n        \n    function acceptRegistration() public atStage(Stages.ApproveRegistration) isStudent(tx.origin) transitionNext\n    {\n            \n    }\n        \n    function getStudentAddress() public view returns(address){\n        return studentAddress;\n    }\n    function getCollegeAddress() public view returns(address){\n        return collegeAddress;\n    }\n    function getStage() public view returns(uint){\n        return uint(stage);\n    }\n        \n}",
  "sourcePath": "/Users/mani/Edu/gitRepo/EduPlatform/contracts/RegistrationContract.sol",
  "compiler": {
    "name": "solc",
    "version": "0.5.0+commit.1d4f565a.Emscripten.clang"
  },
  "schemaVersion": "3.0.1",
  "updatedAt": "2019-02-08T07:33:26.015Z",
  "devdoc": {
    "methods": {}
  },
  "userdoc": {
    "methods": {}
  }
}