{
  "contractName": "Register",
  "abi": [
    {
      "constant": false,
      "inputs": [
        {
          "name": "_fullName",
          "type": "string"
        },
        {
          "name": "_motherName",
          "type": "string"
        },
        {
          "name": "_mobile",
          "type": "uint256"
        },
        {
          "name": "_regNo",
          "type": "string"
        },
        {
          "name": "_dateOfJoining",
          "type": "uint256"
        },
        {
          "name": "_dateOfPassing",
          "type": "uint256"
        }
      ],
      "name": "createStudent",
      "outputs": [],
      "payable": false,
      "stateMutability": "nonpayable",
      "type": "function",
      "signature": "0xc51197dc"
    }
  ],
  "bytecode": "0x608060405234801561001057600080fd5b50610501806100206000396000f3fe608060405260043610610041576000357c0100000000000000000000000000000000000000000000000000000000900463ffffffff168063c51197dc14610046575b600080fd5b34801561005257600080fd5b50610258600480360360c081101561006957600080fd5b810190808035906020019064010000000081111561008657600080fd5b82018360208201111561009857600080fd5b803590602001918460018302840111640100000000831117156100ba57600080fd5b91908080601f016020809104026020016040519081016040528093929190818152602001838380828437600081840152601f19601f8201169050808301925050505050505091929192908035906020019064010000000081111561011d57600080fd5b82018360208201111561012f57600080fd5b8035906020019184600183028401116401000000008311171561015157600080fd5b91908080601f016020809104026020016040519081016040528093929190818152602001838380828437600081840152601f19601f82011690508083019250505050505050919291929080359060200190929190803590602001906401000000008111156101be57600080fd5b8201836020820111156101d057600080fd5b803590602001918460018302840111640100000000831117156101f257600080fd5b91908080601f016020809104026020016040519081016040528093929190818152602001838380828437600081840152601f19601f820116905080830192505050505050509192919290803590602001909291908035906020019092919050505061025a565b005b6102626103f9565b60c0604051908101604052808881526020018781526020018681526020018581526020018481526020018381525090506000819080600181540180825580915050906001820390600052602060002090600602016000909192909190915060008201518160000190805190602001906102dc929190610430565b5060208201518160010190805190602001906102f9929190610430565b50604082015181600201556060820151816003019080519060200190610320929190610430565b506080820151816004015560a0820151816005015550505080600160003373ffffffffffffffffffffffffffffffffffffffff1673ffffffffffffffffffffffffffffffffffffffff1681526020019081526020016000206000820151816000019080519060200190610394929190610430565b5060208201518160010190805190602001906103b1929190610430565b506040820151816002015560608201518160030190805190602001906103d8929190610430565b506080820151816004015560a0820151816005015590505050505050505050565b60c0604051908101604052806060815260200160608152602001600081526020016060815260200160008152602001600081525090565b828054600181600116156101000203166002900490600052602060002090601f016020900481019282601f1061047157805160ff191683800117855561049f565b8280016001018555821561049f579182015b8281111561049e578251825591602001919060010190610483565b5b5090506104ac91906104b0565b5090565b6104d291905b808211156104ce5760008160009055506001016104b6565b5090565b9056fea165627a7a72305820b8bc53eb71f9babba0ffb833195738034ccc704b0faee40c28b32c486d4edf7b0029",
  "source": "pragma solidity ^0.5.0;\n\ncontract Register {\n\n    struct Student {\n        string fullName;\n        string motherName;\n        uint mobile;\n        string regNo;\n        uint dateOfJoining;\n        uint dateOfPassing;\n    }\n\n    Student[] studentList;\n    mapping(address=>Student) studentInfo;\n\n    function createStudent(\n        string memory _fullName, string memory _motherName, uint _mobile, string memory _regNo, uint _dateOfJoining, uint _dateOfPassing) public{\n        Student memory newStudent = Student(_fullName, _motherName, _mobile, _regNo, _dateOfJoining, _dateOfPassing);\n        studentList.push(newStudent);\n        studentInfo[msg.sender] = newStudent;\n\n    }\n\n   /* function getStudent() public{\n        studentInfo(msg.sender);\n    }\n\n    function get() public view returns (string memory,string memory,uint,string memory,uint,uint) {\n\n        a = studentInfo[msg.sender];\n        return (a.fullName,a.motherName,a.mobile,a.regNo,a.dateOfJoining,a.dateOfPassing);\n    } */\n\n}",
  "sourcePath": "/Users/mani/Edu/gitRepo/EduPlatform/contracts/Register.sol",
  "compiler": {
    "name": "solc",
    "version": "0.5.0+commit.1d4f565a.Emscripten.clang"
  },
  "schemaVersion": "3.0.1",
  "updatedAt": "2019-01-17T11:53:03.712Z",
  "devdoc": {
    "methods": {}
  },
  "userdoc": {
    "methods": {}
  }
}