{
  "contractName": "RegistrationAndCertificateContractFactory",
  "abi": [
    {
      "constant": true,
      "inputs": [
        {
          "name": "_studentAddress",
          "type": "address"
        }
      ],
      "name": "getFirstCollege",
      "outputs": [
        {
          "name": "",
          "type": "address"
        }
      ],
      "payable": false,
      "stateMutability": "view",
      "type": "function"
    },
    {
      "constant": true,
      "inputs": [],
      "name": "getFirstStudent",
      "outputs": [
        {
          "name": "",
          "type": "address"
        }
      ],
      "payable": false,
      "stateMutability": "view",
      "type": "function"
    },
    {
      "constant": false,
      "inputs": [
        {
          "name": "name",
          "type": "string"
        },
        {
          "name": "phoneNumber",
          "type": "uint256"
        },
        {
          "name": "emailId",
          "type": "string"
        }
      ],
      "name": "createStudent",
      "outputs": [],
      "payable": false,
      "stateMutability": "nonpayable",
      "type": "function"
    },
    {
      "constant": false,
      "inputs": [
        {
          "name": "instituteName",
          "type": "string"
        },
        {
          "name": "instituteCode",
          "type": "string"
        },
        {
          "name": "instituteAISHECode",
          "type": "string"
        }
      ],
      "name": "createCollege",
      "outputs": [],
      "payable": false,
      "stateMutability": "nonpayable",
      "type": "function"
    },
    {
      "constant": false,
      "inputs": [
        {
          "name": "collegeAddress",
          "type": "address"
        },
        {
          "name": "collegeRegNumber",
          "type": "string"
        },
        {
          "name": "collegeEmailId",
          "type": "string"
        },
        {
          "name": "collegeDoJ",
          "type": "uint256"
        },
        {
          "name": "collegeDateOfPassing",
          "type": "uint256"
        }
      ],
      "name": "startRegistration",
      "outputs": [],
      "payable": false,
      "stateMutability": "nonpayable",
      "type": "function"
    },
    {
      "constant": false,
      "inputs": [
        {
          "name": "studentAddress",
          "type": "address"
        }
      ],
      "name": "verifyStudentProfile",
      "outputs": [],
      "payable": false,
      "stateMutability": "nonpayable",
      "type": "function"
    },
    {
      "constant": false,
      "inputs": [
        {
          "name": "studentAddress",
          "type": "address"
        }
      ],
      "name": "approveRegistration",
      "outputs": [],
      "payable": false,
      "stateMutability": "nonpayable",
      "type": "function"
    },
    {
      "constant": false,
      "inputs": [
        {
          "name": "collegeAddress",
          "type": "address"
        }
      ],
      "name": "acceptRegistration",
      "outputs": [],
      "payable": false,
      "stateMutability": "nonpayable",
      "type": "function"
    },
    {
      "constant": true,
      "inputs": [
        {
          "name": "studentAddress",
          "type": "address"
        },
        {
          "name": "collegeAddress",
          "type": "address"
        }
      ],
      "name": "getRegistrationStatus",
      "outputs": [
        {
          "name": "",
          "type": "string"
        }
      ],
      "payable": false,
      "stateMutability": "view",
      "type": "function"
    }
  ],
  "bytecode": "0x608060405234801561001057600080fd5b5061235d806100206000396000f3fe608060405260043610620000a3576000357c0100000000000000000000000000000000000000000000000000000000900463ffffffff16806318014d1514620000a85780635179fc4914620000fd57806385870a6f146200015257806395d3113a14620003555780639e5c196c1462000446578063acbe8cee14620004db578063b204e9f31462000535578063b7c2d050146200058a578063c12b577b1462000727575b600080fd5b348015620000b557600080fd5b50620000fb60048036036020811015620000ce57600080fd5b81019080803573ffffffffffffffffffffffffffffffffffffffff1690602001909291905050506200089a565b005b3480156200010a57600080fd5b5062000150600480360360208110156200012357600080fd5b81019080803573ffffffffffffffffffffffffffffffffffffffff169060200190929190505050620009f7565b005b3480156200015f57600080fd5b5062000353600480360360608110156200017857600080fd5b81019080803590602001906401000000008111156200019657600080fd5b820183602082011115620001a957600080fd5b80359060200191846001830284011164010000000083111715620001cc57600080fd5b91908080601f016020809104026020016040519081016040528093929190818152602001838380828437600081840152601f19601f820116905080830192505050505050509192919290803590602001906401000000008111156200023057600080fd5b8201836020820111156200024357600080fd5b803590602001918460018302840111640100000000831117156200026657600080fd5b91908080601f016020809104026020016040519081016040528093929190818152602001838380828437600081840152601f19601f82011690508083019250505050505050919291929080359060200190640100000000811115620002ca57600080fd5b820183602082011115620002dd57600080fd5b803590602001918460018302840111640100000000831117156200030057600080fd5b91908080601f016020809104026020016040519081016040528093929190818152602001838380828437600081840152601f19601f82011690508083019250505050505050919291929050505062000b5a565b005b3480156200036257600080fd5b50620003c8600480360360408110156200037b57600080fd5b81019080803573ffffffffffffffffffffffffffffffffffffffff169060200190929190803573ffffffffffffffffffffffffffffffffffffffff16906020019092919050505062000d2b565b6040518080602001828103825283818151815260200191508051906020019080838360005b838110156200040a578082015181840152602081019050620003ed565b50505050905090810190601f168015620004385780820380516001836020036101000a031916815260200191505b509250505060405180910390f35b3480156200045357600080fd5b5062000499600480360360208110156200046c57600080fd5b81019080803573ffffffffffffffffffffffffffffffffffffffff16906020019092919050505062000ed9565b604051808273ffffffffffffffffffffffffffffffffffffffff1673ffffffffffffffffffffffffffffffffffffffff16815260200191505060405180910390f35b348015620004e857600080fd5b50620004f362000f82565b604051808273ffffffffffffffffffffffffffffffffffffffff1673ffffffffffffffffffffffffffffffffffffffff16815260200191505060405180910390f35b3480156200054257600080fd5b5062000588600480360360208110156200055b57600080fd5b81019080803573ffffffffffffffffffffffffffffffffffffffff16906020019092919050505062001005565b005b3480156200059757600080fd5b5062000725600480360360a0811015620005b057600080fd5b81019080803573ffffffffffffffffffffffffffffffffffffffff16906020019092919080359060200190640100000000811115620005ee57600080fd5b8201836020820111156200060157600080fd5b803590602001918460018302840111640100000000831117156200062457600080fd5b91908080601f016020809104026020016040519081016040528093929190818152602001838380828437600081840152601f19601f820116905080830192505050505050509192919290803590602001906401000000008111156200068857600080fd5b8201836020820111156200069b57600080fd5b80359060200191846001830284011164010000000083111715620006be57600080fd5b91908080601f016020809104026020016040519081016040528093929190818152602001838380828437600081840152601f19601f820116905080830192505050505050509192919290803590602001909291908035906020019092919050505062001168565b005b3480156200073457600080fd5b5062000898600480360360608110156200074d57600080fd5b81019080803590602001906401000000008111156200076b57600080fd5b8201836020820111156200077e57600080fd5b80359060200191846001830284011164010000000083111715620007a157600080fd5b91908080601f016020809104026020016040519081016040528093929190818152602001838380828437600081840152601f19601f82011690508083019250505050505050919291929080359060200190929190803590602001906401000000008111156200080f57600080fd5b8201836020820111156200082257600080fd5b803590602001918460018302840111640100000000831117156200084557600080fd5b91908080601f016020809104026020016040519081016040528093929190818152602001838380828437600081840152601f19601f820116905080830192505050505050509192919290505050620015c7565b005b6000600360003373ffffffffffffffffffffffffffffffffffffffff1673ffffffffffffffffffffffffffffffffffffffff16815260200190815260200160002060040160008373ffffffffffffffffffffffffffffffffffffffff1673ffffffffffffffffffffffffffffffffffffffff16815260200190815260200160002060009054906101000a900473ffffffffffffffffffffffffffffffffffffffff1690508073ffffffffffffffffffffffffffffffffffffffff166318014d15336040518263ffffffff167c0100000000000000000000000000000000000000000000000000000000028152600401808273ffffffffffffffffffffffffffffffffffffffff1673ffffffffffffffffffffffffffffffffffffffff168152602001915050600060405180830381600087803b158015620009da57600080fd5b505af1158015620009ef573d6000803e3d6000fd5b505050505050565b6000600360003373ffffffffffffffffffffffffffffffffffffffff1673ffffffffffffffffffffffffffffffffffffffff16815260200190815260200160002060040160008373ffffffffffffffffffffffffffffffffffffffff1673ffffffffffffffffffffffffffffffffffffffff16815260200190815260200160002060009054906101000a900473ffffffffffffffffffffffffffffffffffffffff16905060008190508073ffffffffffffffffffffffffffffffffffffffff16635179fc49336040518263ffffffff167c0100000000000000000000000000000000000000000000000000000000028152600401808273ffffffffffffffffffffffffffffffffffffffff1673ffffffffffffffffffffffffffffffffffffffff168152602001915050600060405180830381600087803b15801562000b3c57600080fd5b505af115801562000b51573d6000803e3d6000fd5b50505050505050565b62000b6462001770565b608060405190810160405280858152602001848152602001838152602001600060405190808252806020026020018201604052801562000bb35781602001602082028038833980820191505090505b50815250905060028190806001815401808255809150509060018203906000526020600020906005020160009091929091909150600082015181600001908051906020019062000c0592919062001799565b50602082015181600101908051906020019062000c2492919062001799565b50604082015181600201908051906020019062000c4392919062001799565b50606082015181600301908051906020019062000c6292919062001820565b5050505080600360003373ffffffffffffffffffffffffffffffffffffffff1673ffffffffffffffffffffffffffffffffffffffff168152602001908152602001600020600082015181600001908051906020019062000cc492919062001799565b50602082015181600101908051906020019062000ce392919062001799565b50604082015181600201908051906020019062000d0292919062001799565b50606082015181600301908051906020019062000d2192919062001820565b5090505050505050565b60606000600160008573ffffffffffffffffffffffffffffffffffffffff1673ffffffffffffffffffffffffffffffffffffffff16815260200190815260200160002060040160008473ffffffffffffffffffffffffffffffffffffffff1673ffffffffffffffffffffffffffffffffffffffff16815260200190815260200160002060009054906101000a900473ffffffffffffffffffffffffffffffffffffffff16905060008190508073ffffffffffffffffffffffffffffffffffffffff1663e35fb2416040518163ffffffff167c010000000000000000000000000000000000000000000000000000000002815260040160006040518083038186803b15801562000e3957600080fd5b505afa15801562000e4e573d6000803e3d6000fd5b505050506040513d6000823e3d601f19601f82011682018060405250602081101562000e7957600080fd5b81019080805164010000000081111562000e9257600080fd5b8281019050602081018481111562000ea957600080fd5b815185600182028301116401000000008211171562000ec757600080fd5b50509291905050509250505092915050565b6000600360003373ffffffffffffffffffffffffffffffffffffffff1673ffffffffffffffffffffffffffffffffffffffff16815260200190815260200160002060040160008373ffffffffffffffffffffffffffffffffffffffff1673ffffffffffffffffffffffffffffffffffffffff16815260200190815260200160002060009054906101000a900473ffffffffffffffffffffffffffffffffffffffff169050919050565b6000600160003373ffffffffffffffffffffffffffffffffffffffff1673ffffffffffffffffffffffffffffffffffffffff168152602001908152602001600020600301600081548110151562000fd557fe5b9060005260206000200160009054906101000a900473ffffffffffffffffffffffffffffffffffffffff16905090565b6000600160003373ffffffffffffffffffffffffffffffffffffffff1673ffffffffffffffffffffffffffffffffffffffff16815260200190815260200160002060040160008373ffffffffffffffffffffffffffffffffffffffff1673ffffffffffffffffffffffffffffffffffffffff16815260200190815260200160002060009054906101000a900473ffffffffffffffffffffffffffffffffffffffff16905060008190508073ffffffffffffffffffffffffffffffffffffffff1663b204e9f3336040518263ffffffff167c0100000000000000000000000000000000000000000000000000000000028152600401808273ffffffffffffffffffffffffffffffffffffffff1673ffffffffffffffffffffffffffffffffffffffff168152602001915050600060405180830381600087803b1580156200114a57600080fd5b505af11580156200115f573d6000803e3d6000fd5b50505050505050565b338533876000338a8a8a8a8a6200117e620018af565b808773ffffffffffffffffffffffffffffffffffffffff1673ffffffffffffffffffffffffffffffffffffffff1681526020018673ffffffffffffffffffffffffffffffffffffffff1673ffffffffffffffffffffffffffffffffffffffff1681526020018060200180602001858152602001848152602001838103835287818151815260200191508051906020019080838360005b838110156200123157808201518184015260208101905062001214565b50505050905090810190601f1680156200125f5780820380516001836020036101000a031916815260200191505b50838103825286818151815260200191508051906020019080838360005b838110156200129a5780820151818401526020810190506200127d565b50505050905090810190601f168015620012c85780820380516001836020036101000a031916815260200191505b5098505050505050505050604051809103906000f080158015620012f0573d6000803e3d6000fd5b509050600160003373ffffffffffffffffffffffffffffffffffffffff1673ffffffffffffffffffffffffffffffffffffffff1681526020019081526020016000206003018190806001815401808255809150509060018203906000526020600020016000909192909190916101000a81548173ffffffffffffffffffffffffffffffffffffffff021916908373ffffffffffffffffffffffffffffffffffffffff1602179055505080600160003373ffffffffffffffffffffffffffffffffffffffff1673ffffffffffffffffffffffffffffffffffffffff16815260200190815260200160002060040160008c73ffffffffffffffffffffffffffffffffffffffff1673ffffffffffffffffffffffffffffffffffffffff16815260200190815260200160002060006101000a81548173ffffffffffffffffffffffffffffffffffffffff021916908373ffffffffffffffffffffffffffffffffffffffff160217905550600360008b73ffffffffffffffffffffffffffffffffffffffff1673ffffffffffffffffffffffffffffffffffffffff1681526020019081526020016000206003018190806001815401808255809150509060018203906000526020600020016000909192909190916101000a81548173ffffffffffffffffffffffffffffffffffffffff021916908373ffffffffffffffffffffffffffffffffffffffff1602179055505080600360008c73ffffffffffffffffffffffffffffffffffffffff1673ffffffffffffffffffffffffffffffffffffffff16815260200190815260200160002060040160003373ffffffffffffffffffffffffffffffffffffffff1673ffffffffffffffffffffffffffffffffffffffff16815260200190815260200160002060006101000a81548173ffffffffffffffffffffffffffffffffffffffff021916908373ffffffffffffffffffffffffffffffffffffffff16021790555050505050505050505050565b33620015d2620018c0565b6080604051908101604052808681526020018581526020018481526020016000604051908082528060200260200182016040528015620016215781602001602082028038833980820191505090505b5081525090506000819080600181540180825580915050906001820390600052602060002090600502016000909192909190915060008201518160000190805190602001906200167392919062001799565b506020820151816001015560408201518160020190805190602001906200169c92919062001799565b506060820151816003019080519060200190620016bb92919062001820565b5050505080600160003373ffffffffffffffffffffffffffffffffffffffff1673ffffffffffffffffffffffffffffffffffffffff16815260200190815260200160002060008201518160000190805190602001906200171d92919062001799565b506020820151816001015560408201518160020190805190602001906200174692919062001799565b5060608201518160030190805190602001906200176592919062001820565b509050505050505050565b608060405190810160405280606081526020016060815260200160608152602001606081525090565b828054600181600116156101000203166002900490600052602060002090601f016020900481019282601f10620017dc57805160ff19168380011785556200180d565b828001600101855582156200180d579182015b828111156200180c578251825591602001919060010190620017ef565b5b5090506200181c9190620018e9565b5090565b8280548282559060005260206000209081019282156200189c579160200282015b828111156200189b5782518260006101000a81548173ffffffffffffffffffffffffffffffffffffffff021916908373ffffffffffffffffffffffffffffffffffffffff1602179055509160200191906001019062001841565b5b509050620018ab919062001911565b5090565b6040516109da806200195883390190565b608060405190810160405280606081526020016000815260200160608152602001606081525090565b6200190e91905b808211156200190a576000816000905550600101620018f0565b5090565b90565b6200195491905b808211156200195057600081816101000a81549073ffffffffffffffffffffffffffffffffffffffff02191690555060010162001918565b5090565b9056fe608060405260006002556000600760006101000a81548160ff0219169083600381111561002857fe5b02179055504260085534801561003d57600080fd5b506040516109da3803806109da833981018060405260c081101561006057600080fd5b810190808051906020019092919080519060200190929190805164010000000081111561008c57600080fd5b828101905060208101848111156100a257600080fd5b81518560018202830111640100000000821117156100bf57600080fd5b505092919060200180516401000000008111156100db57600080fd5b828101905060208101848111156100f157600080fd5b815185600182028301116401000000008211171561010e57600080fd5b50509291906020018051906020019092919080519060200190929190505050856000806101000a81548173ffffffffffffffffffffffffffffffffffffffff021916908373ffffffffffffffffffffffffffffffffffffffff16021790555084600160006101000a81548173ffffffffffffffffffffffffffffffffffffffff021916908373ffffffffffffffffffffffffffffffffffffffff16021790555060806040519081016040528085815260200184815260200183815260200182815250600360008201518160000190805190602001906101ee92919061022e565b50602082015181600101908051906020019061020b92919061022e565b5060408201518160020155606082015181600301559050505050505050506102d3565b828054600181600116156101000203166002900490600052602060002090601f016020900481019282601f1061026f57805160ff191683800117855561029d565b8280016001018555821561029d579182015b8281111561029c578251825591602001919060010190610281565b5b5090506102aa91906102ae565b5090565b6102d091905b808211156102cc5760008160009055506001016102b4565b5090565b90565b6106f8806102e26000396000f3fe60806040526004361061008e576000357c0100000000000000000000000000000000000000000000000000000000900463ffffffff16806318014d15146100935780634d966def146100e45780635179fc49146100fb578063b204e9f31461014c578063c040e6b81461019d578063d8270dce146101d6578063e1cb0e5214610201578063e35fb2411461022c575b600080fd5b34801561009f57600080fd5b506100e2600480360360208110156100b657600080fd5b81019080803573ffffffffffffffffffffffffffffffffffffffff1690602001909291905050506102bc565b005b3480156100f057600080fd5b506100f961035b565b005b34801561010757600080fd5b5061014a6004803603602081101561011e57600080fd5b81019080803573ffffffffffffffffffffffffffffffffffffffff16906020019092919050505061036e565b005b34801561015857600080fd5b5061019b6004803603602081101561016f57600080fd5b81019080803573ffffffffffffffffffffffffffffffffffffffff16906020019092919050505061040d565b005b3480156101a957600080fd5b506101b26104ab565b604051808260038111156101c257fe5b60ff16815260200191505060405180910390f35b3480156101e257600080fd5b506101eb6104be565b6040518082815260200191505060405180910390f35b34801561020d57600080fd5b506102166104c4565b6040518082815260200191505060405180910390f35b34801561023857600080fd5b506102416104ce565b6040518080602001828103825283818151815260200191508051906020019080838360005b83811015610281578082015181840152602081019050610266565b50505050905090810190601f1680156102ae5780820380516001836020036101000a031916815260200191505b509250505060405180910390f35b60008060038111156102ca57fe5b600760009054906101000a900460ff1660038111156102e557fe5b1415156102f157600080fd5b81600160009054906101000a900473ffffffffffffffffffffffffffffffffffffffff1673ffffffffffffffffffffffffffffffffffffffff168173ffffffffffffffffffffffffffffffffffffffff1614151561034e57600080fd5b61035661067f565b505050565b6001600260008282540192505081905550565b600180600381111561037c57fe5b600760009054906101000a900460ff16600381111561039757fe5b1415156103a357600080fd5b81600160009054906101000a900473ffffffffffffffffffffffffffffffffffffffff1673ffffffffffffffffffffffffffffffffffffffff168173ffffffffffffffffffffffffffffffffffffffff1614151561040057600080fd5b61040861067f565b505050565b600280600381111561041b57fe5b600760009054906101000a900460ff16600381111561043657fe5b14151561044257600080fd5b816000809054906101000a900473ffffffffffffffffffffffffffffffffffffffff1673ffffffffffffffffffffffffffffffffffffffff168173ffffffffffffffffffffffffffffffffffffffff1614151561049e57600080fd5b6104a661067f565b505050565b600760009054906101000a900460ff1681565b60085481565b6000600254905090565b6060600760009054906101000a900460ff1660038111156104eb57fe5b600060038111156104f857fe5b141561053b576040805190810160405280601681526020017f52657175657374666f72526567697374726174696f6e00000000000000000000815250905061067c565b600760009054906101000a900460ff16600381111561055657fe5b6001600381111561056357fe5b14156105a6576040805190810160405280601481526020017f56657269667953747564656e7450726f66696c65000000000000000000000000815250905061067c565b600760009054906101000a900460ff1660038111156105c157fe5b600260038111156105ce57fe5b1415610611576040805190810160405280601381526020017f417070726f7665526567697374726174696f6e00000000000000000000000000815250905061067c565b600760009054906101000a900460ff16600381111561062c57fe5b60038081111561063857fe5b141561067b576040805190810160405280601281526020017f416363657074526567697374726174696f6e0000000000000000000000000000815250905061067c565b5b90565b6001600760009054906101000a900460ff16600381111561069c57fe5b0160038111156106a857fe5b600760006101000a81548160ff021916908360038111156106c557fe5b021790555056fea165627a7a72305820f77678552f4b9d16126cd63132dda2ccf7871750a38c15b604dc9093500665730029a165627a7a723058202c6f8f17b2568645671ca68717e382d366a83c144c185165981855420ac2a2b80029",
  "source": "pragma solidity ^0.5.0;\nimport \"./RegistrationContract.sol\";\n\ncontract RegistrationAndCertificateContractFactory {\n\n    struct Student {\n        string fullName;\n        uint phoneNumber;\n        string emailId;\n        address[] registrationContracts;\n        mapping(address => address) registrationContractByCollege;\n    }\n    \n    struct College {\n        string instituteName;\n        string instituteCode;\n        string instituteAISHECode;\n        address[] registrationContracts;\n        mapping(address => address) registrationContractByStudent;\n    }\n    \n    Student[]  studentList;\n    mapping(address => Student) studentsInfo;\n    \n    College[]  collegeList;\n    mapping(address => College) collegesInfo;\n    \n    function getFirstCollege(address _studentAddress) public view returns(address){\n        return collegesInfo[msg.sender].registrationContractByStudent[_studentAddress];\n    }\n    function getFirstStudent() public view returns(address){\n        return studentsInfo[msg.sender].registrationContracts[0];\n    }\n    \n    function createStudent( string memory name, uint phoneNumber,  string memory emailId) public doesStudentExist(msg.sender){\n        Student memory newStudent = Student(name, phoneNumber,emailId, new address[](0) );\n        studentList.push(newStudent);\n        studentsInfo[msg.sender] = newStudent;\n    }\n    \n    \n    function createCollege(string memory instituteName, string memory instituteCode, string memory instituteAISHECode) public {\n        College memory newCollege = College(instituteName, instituteCode, instituteAISHECode, new address[](0));\n        collegeList.push(newCollege);\n        collegesInfo[msg.sender] = newCollege;\n    }\n    \n    modifier doesStudentExist(address studentAddress) {\n        // check if studentAddress is present in studentList or not.\n        _;\n    }\n    \n    modifier doesCollegeExist(address collegeAddress) {\n        // check if collegeAddress is present in collegeList or not\n        _;\n    }\n    \n    modifier notAlreadyRegistered(address studentAddress, address collegeAddress) {\n        // check if collegeStudentRegistrationContracts[collegeAddress][studentAddress] is empty or notAlreadyRegistered\n        _;\n    }\n    \n    function startRegistration(address collegeAddress, string memory collegeRegNumber, string memory collegeEmailId, uint collegeDoJ, uint collegeDateOfPassing) doesStudentExist(msg.sender) doesCollegeExist(collegeAddress) notAlreadyRegistered(msg.sender, collegeAddress) public{\n        RegistrationContract newRegistrationContract = new RegistrationContract(msg.sender, collegeAddress, collegeRegNumber, collegeEmailId, collegeDoJ, collegeDateOfPassing);\n        studentsInfo[msg.sender].registrationContracts.push(address(newRegistrationContract));\n        studentsInfo[msg.sender].registrationContractByCollege[collegeAddress] = address(newRegistrationContract);\n        collegesInfo[collegeAddress].registrationContracts.push(address(newRegistrationContract));\n        collegesInfo[collegeAddress].registrationContractByStudent[msg.sender] = address(newRegistrationContract);\n    }\n    \n    function verifyStudentProfile(address studentAddress) public{\n        //address registrationContractAddress = collegesInfo[msg.sender].registrationContractByStudent[studentAddress];\n        RegistrationContract registrationContract = RegistrationContract(collegesInfo[msg.sender].registrationContractByStudent[studentAddress]);\n        registrationContract.verifyStudentProfile(msg.sender);\n    }\n    \n    \n    function approveRegistration(address studentAddress) public\n    {\n        address registrationContractAddress = collegesInfo[msg.sender].registrationContractByStudent[studentAddress];\n        RegistrationContract registrationContract = RegistrationContract(registrationContractAddress);\n        registrationContract.approveRegistration(msg.sender);\n    }\n    \n    function acceptRegistration(address collegeAddress) public\n    {\n        address registrationContractAddress = studentsInfo[msg.sender].registrationContractByCollege[collegeAddress];\n        RegistrationContract registrationContract = RegistrationContract(registrationContractAddress);\n        registrationContract.acceptRegistration(msg.sender);\n    }\n    \n    function getRegistrationStatus(address studentAddress, address collegeAddress) public view returns (string memory) {\n        address registrationContractAddress = studentsInfo[studentAddress].registrationContractByCollege[collegeAddress];\n        RegistrationContract registrationContract = RegistrationContract(registrationContractAddress);\n        return registrationContract.getRegistrationStatus();\n    }\n    \n}",
  "sourcePath": "/Users/mani/Edu/gitRepo/EduPlatform/contracts/RegistrationAndCertificateContractFactory.sol",
  "compiler": {
    "name": "solc",
    "version": "0.5.0+commit.1d4f565a.Emscripten.clang"
  },
  "schemaVersion": "3.0.1",
  "updatedAt": "2019-01-22T11:15:04.198Z",
  "devdoc": {
    "methods": {}
  },
  "userdoc": {
    "methods": {}
  }
}