{
  "contractName": "RegistrationContract",
  "abi": [
    {
      "constant": true,
      "inputs": [],
      "name": "stage",
      "outputs": [
        {
          "name": "",
          "type": "uint8"
        }
      ],
      "payable": false,
      "stateMutability": "view",
      "type": "function"
    },
    {
      "constant": true,
      "inputs": [],
      "name": "creationTime",
      "outputs": [
        {
          "name": "",
          "type": "uint256"
        }
      ],
      "payable": false,
      "stateMutability": "view",
      "type": "function"
    },
    {
      "inputs": [
        {
          "name": "_studentAddress",
          "type": "address"
        },
        {
          "name": "_collegeAddress",
          "type": "address"
        },
        {
          "name": "collegeRegNumber",
          "type": "string"
        },
        {
          "name": "collegeEmailId",
          "type": "string"
        },
        {
          "name": "collegeDoJ",
          "type": "uint256"
        },
        {
          "name": "collegeDateOfPassing",
          "type": "uint256"
        }
      ],
      "payable": false,
      "stateMutability": "nonpayable",
      "type": "constructor"
    },
    {
      "constant": true,
      "inputs": [],
      "name": "getRegistrationStatus",
      "outputs": [
        {
          "name": "",
          "type": "string"
        }
      ],
      "payable": false,
      "stateMutability": "view",
      "type": "function"
    },
    {
      "constant": false,
      "inputs": [
        {
          "name": "_collegeAddress",
          "type": "address"
        }
      ],
      "name": "verifyStudentProfile",
      "outputs": [],
      "payable": false,
      "stateMutability": "nonpayable",
      "type": "function"
    },
    {
      "constant": false,
      "inputs": [
        {
          "name": "_collegeAddress",
          "type": "address"
        }
      ],
      "name": "approveRegistration",
      "outputs": [],
      "payable": false,
      "stateMutability": "nonpayable",
      "type": "function"
    },
    {
      "constant": false,
      "inputs": [
        {
          "name": "_studentAddress",
          "type": "address"
        }
      ],
      "name": "acceptRegistration",
      "outputs": [],
      "payable": false,
      "stateMutability": "nonpayable",
      "type": "function"
    },
    {
      "constant": false,
      "inputs": [],
      "name": "incVal",
      "outputs": [],
      "payable": false,
      "stateMutability": "nonpayable",
      "type": "function"
    },
    {
      "constant": true,
      "inputs": [],
      "name": "getVal",
      "outputs": [
        {
          "name": "",
          "type": "uint256"
        }
      ],
      "payable": false,
      "stateMutability": "view",
      "type": "function"
    }
  ],
  "bytecode": "0x608060405260006002556000600760006101000a81548160ff0219169083600381111561002857fe5b02179055504260085534801561003d57600080fd5b506040516109da3803806109da833981018060405260c081101561006057600080fd5b810190808051906020019092919080519060200190929190805164010000000081111561008c57600080fd5b828101905060208101848111156100a257600080fd5b81518560018202830111640100000000821117156100bf57600080fd5b505092919060200180516401000000008111156100db57600080fd5b828101905060208101848111156100f157600080fd5b815185600182028301116401000000008211171561010e57600080fd5b50509291906020018051906020019092919080519060200190929190505050856000806101000a81548173ffffffffffffffffffffffffffffffffffffffff021916908373ffffffffffffffffffffffffffffffffffffffff16021790555084600160006101000a81548173ffffffffffffffffffffffffffffffffffffffff021916908373ffffffffffffffffffffffffffffffffffffffff16021790555060806040519081016040528085815260200184815260200183815260200182815250600360008201518160000190805190602001906101ee92919061022e565b50602082015181600101908051906020019061020b92919061022e565b5060408201518160020155606082015181600301559050505050505050506102d3565b828054600181600116156101000203166002900490600052602060002090601f016020900481019282601f1061026f57805160ff191683800117855561029d565b8280016001018555821561029d579182015b8281111561029c578251825591602001919060010190610281565b5b5090506102aa91906102ae565b5090565b6102d091905b808211156102cc5760008160009055506001016102b4565b5090565b90565b6106f8806102e26000396000f3fe60806040526004361061008e576000357c0100000000000000000000000000000000000000000000000000000000900463ffffffff16806318014d15146100935780634d966def146100e45780635179fc49146100fb578063b204e9f31461014c578063c040e6b81461019d578063d8270dce146101d6578063e1cb0e5214610201578063e35fb2411461022c575b600080fd5b34801561009f57600080fd5b506100e2600480360360208110156100b657600080fd5b81019080803573ffffffffffffffffffffffffffffffffffffffff1690602001909291905050506102bc565b005b3480156100f057600080fd5b506100f961035b565b005b34801561010757600080fd5b5061014a6004803603602081101561011e57600080fd5b81019080803573ffffffffffffffffffffffffffffffffffffffff16906020019092919050505061036e565b005b34801561015857600080fd5b5061019b6004803603602081101561016f57600080fd5b81019080803573ffffffffffffffffffffffffffffffffffffffff16906020019092919050505061040d565b005b3480156101a957600080fd5b506101b26104ab565b604051808260038111156101c257fe5b60ff16815260200191505060405180910390f35b3480156101e257600080fd5b506101eb6104be565b6040518082815260200191505060405180910390f35b34801561020d57600080fd5b506102166104c4565b6040518082815260200191505060405180910390f35b34801561023857600080fd5b506102416104ce565b6040518080602001828103825283818151815260200191508051906020019080838360005b83811015610281578082015181840152602081019050610266565b50505050905090810190601f1680156102ae5780820380516001836020036101000a031916815260200191505b509250505060405180910390f35b60008060038111156102ca57fe5b600760009054906101000a900460ff1660038111156102e557fe5b1415156102f157600080fd5b81600160009054906101000a900473ffffffffffffffffffffffffffffffffffffffff1673ffffffffffffffffffffffffffffffffffffffff168173ffffffffffffffffffffffffffffffffffffffff1614151561034e57600080fd5b61035661067f565b505050565b6001600260008282540192505081905550565b600180600381111561037c57fe5b600760009054906101000a900460ff16600381111561039757fe5b1415156103a357600080fd5b81600160009054906101000a900473ffffffffffffffffffffffffffffffffffffffff1673ffffffffffffffffffffffffffffffffffffffff168173ffffffffffffffffffffffffffffffffffffffff1614151561040057600080fd5b61040861067f565b505050565b600280600381111561041b57fe5b600760009054906101000a900460ff16600381111561043657fe5b14151561044257600080fd5b816000809054906101000a900473ffffffffffffffffffffffffffffffffffffffff1673ffffffffffffffffffffffffffffffffffffffff168173ffffffffffffffffffffffffffffffffffffffff1614151561049e57600080fd5b6104a661067f565b505050565b600760009054906101000a900460ff1681565b60085481565b6000600254905090565b6060600760009054906101000a900460ff1660038111156104eb57fe5b600060038111156104f857fe5b141561053b576040805190810160405280601681526020017f52657175657374666f72526567697374726174696f6e00000000000000000000815250905061067c565b600760009054906101000a900460ff16600381111561055657fe5b6001600381111561056357fe5b14156105a6576040805190810160405280601481526020017f56657269667953747564656e7450726f66696c65000000000000000000000000815250905061067c565b600760009054906101000a900460ff1660038111156105c157fe5b600260038111156105ce57fe5b1415610611576040805190810160405280601381526020017f417070726f7665526567697374726174696f6e00000000000000000000000000815250905061067c565b600760009054906101000a900460ff16600381111561062c57fe5b60038081111561063857fe5b141561067b576040805190810160405280601281526020017f416363657074526567697374726174696f6e0000000000000000000000000000815250905061067c565b5b90565b6001600760009054906101000a900460ff16600381111561069c57fe5b0160038111156106a857fe5b600760006101000a81548160ff021916908360038111156106c557fe5b021790555056fea165627a7a72305820f77678552f4b9d16126cd63132dda2ccf7871750a38c15b604dc9093500665730029",
  "source": "pragma solidity ^0.5.0;\ncontract RegistrationContract {\n    address studentAddress;\n    address collegeAddress;\n        \n    uint a = 0;\n    struct StudentInfo {\n        string collegeRegNumber;\n        string collegeEmailId;\n        uint collegeDoJ;\n        uint collegeDateOfPassing;\n    }\n        \n    StudentInfo studentInfo;\n         \n    constructor(\n            address _studentAddress, address _collegeAddress, string memory collegeRegNumber, string memory collegeEmailId, uint collegeDoJ, uint collegeDateOfPassing) public{\n            studentAddress = _studentAddress;\n            collegeAddress = _collegeAddress;\n            studentInfo = StudentInfo(collegeRegNumber, collegeEmailId, collegeDoJ, collegeDateOfPassing);\n    }\n        \n        \n    enum Stages {\n        RequestforRegistration,\n        VerifyStudentProfile,\n        ApproveRegistration,\n        AcceptRegistration\n    }\n        \n    Stages public stage = Stages.RequestforRegistration;\n    uint public creationTime = now;\n        \n    modifier atStage(Stages _stage) {\n        require(stage == _stage);\n        _;\n    }\n        //  // This modifier goes to the next stage\n        // // after the function is done.\n    modifier transitionNext()\n    {\n        _;\n        nextStage();\n    }\n        \n    function nextStage() internal {\n        stage = Stages(uint(stage) + 1);\n    }\n        \n      \n    modifier isStudent(address addr) {\n        require(addr == studentAddress);\n        _;\n    }\n      \n    modifier isCollege(address addr) {\n        require(addr == collegeAddress);\n        _;\n    }\n        \n    function getRegistrationStatus() public view returns (string memory) {\n        if(Stages.RequestforRegistration == stage){\n            return \"RequestforRegistration\";\n        }\n        if(Stages.VerifyStudentProfile == stage){\n            return \"VerifyStudentProfile\";\n        }\n        if(Stages.ApproveRegistration == stage){\n            return \"ApproveRegistration\";\n        }\n        if(Stages.AcceptRegistration == stage){\n            return \"AcceptRegistration\";\n        }\n    }\n        \n        \n    function verifyStudentProfile(address _collegeAddress) public atStage(Stages.RequestforRegistration) isCollege(_collegeAddress) transitionNext\n    {\n            \n    }\n        \n    function approveRegistration(address _collegeAddress) public atStage(Stages.VerifyStudentProfile) isCollege(_collegeAddress) transitionNext\n    {\n            \n    }\n        \n    function acceptRegistration(address _studentAddress) public atStage(Stages.ApproveRegistration) isStudent(_studentAddress) transitionNext\n    {\n            \n    }\n        \n    function incVal() public{\n        a += 1;\n    }\n        \n    function getVal() public view returns(uint){\n        return a;\n    }\n}",
  "sourcePath": "/Users/mani/Edu/gitRepo/EduPlatform/contracts/RegistrationContract.sol",
  "compiler": {
    "name": "solc",
    "version": "0.5.0+commit.1d4f565a.Emscripten.clang"
  },
  "schemaVersion": "3.0.1",
  "updatedAt": "2019-01-22T11:15:04.187Z",
  "devdoc": {
    "methods": {}
  },
  "userdoc": {
    "methods": {}
  }
}