{
  "contractName": "SimpleStorage",
  "abi": [
    {
      "constant": false,
      "inputs": [
        {
          "name": "_name",
          "type": "string"
        },
        {
          "name": "_phone",
          "type": "uint256"
        }
      ],
      "name": "createS",
      "outputs": [],
      "payable": false,
      "stateMutability": "nonpayable",
      "type": "function"
    },
    {
      "constant": true,
      "inputs": [],
      "name": "getS",
      "outputs": [
        {
          "name": "",
          "type": "string"
        },
        {
          "name": "",
          "type": "uint256"
        }
      ],
      "payable": false,
      "stateMutability": "view",
      "type": "function"
    },
    {
      "constant": false,
      "inputs": [
        {
          "name": "_name",
          "type": "string"
        },
        {
          "name": "x",
          "type": "uint256"
        }
      ],
      "name": "set",
      "outputs": [],
      "payable": false,
      "stateMutability": "nonpayable",
      "type": "function"
    },
    {
      "constant": true,
      "inputs": [],
      "name": "get",
      "outputs": [
        {
          "name": "",
          "type": "string"
        },
        {
          "name": "",
          "type": "uint256"
        }
      ],
      "payable": false,
      "stateMutability": "view",
      "type": "function"
    }
  ],
  "bytecode": "0x608060405234801561001057600080fd5b506106c8806100206000396000f300608060405260043610610062576000357c0100000000000000000000000000000000000000000000000000000000900463ffffffff1680636d4ce63c146100675780638a42ebe9146100fe5780638b7be0a814610171578063e93314ab146101e4575b600080fd5b34801561007357600080fd5b5061007c61027b565b6040518080602001838152602001828103825284818151815260200191508051906020019080838360005b838110156100c25780820151818401526020810190506100a7565b50505050905090810190601f1680156100ef5780820380516001836020036101000a031916815260200191505b50935050505060405180910390f35b34801561010a57600080fd5b5061016f600480360381019080803590602001908201803590602001908080601f016020809104026020016040519081016040528093929190818152602001838380828437820191505050505050919291929080359060200190929190505050610328565b005b34801561017d57600080fd5b506101e2600480360381019080803590602001908201803590602001908080601f01602080910402602001604051908101604052809392919081815260200183838082843782019150505050505091929192908035906020019092919050505061034a565b005b3480156101f057600080fd5b506101f9610430565b6040518080602001838152602001828103825284818151815260200191508051906020019080838360005b8381101561023f578082015181840152602081019050610224565b50505050905090810190601f16801561026c5780820380516001836020036101000a031916815260200191505b50935050505060405180910390f35b606060006001600054818054600181600116156101000203166002900480601f0160208091040260200160405190810160405280929190818152602001828054600181600116156101000203166002900480156103195780601f106102ee57610100808354040283529160200191610319565b820191906000526020600020905b8154815290600101906020018083116102fc57829003601f168201915b50505050509150915091509091565b80600081905550816001908051906020019061034592919061055d565b505050565b6103526105dd565b60408051908101604052808481526020018381525090506002819080600181540180825580915050906001820390600052602060002090600202016000909192909190915060008201518160000190805190602001906103b39291906105f7565b506020820151816001015550505080600360003373ffffffffffffffffffffffffffffffffffffffff1673ffffffffffffffffffffffffffffffffffffffff168152602001908152602001600020600082015181600001908051906020019061041d9291906105f7565b5060208201518160010155905050505050565b60606000600360003373ffffffffffffffffffffffffffffffffffffffff1673ffffffffffffffffffffffffffffffffffffffff168152602001908152602001600020600001600360003373ffffffffffffffffffffffffffffffffffffffff1673ffffffffffffffffffffffffffffffffffffffff16815260200190815260200160002060010154818054600181600116156101000203166002900480601f01602080910402602001604051908101604052809291908181526020018280546001816001161561010002031660029004801561054e5780601f106105235761010080835404028352916020019161054e565b820191906000526020600020905b81548152906001019060200180831161053157829003601f168201915b50505050509150915091509091565b828054600181600116156101000203166002900490600052602060002090601f016020900481019282601f1061059e57805160ff19168380011785556105cc565b828001600101855582156105cc579182015b828111156105cb5782518255916020019190600101906105b0565b5b5090506105d99190610677565b5090565b604080519081016040528060608152602001600081525090565b828054600181600116156101000203166002900490600052602060002090601f016020900481019282601f1061063857805160ff1916838001178555610666565b82800160010185558215610666579182015b8281111561066557825182559160200191906001019061064a565b5b5090506106739190610677565b5090565b61069991905b8082111561069557600081600090555060010161067d565b5090565b905600a165627a7a72305820efb167213503e265a9c8a9346e60b3fafe2dc27aba005dcf97bf4ed71f59c89b0029",
  "source": "pragma solidity ^0.4.23;\r\n\r\ncontract SimpleStorage {\r\n    uint storedData;\r\n    string name;\r\n\r\n    struct Student {\r\n        string nme;\r\n        uint phone;    \r\n    }\r\n    Student[] studentList;\r\n    mapping(address => Student) studentsInfo;\r\n\r\n    function createS(string memory _name, uint _phone) public {\r\n        Student memory newStudent = Student(_name,_phone);\r\n        studentList.push(newStudent);\r\n        studentsInfo[msg.sender] = newStudent;\r\n    }\r\n\r\n    function getS() public view returns(string memory,uint) {\r\n        return(studentsInfo[msg.sender].nme,studentsInfo[msg.sender].phone);\r\n    \r\n    }\r\n\r\n    function set(string memory _name, uint x) public {\r\n        storedData = x;\r\n        name = _name;\r\n\r\n    }\r\n\r\n    function get() public view returns (string memory,uint) {\r\n        return (name,storedData);\r\n    }\r\n}\r\n",
  "sourcePath": "C:\\Users\\Sarang Parikh\\Desktop\\edu-git-node\\EduPlatform\\contracts\\SimpleStorage.sol",
  "compiler": {
    "name": "solc",
    "version": "0.4.24+commit.e67f0147.Emscripten.clang"
  },
  "schemaVersion": "2.0.0",
  "updatedAt": "2019-03-04T16:58:30.000Z"
}